:020000040000FA
:06000000BBEF6CF01200E2
:020006001200E6
:06000800FEEF48F01200BB
:02000E000000F0
:060010001010400040004A
:020016001200D6
:06001800FEEF48F01200AB
:02001E000800D8
:10002000A2DA0000000400001D000000A0DA0000B9
:10003000AE0E00000200000097DA0000F703000097
:10004000090000008BDA00002F0400000C00000003
:100050006DDA0000D90300001E0000005BDA00002A
:100060001D040000120000003BDA0000DC0200006A
:1000700020000000EBD90000000300005000000049
:1000800000001200D9CFE6FFE1CFD9FF090EE1262B
:10009000D6CF07F0FE0EDBCF0CF0D7EC6CF00350A0
:1000A000DF6EDF50000845E2DF06DDEC68F0010E90
:1000B00004C0DBFF020E05C0DBFF030E06C0DBFF42
:1000C000040E07C0DBFFDDEC68F0050E04C0DBFFAB
:1000D000060E05C0DBFF070E06C0DBFF080E07C0DB
:1000E000DBFF050EDBCF18F0060EDBCF19F0070E95
:1000F000DBCF1AF0080EDBCF1BF0D950010FE96EF1
:10010000DACFEAFFEE50185C146EEE501958156EF7
:10011000EE501A58166EEE501B58176ED8803E0ED1
:100120001454000E1554000E1654000E1754CBE252
:10013000B8D7090EE15C02E2E16AE552E16EE552F0
:10014000E7CFD9FF1200D9CFE6FFE1CFD9FF2D0EBF
:10015000E12636EC47F0000902E18AEF16F00101D2
:1001600028B53EEF1AF0016B5051040B01E0010E6F
:10017000030BF36EFC0E0115F310016F5051019744
:10018000080B01E001875051030B010802E1010E49
:1001900001D0000E019BE8B0018B5051019D800BF6
:1001A00001E0018D50AF05D0018F51C104F152C162
:1001B00005F157C10AF156C109F128955051030BB9
:1001C000010A02E119EF0FF0020A02E1B6EF0DF0A9
:1001D000030A02E085EF16F00A0E555D02E285EF94
:1001E00016F0020EEA6A5325E96E5451EA22090E0E
:1001F000EFCFDBFF030EEA6A5325E96E5451EA2282
:100200000A0EEFCFDBFF040EEA6A5325E96E545164
:10021000EA220F0EEFCFDBFF050EEA6A5325E96EE7
:100220005451EA22100EEFCFDBFF060EEA6A532587
:10023000E96E5451EA220B0EEFCFDBFF070EEA6A9C
:100240005325E96E5451EA220C0EEFCFDBFF080E66
:10025000EA6A5325E96E5451EA220D0EEFCFDBFF17
:10026000090EEA6A5325E96E5451EA220E0EEFCFC9
:10027000DBFF50510197080B01E001870151030B8F
:1002800000090CE1D9500F0FE96EDACFEAFFFC0E3E
:10029000D880EE54FF0EED5401E359D10D0EDBCFA3
:1002A00014F00E0EDBCF15F01851141811E119518E
:1002B00015180EE10B0EDBCF16F00C0EDBCF17F08E
:1002C0001A51161805E11B51171802E185EF16F0B7
:1002D000DF6A100EDF5C42E2DF50080DF3CFE9FF6A
:1002E000F4CFEAFF580EE926010EEA22030EE926B2
:1002F000000EEA22EF5030E0DF50080DF3CFE9FFA7
:10030000F4CFEAFF580EE926010EEA22EECF14F0F0
:10031000EFCF15F00D0EDB5014181EE10E0EDB5062
:1003200015181AE1DF50080DF3CFE9FFF4CFEAFF0B
:10033000580EE926010EEA22020EE926000EEA22F4
:10034000EFCF16F00A0E0101EA6A5325E96E545107
:10035000EA22EF50165C02E0DF2ABBD7100EDF5C0A
:1003600002E285EF16F0DF6A100EDF5C12E2DF506A
:10037000080DF3CFE9FFF4CFEAFF580EE926010E8E
:10038000EA22030EE926000EEA22EF5002E0DF2AFD
:10039000EBD7100EDF5C5AE2DF50080DF3CFE9FF18
:1003A000F4CFEAFF580EE926010EEA220D0EDBCF4C
:1003B000EEFF0E0EDBCFEDFF0A0E0101EA6A5325B8
:1003C000E96E5451EA22EF50E66EDF50080DF3CF8C
:1003D000E9FFF4CFEAFF580EE926010EEA22020EE9
:1003E000E926000EEA22E552E750EF6EDF50080DD5
:1003F000F3CFE9FFF4CFEAFF580EE926010EEA2217
:10040000030EE926000EEA22030EEF6EDDEC68F023
:1004100004C014F005C015F006C016F007C017F0B0
:10042000DF50080DF3CFE9FFF4CFEAFF580EE926BD
:10043000010EEA22040EE926000EEA2204C0EEFFB5
:1004400015C0EEFF16C0EEFF17C0EEFFD9500F0F1C
:10045000E96EDACFEAFFFF0EEE1807E1FF0EED18A6
:1004600004E10101018101931CD0D9500F0FE96E05
:10047000DACFEAFFFE0EEE1806E1FF0EED1803E1FB
:10048000010101810DD0D9500F0FE96EDACFEAFFDB
:10049000FD0EEE1806E1FF0EED1803E101010191DA
:1004A000018353C1E9FF54C1EAFFEF50010801E3A2
:1004B000F0D053C1E9FF54C1EAFFEF0601012BA1BF
:1004C00012D008CEE6FF090EE66E0E0EE66E04CEE2
:1004D000E6FF05CEE6FF06CEE6FF59EC46F0146EC9
:1004E000060EE15E14500E01086BDF6A01015551E2
:1004F000DF5C15E2DF50EA6A5325E96E5451EA22C7
:10050000EF50E66E0E010851082BEA6A090FE96EFA
:100510000E0EEA22E552E750EF6EDF2AE7D750C110
:1005200004FEDDEC68F004C000FE05C001FE06C05C
:1005300002FE07C003FE320E146E0C6ED6CF07F01B
:10054000D7EC6CF003C007FE01012B81A2D0090E8D
:10055000DBCF14F00A0EDBCF15F01A51141802E0AD
:100560003BEF0DF01B51151802E03BEF0DF00F0EA5
:10057000DBCF16F0100EDBCF17F01851161802E083
:100580003BEF0DF01951171802E03BEF0DF0010E93
:10059000EA6A5325E96E5451EA22EF50040B01E157
:1005A00078D0FFC387F30301020E886F0B0EDBCFF9
:1005B00089F30C0EDBCF8AF30D0EDBCF8BF30E0E1F
:1005C000DBCF8CF31AC18DF31BC18EF318C18FF3EF
:1005D00019C190F30A0E0101EA6A5325E96E5451DC
:1005E000EA22EFCF91F30301926B300E936F01017A
:1005F0000D0E176F0E0EDB50195D12E0E66A0D0E40
:10060000DBCFE6FF0E0EDBCFE6FF0B0EDBCFE6FF08
:100610000C0EDBCFE6FF70EC1DF0146E050E35D02E
:100620004D6B4D8B0D0EDBCF21F10E0EDBCF22F18A
:100630000B0EDBCF23F10C0EDBCF24F12FEC25F0DA
:10064000DF6EFF0812E0DF500A0DF3CFE9FFF4CFB1
:10065000EAFF600EE926000EEA22040EE926000EEB
:10066000EA22E9CF4EF1EACF4FF117C1E6FF870E3C
:10067000E66E030EE66E4DC1E6FF4EC1E6FF4FC1CA
:10068000E6FF59EC46F0146E060EE15E14500101CF
:1006900001850B0E0101EA6A5325E96E5451EA22E5
:1006A000EF5002E003EF0DF00C0EEA6A5325E96EFD
:1006B0005451EA22EF50300802E1E6EF0CF00C0E44
:1006C000EA6A5325E96E5451EA22EF50420A02E1E8
:1006D000E3EF0CF0020A02E1B9EF0CF0010A02E1CB
:1006E00052EF0CF0F20A02E13EEF0CF0010A02E1D7
:1006F00004EF0CF0030A02E1D6EF0BF0010A02E16D
:10070000A1EF0BF0A10A02E1D9EF0AF0B50A02E16C
:1007100067EF09F0070A02E141EF09F0010A02E17F
:100720000DEF09F0030A02E12BEF08F0010A01E1E5
:10073000DED1B00A02E085EF16F03AB362D0DDEC0C
:1007400068F004C049F105C04AF106C04BF107C08A
:100750004CF1080E0101EA6A5325E96E5451EA2270
:10076000EFCF3CF1090EEA6A5325E96E5451EA22B3
:10077000EFCF3DF1110EDB6A040EF36E110EDBCFED
:10078000F4FFF350F45C18E2110EDB50020F0B0F74
:10079000EA6A5325E96E5451EA22EF50E66E110ED3
:1007A000DB50EA6A3E0FE96E010EEA22E552E7509D
:1007B000EF6E110EDB2AE0D73A833A91110EDB6A15
:1007C000010EF36E110EDBCFF4FFF350F45C02E385
:1007D00085EF16F0110EDB50110FEA6A5325E96E12
:1007E0005451EA22EF50E66E110EDB50EA6A420FD6
:1007F000E96E010EEA22E552E750EF6E110EDB2A98
:10080000DFD7080EEA6A5325E96E5451EA22EF5009
:100810003C5D0BE1090EEA6A5325E96E5451EA2268
:10082000EF503D5D02E185EF16F03C513D1101E0D6
:10083000BBD0110EDB6A040EF36E110EDBCFF4FF9A
:10084000F350F45C2AE2110EDB500D0FEA6A5325D7
:10085000E96E5451EA22EF50E66E110EDB50EA6A5F
:10086000450FE96E010EEA22E552E750EF6E110ED8
:10087000DB50EA6A450FE96E010EEA22EF50E66EA0
:10088000110EDB50EA6A1D0FE96E010EEA22E552F5
:10089000E750EF6E110EDB2ACED7080EEA6A532519
:1008A000E96E5451EA22EFCF43F1090EEA6A53256B
:1008B000E96E5451EA22EFCF44F143C121F144C122
:1008C00022F11AC123F11BC124F12FEC25F0010103
:1008D0003B6FFF0E3B5D01E005D18D0E296F21BFFF
:1008E00029916DEC26F001013B6FFF0E3B5D01E3AA
:1008F000F9D0110EDB6A010EF36E110EDBCFF4FF9F
:10090000F350F45C2BE2110EDB50110F0101EA6A87
:100910005325E96E5451EA22EF50E66E3B510A0D21
:10092000F3CFE9FFF4CFEAFF600EE926000EEA22DA
:10093000090EE926000EEA22E9CF14F0EACF15F0FD
:10094000110EDB500F01E924E96E000EEA20EA6E79
:10095000E552E750EF6E110EDB2ACDD70A0EE66E98
:10096000E66A01013B510A0D0E019C51F324146EFD
:100970009D51F420156E14C0E6FFE66E01013B5157
:100980000A0DF3CF16F0F4CF17F0600E1626000E06
:10099000172216C0E6FF17C0E6FF7AEC64F0186E67
:1009A000060EE15E18509ED0530EE66EBD0EE66E4A
:1009B000DDEC66F0E552E55201010B0E176FE850D1
:1009C000172BEA6A870FE96E030EEA22EF6A1751C6
:1009D000172BEA6A870FE96E030EEA22110EEF6EFB
:1009E000DB6A040EF36E110EDBCFF4FFF350F45C00
:1009F0002AE2110EDB500D0FEA6A5325E96E5451BD
:100A0000EA22EF50E66E110EDB50EA6A450FE96EFE
:100A1000010EEA22E552E750EF6E110EDB50EA6A52
:100A2000450FE96E010EEA22EF50E66E1751172BC3
:100A3000EA6A870FE96E030EEA22E552E750EF6E8D
:100A4000110EDB2ACED7080EEA6A5325E96E5451FF
:100A5000EA22EFCF43F1090EEA6A5325E96E5451B9
:100A6000EA22EFCF44F11751172BEA6A870FE96E9C
:100A7000030EEA2243C1EFFF1751172BEA6A870FD3
:100A8000E96E030EEA2244C1EFFF110EDB6A010E8C
:100A9000F36E110EDBCFF4FFF350F45C17E2110E8E
:100AA000DB50110FEA6A5325E96E5451EA22EF50E8
:100AB000E66E1751172BEA6A870FE96E030EEA22DA
:100AC000E552E750EF6E110EDB2AE1D7E66AE66ADF
:100AD0003C0EE66E010EE66E2FEC2FF0E552E5526D
:100AE000E552E55201013A833A8185EF16F0020E94
:100AF000305D02E085EF16F00D0EEA6A5325E96ECF
:100B00005451EA22EF5001E0ADD10B0E176FE850BF
:100B1000172BEA6A870FE96E030EEA22EF6A175174
:100B2000172BEA6A870FE96E030EEA22A10EEF6E19
:100B3000DF6A040EDF5C27E20E0EDF24EA6A53252B
:100B4000E96E5451EA22EF50E66EDF50EA6A1D0F5B
:100B5000E96E010EEA22E552E750EF6E0E0EDF2439
:100B6000EA6A5325E96E5451EA22EF50E66E1751B6
:100B7000172BEA6A870FE96E030EEA22E552E75067
:100B8000EF6EDF2AD6D702EC26F0E76E120EE7CF23
:100B9000DBFFDB50FF0801E0ACD00101216B010E4F
:100BA000DF6E100EDF5C0DE2DFCF22F12FEC25F0BF
:100BB000E76E120EE7CFDBFFDB50FF0802E0DF2A13
:100BC000F0D7100EDF5C01E38AD0DF50EA6A660FCF
:100BD000E96E0E0EEA220E0EDBCFEFFF0101175178
:100BE000172BEA6A870FE96E030EEA22DFCFEFFFC9
:100BF0009D0E296F1AC123F11BC124F16DEC26F063
:100C0000E76E120EE7CFDBFF100EF36E120EDBCF96
:100C1000F4FFF350F45C5CE2DF6A010EDF5C29E272
:100C2000120EDF240101EA6A5325E96E5451EA22CB
:100C3000EF50E66E120EDB500A0DF3CFE9FFF4CF52
:100C4000EAFF600EE926000EEA22090EE926000EF0
:100C5000EA22E9CF14F0EACF15F0DF500F01E924C2
:100C6000E96E000EEA20EA6EE552E750EF6EDF2AE9
:100C7000D4D7100EF36E120EDBCFF4FFF350F45CFA
:100C800001E3CBD00A0EE66EE66A120EDB500A0DC7
:100C90000E019C51F324146E9D51F420156E14C066
:100CA000E6FFE66E120EDB500A0DF3CF16F0F4CF1E
:100CB00017F0600E1626000E172216C0E6FF17C0AA
:100CC000E6FF7AEC64F0186E060EE15E1850A5D0CF
:100CD000DF50EA6A660FE96E0E0EEA22EF68010144
:100CE0001751172BEA6A870FE96E030EEA22EF68A5
:100CF00094D0120EDB500A0DF3CFE9FFF4CFEAFFD8
:100D0000600EE926000EEA22020EE926000EEA2213
:100D1000EF5072E10E0EDB50E76E130EE7CFDBFFF4
:100D2000DB502AE0130EDB50EA6A660FE96E0E0E06
:100D3000EA22EFCF14F0120EDB500A0DF3CFE9FFD9
:100D4000F4CFEAFF600EE926000EEA22020EE92641
:100D5000000EEA22010EE926000EEA22EF50145C92
:100D60000BE0130EDB50EA6A660FE96E0E0EEA2204
:100D7000130EEFCFDBFFD4D7130EDB501CE1120EA6
:100D8000DB500A0DF3CFE9FFF4CFEAFF600EE9264E
:100D9000000EEA22020EE926000EEA22010EE926E2
:100DA000000EEA22EF50EA6A660FE96E0E0EEA22A2
:100DB0000E0EDBCFEFFF120EDB500A0DF3CFE9FF73
:100DC000F4CFEAFF600EE926000EEA22020EE926C1
:100DD000000EEA22010EE926000EEA22EF50E66E2E
:100DE00001011751172BEA6A870FE96E030EEA22F9
:100DF000E552E750EF6E11D0120EDB500A0DF3CF23
:100E0000E9FFF4CFEAFF600EE926000EEA22080EA1
:100E1000E926000EEA22EF6AC0D6E66AE66AD950F1
:100E20000D0FE66E000EDA20E66E2FEC2FF0E55285
:100E3000E552E552E55201012B832B952B97DDEC12
:100E400068F004C02CF105C02DF106C02EF107C0DA
:100E50002FF1120E01012C5F7A0E2D5B000E2E5B1E
:100E60002F5B32D2DF6A040EDF5C14E20E0EDF2449
:100E7000EA6A5325E96E5451EA22EF50E66EDF50DC
:100E8000EA6A1D0FE96E010EEA22E552E750EF6EA5
:100E9000DF2AE9D702EC26F0E76E120EE7CFDBFF80
:100EA000DB50FF0802E185EF16F00F0EDF6EDF501A
:100EB00000086AE2140EDFCFDBFF150EDB6A140EAA
:100EC000DB5000085FE2140EDB50EA6A660FE96E41
:100ED0000E0EEA22EF50FF0855E0140EDB50EA6ACE
:100EE000660FE96E0E0EEA22EFCF14F0120EDB5001
:100EF0000A0DF3CFE9FFF4CFEAFF600EE926000EFA
:100F0000EA22020EE926000EEA22010EE926000E70
:100F1000EA22EF50145C25E1DF50EA6A660FE96EC1
:100F20000E0EEA22EF680101216BDFCF22F12FECD8
:100F300025F0E76E160EE7CFDBFFDB50FF0822E05F
:100F4000160EDB500A0DF3CFE9FFF4CFEAFF600E77
:100F5000E926000EEA22080EE926000EEA22EF6AD0
:100F600011D0140EDB50EA6A660FE96E0E0EEA220B
:100F7000140EEFCFDBFF150EDBCFF3FFDB2AF350B0
:100F800010089DE2DF0693D7120EDB500A0DF3CF57
:100F9000E9FFF4CFEAFF600EE926000EEA22020E16
:100FA000E926000EEA22010EE926000EEA22EF50A1
:100FB000EA6A660FE96E0E0EEA22EF68120EDB5047
:100FC0000A0DF3CFE9FFF4CFEAFF600EE926000E29
:100FD000EA22080EE926000EEA22EF6A0A0EE66E01
:100FE000E66A120EDB500A0D0E019C51F324146EBA
:100FF0009D51F420156E14C0E6FFE66E120EDB5014
:101000000A0DF3CF16F0F4CF17F0600E1626000E7F
:10101000172216C0E6FF17C0E6FF7AEC64F0186EE0
:10102000060EE15E185001012B832B952B97DDEC0A
:1010300068F004C02CF105C02DF106C02EF107C0E8
:101040002FF1120E01012C5F7A0E2D5B000E2E5B2C
:101050002F5B85EF16F0190EDB6ADF6A040EDF5C8A
:1010600014E20D0EDF24EA6A5325E96E5451EA2298
:10107000EF50E66EDF50EA6A1D0FE96E010EEA22BC
:10108000E552E750EF6EDF2AE9D7BF0E296F110E48
:10109000EA6A5325E96E5451EA22EF50FF0848E10D
:1010A00002EC26F0E76E170EE7CFDBFF100EF36EB3
:1010B000170EDBCFF4FFF350F45C02E385EF16F07C
:1010C00019C122F1010EF36E180EF3CFDBFFDF6AB8
:1010D000100EDF5C14E2180EDBCF21F12FEC25F0AF
:1010E000FF0809E1180EDB50800F0101216F2FEC82
:1010F00025F0FF0804E0180EDB2ADF2AE9D7100EDE
:10110000DF5C1FE2180EDB50146E156AD890155084
:1011100004E6800E145C000E155804E2180EDBCFB6
:1011200021F10FD0010EF36E190EF3CFDBFF09D0C2
:10113000216B110EEA6A5325E96E5451EA22EFCF72
:1011400022F11AC123F11BC124F16DEC26F0E76EE8
:10115000170EE7CFDBFF0301020E876F21C188F373
:1011600022C189F3190EDBCF8AF3DF6A010EDF5C3F
:1011700014E2DF50EA6A060FE96E040EEA22EF502D
:10118000E66E040EDF24EA6A870FE96E030EEA2298
:10119000E552E750EF6EDF2AE9D719C18CF3010160
:1011A000060E176F010EE66E170EDB500A0DF3CF19
:1011B000E9FFF4CFEAFF600EE926000EEA22040EF2
:1011C000E926000EEA22E9CF14F0EACF15F0E9CFC4
:1011D000E6FFEACFE6FF57EC1FF0E552E552E55295
:1011E000100EF36E170EDBCFF4FFF350F45C02E346
:1011F00085EF16F00A0EE66EE66A170EDB500A0D52
:101200000E019C51F324146E9D51F420156E14C0F0
:10121000E6FFE66E170EC1EF14F00B0E176FE850E5
:10122000172BEA6A870FE96E030EEA22EF6A17515D
:10123000172BEA6A870FE96E030EEA22A30EEF6E00
:10124000DF6A100EDF5C14E2DF50EA6A660FE96EB7
:101250000E0EEA22EF50E66E1751172BEA6A870F3F
:10126000E96E030EEA22E552E750EF6EDF2AE9D776
:10127000E66AE66AD9500D0FE66E000EDA206DEFD1
:1012800010F0DF6A100EDF5C14E20D0EDF24EA6A54
:101290005325E96E5451EA22EF50E66EDF50EA6AB8
:1012A000660FE96E0E0EEA22E552E750EF6EDF2A76
:1012B000E9D7DDEC68F004C02CF105C02DF106C0C3
:1012C0002EF107C02FF101012A8185EF16F056514A
:1012D000010802E385EF16F00E0EF36E1A0EF3CF3F
:1012E000DBFFDB50EA6A5325E96E5451EA221B0EFC
:1012F000EFCFDBFFDF6A020EDF5C21E21A0EDB2894
:10130000DF240101EA6A5325E96E5451EA22EF50C5
:10131000E66E0E0E156ADB34FE0B1536146E760E75
:1013200014260E0E1522DF500F011424E96E000E54
:101330001520EA6EE552E750EF6EDF2ADCD71A0E71
:10134000DB040101EA6A5325E96E5451EA22EF50A9
:10135000070B156E010E155204E0E846FE0B15064C
:10136000FCE1146E0E0EDB50F80BE842E842E84256
:10137000EA6A540FE96E0E0EEA221450EF12DF6A89
:10138000040EDF5C14E2DF500101EA6A5125E96EC8
:101390005251EA22EF50E66EDF50EA6A1D0FE96E05
:1013A000010EEA22E552E750EF6EDF2AE9D701018C
:1013B000216B1A0EDB04EA6A5325E96E5451EA22C6
:1013C000EFCF22F18F0E296F1AC123F11BC124F137
:1013D00002EC26F0DF6E100EDF5C4FE2DF500A0DEC
:1013E000F3CFE9FFF4CFEAFF600EE926000EEA2210
:1013F000020EE926000EEA22EECF14F0EFCF15F030
:10140000010121510001141804E1010122510001E0
:10141000151823E0DF500A0DF3CFE9FFF4CFEAFF00
:10142000600EE926000EEA22020EE926000EEA22EC
:1014300021C1EEFF22C1EDFFDF500A0DF3CFE9FF1E
:10144000F4CFEAFF600EE926000EEA22080EE92634
:10145000000EEA22EF8601012A87DF500A0DF3CF42
:10146000E9FFF4CFEAFF600EE926000EEA22080E3B
:10147000E926000EEA22EF8208D06DEC26F0146E09
:10148000100E145C02E201012A871A0EDB0401012E
:10149000EA6A5325E96E5451EA22EF50F36E1B0EAF
:1014A000DB50F35C01E077D02BA114D008CEE6FF2F
:1014B000090EE66E0E0EE66E04CEE6FF05CEE6FFE2
:1014C00006CEE6FF59EC46F0146E060EE15E1450AF
:1014D00001012B910E01010E096F020E0A6F1AC154
:1014E0000BFE1BC10CFEFD0E0D6F0E691AC10FFE27
:1014F0001BC110FE18C111FE19C112FE01012751B6
:10150000272B0E01136F146BA40E156F0D0E086FB1
:10151000E850082BEA6A090FE96E0E0EEA2219C19B
:10152000EFFF0851082BEA6A090FE96E0E0EEA2256
:101530001B0EDBCFEFFFDF6A020EDF5C14E2DF5031
:10154000EA6A540FE96E0E0EEA22EF50E66E085179
:10155000082BEA6A090FE96E0E0EEA22E552E750FF
:10156000EF6EDF2AE9D7046B0485048F320E146E08
:101570000C6ED6CF07F0D7EC6CF003C007FEDDECA5
:1015800068F004C000FE05C001FE06C002FE07C0F0
:1015900003FE01012B812A832A85DDEC68F004C05B
:1015A0002CF105C02DF106C02EF107C02FF185EFFB
:1015B00016F01C0EDB6A040EF36E1C0EDBCFF4FF7C
:1015C000F350F45C18E21C0EDB500B0F020FEA6ABA
:1015D0005325E96E5451EA22EF50E66E1C0EDB50A3
:1015E000EA6A1D0FE96E010EEA22E552E750EF6E3E
:1015F0001C0EDB2AE0D78D0E296F110EEA6A5325E7
:10160000E96E5451EA22EF50800B01E02991110E4E
:10161000EA6A5325E96E5451EA22EFCF21F1120E06
:10162000EA6A5325E96E5451EA22EFCF22F11AC13A
:1016300023F11BC124F12FEC25F001013B6FFF0EBC
:101640003B5D13E03B510A0DF3CFE9FFF4CFEAFF16
:10165000600EE926000EEA22080EE926000EEA22B4
:10166000EFCF29F12985298704D08D0E296F21BF5D
:1016700029916DEC26F001013B6FFF0E3B5D5DE2B1
:101680001C0EDB6A010EF36E1C0EDBCFF4FFF35071
:10169000F45C2BE21C0EDB50130F0101EA6A5325A8
:1016A000E96E5451EA22EF50E66E3B510A0DF3CF3A
:1016B000E9FFF4CFEAFF600EE926000EEA22090EE8
:1016C000E926000EEA22E9CF14F0EACF15F01C0E4D
:1016D000DB500F01E924E96E000EEA20EA6EE552C4
:1016E000E750EF6E1C0EDB2ACDD70A0EE66EE66AD7
:1016F00001013B510A0D0E019C51F324146E9D51C2
:10170000F420156E14C0E6FFE66E01013B510A0D90
:10171000F3CF16F0F4CF17F0600E1626000E172246
:1017200016C0E6FF17C0E6FF7AEC64F0186E060EEE
:10173000E15E185001013A8101D03A913A9385EF68
:1017400016F00D0EEA6A5325E96E5451EA221D0E79
:10175000EFCFDBFF0E0EEA6A5325E96E5451EA2201
:101760001E0EEFCFDBFF0F0EEA6A5325E96E5451D0
:10177000EA221F0EEFCFDBFF100EEA6A5325E96E57
:101780005451EA22200EEFCFDBFFD9501D0FE96E36
:10179000DACFEAFFEECFE6FFEECFE6FFEECFE6FFD1
:1017A000EFCFE6FFB3EC35F070EF10F00D0EEA6A04
:1017B0005325E96E5451EA22EFCF32F10E0EEA6A58
:1017C0005325E96E5451EA22EFCF33F10F0EEA6A46
:1017D0005325E96E5451EA22EFCF34F1100EEA6A34
:1017E0005325E96E5451EA22EFCF35F1316B318147
:1017F000DDEC68F004C036F105C037F106C038F101
:1018000007C039F185EF16F0800E146E0D0EEA6AEE
:101810005325E96E5451EA22EF50EA6A340FE96E1B
:101820000E0EEA22EF50145C02E385EF16F00B0E69
:10183000176FE850172BEA6A870FE96E030EEA224A
:10184000EF6A1751172BEA6A870FE96E030EEA2237
:10185000B30EEF6E0D0EEA6A5325E96E5451EA227B
:10186000EF50E66E1751172BEA6A870FE96E030EE9
:10187000EA22E552E750EF6E66EF10F00D0EEA6ACD
:101880005325E96E5451EA22EFCF14F03151F80B91
:10189000E842E842E842145C02E085EF16F0318548
:1018A00085EF16F00D0EEA6A5325E96E5451EA22CF
:1018B000EF500301FB5D02E085EF16F00101176BAD
:1018C000FFC387F30301020E886F1AC189F31BC19E
:1018D0008AF3080E0101EA6A5325E96E5451EA229F
:1018E000EFCF8BF3090EEA6A5325E96E5451EA22D1
:1018F000EFCF8CF31AC18DF31BC18EF318C18FF398
:1019000019C190F32751272B0301916F926B420E5F
:10191000936F01014D6B4D8B080EEA6A5325E96EFA
:101920005451EA22EFCF21F1090EEA6A5325E96EFC
:101930005451EA22EFCF22F12FEC25F0DF6EFF0E9B
:10194000DF5C02E185EF16F0DF500A0DF3CFE9FF0F
:10195000F4CFEAFF600EE926000EEA22040EE92623
:10196000000EEA22E9CF4EF1EACF4FF10D0EE66EFE
:10197000D7D00D0EEA6A5325E96E5451EA22EF5092
:101980000301FB5D02E085EF16F0DDEC68F004C0BA
:1019900036F105C037F106C038F107C039F1010151
:1019A00031830E0EEA6A5325E96E5451EA22EF5054
:1019B0001F0BF36EF346F346F346070E3115F31093
:1019C000316F85EF16F0289D85EF16F00A0EEA6A52
:1019D0005325E96E5451EA22EF500301FD5D0EE1FB
:1019E0000D0EDBCF14F00E0EDBCF15F001012551EB
:1019F000141804E12651151801E128970D0EDB504B
:101A0000800885EF16F00B0E555D086F0B0E532501
:101A1000066F000E5421076F0B0EDBCF02F10C0E88
:101A2000DBCF03F1080EEA6A5325E96E5451EA222E
:101A3000EF50FF0810E1090EEA6A5325E96E545190
:101A4000EA22EF50FF0807E150AF05D051C104F181
:101A500052C105F107D0018F080E5325046F000E07
:101A60005421056F018D0851000802E385EF16F03F
:101A7000288585EF16F053C1E9FF54C1EAFFEF5006
:101A8000000802E385EF16F053C1E9FF54C1EAFFF5
:101A9000EF06176BDF6A5551DF5C14E2DF50EA6A2C
:101AA0005325E96E5451EA22EF50E66E1751172B79
:101AB000EA6A870FE96E030EEA22E552E750EF6EFD
:101AC000DF2AE9D7100EDB50195D38E1030192518E
:101AD00035E1300E935D32E101014D6B4D8B0F0E00
:101AE000DBCF21F1100EDBCF22F12FEC25F0DF6EE2
:101AF000FF0802E185EF16F0DF500A0DF3CFE9FF92
:101B0000F4CFEAFF600EE926000EEA22040EE92671
:101B1000000EEA22E9CF4EF1EACF4FF117C1E6FFFE
:101B2000870EE66E030EE66E4DC1E6FFE9CFE6FFD7
:101B3000EACFE6FF59EC46F065EF16F0010150518F
:101B4000080B01E0010EE66E0F0EDBCFE6FF100E74
:101B5000DBCFE6FF090EDBCFE6FF0A0EDBCFE6FFA9
:101B600070EC1DF0146E050E67EF16F0040EF36EA8
:101B7000210EF3CFDBFFDB50040FEA6A5325E96E39
:101B80005451EA22EF505D0802E085EF16F028A1DB
:101B900085EF16F053C1E9FF54C1EAFFEFCF23F1FF
:101BA000010EEA6A5325E96E5451EA22EFCF24F17F
:101BB000020EEA6A5325E96E5451EA22EFCF21F171
:101BC000030EEA6A5325E96E5451EA22EFCF22F15F
:101BD000210EDB50EA6A5325E96E5451EA22EF5098
:101BE000FF0802E085EF16F0210EDB28EA6A532594
:101BF000E96E5451EA22220EEFCFDBFF010E0B5D9E
:101C000002E385EF16F0D950220FE96EDACFEAFF32
:101C1000EF50300BE842E842E842E842010802E2B5
:101C200085EF16F00B510B0DF3CFE9FFF4CFEAFF70
:101C30000C0EE926010EEA22FBC3EFFF0B510B0D40
:101C4000F3CFE9FFF4CFEAFF0C0EE926010EEA22FA
:101C5000070EE926000EEA2209C1EFFF0B510B0D1A
:101C6000F3CFE9FFF4CFEAFF0C0EE926010EEA22DA
:101C7000080EE926000EEA220AC1EFFF0B510B0DF8
:101C8000F3CFE9FFF4CFEAFF0C0EE926010EEA22BA
:101C9000050EE926000EEA2223C1EEFF24C1EDFF66
:101CA0000B510B0DF3CFE9FFF4CFEAFF0C0EE92641
:101CB000010EEA22090EE926000EEA22EF6A0B5114
:101CC0000B0DF3CFE9FFF4CFEAFF0C0EE926010E6E
:101CD000EA22090EE926000EEA22EF8CD950220FE3
:101CE000E96EDACFEAFFEF50060BE842146E0B51B3
:101CF0000B0DF3CFE9FFF4CFEAFF0C0EE926010E3E
:101D0000EA22090EE926000EEA221450030BF36EB4
:101D1000FC0EEF14F310EF6ED950220FE96EDACFFC
:101D2000EAFFEF50080B0FE00B510B0DF3CFE9FF6B
:101D3000F4CFEAFF0C0EE926010EEA22090EE9268D
:101D4000000EEA22EF86D950220FE96EDACFEAFFC1
:101D5000EF50300BE842E842E842E84201080FE366
:101D60000B510B0DF3CFE9FFF4CFEAFF0C0EE92680
:101D7000010EEA22090EE926000EEA22EF8ADF6A46
:101D8000040EDF5C24E2DF500101EA6A0425E96EFB
:101D90000551EA22EF50E66E0B510B0DF3CFE9FF30
:101DA000F4CFEAFF0C0EE926010EEA22EE52E9CF4B
:101DB00014F0EACF15F0DF500F01E924E96E000EB0
:101DC000EA20EA6EE552E750EF6EDF2AD9D7DF6AE4
:101DD000010EDF5C2AE2210EDB50060FDF24010139
:101DE000EA6A5325E96E5451EA22EF50E66E0B5130
:101DF0000B0DF3CFE9FFF4CFEAFF0C0EE926010E3D
:101E0000EA220A0EE926000EEA22E9CF14F0EACF10
:101E100015F0DF500F01E924E96E000EEA20EA6EAA
:101E2000E552E750EF6EDF2AD3D701010B2B85EF88
:101E300016F053C1E9FF54C1EAFFEF50070A02E16F
:101E40006AEF16F0040A02E122EF13F0010A01E141
:101E5000ABD2030A02E085EF16F0240EDB6A030121
:101E6000FC51010802E285EF16F0010128A385EF7D
:101E700016F0DF6A040EDF5C13E2DF50EA6A5125D8
:101E8000E96E5251EA22EF50E66EDF50EA6A1D0F0A
:101E9000E96E010EEA22E552E750EF6EDF2AEAD73B
:101EA00002EC26F0E76E230EE7CFDBFFDB50FF08E6
:101EB00070E0230EDB500A0DF3CFE9FFF4CFEAFF09
:101EC000600EE926000EEA22080EE926000EEA223C
:101ED000EF50200B5EE0230EDB5001011C5D59E04A
:101EE000230EDB500A0DF3CFE9FFF4CFEAFF600EBB
:101EF000E926000EEA22080EE926000EEA22EF503B
:101F0000080B47E0230EDB500A0DF3CFE9FFF4CFB7
:101F1000EAFF600EE926000EEA22020EE926000E14
:101F2000EA22EECF21F1EDCF22F10301FC510108AD
:101F300002E285EF16F0DF6A010EDF5C01E3F0D10B
:101F4000020EDF240101EA6A5325E96E5451EA22A8
:101F5000EF50E66E230EDB500A0DF3CFE9FFF4CF0E
:101F6000EAFF600EE926000EEA22090EE926000EBD
:101F7000EA22E9CF14F0EACF15F0DF500F01E9248F
:101F8000E96E000EEA20EA6EE552E750EF6EDF2AB6
:101F9000D3D70301FC51000802E285EF16F00101DE
:101FA000A70E296F1AC123F11BC124F16DEC26F095
:101FB000E76E230EE7CFDBFFDB50FF0801E121D105
:101FC000DF6A010EDF5C29E2020EDF240101EA6A0A
:101FD0005325E96E5451EA22EF50E66E230EDB5092
:101FE0000A0DF3CFE9FFF4CFEAFF600EE926000EF9
:101FF000EA22090EE926000EEA22E9CF14F0EACF20
:1020000015F0DF500F01E924E96E000EEA20EA6EB8
:10201000E552E750EF6EDF2AD4D7010E0101EA6ADC
:102020005325E96E5451EA22EF50400B01E1C4D030
:10203000020E305D57E00B0E176FE850172BEA6A5F
:10204000870FE96E030EEA22EF6A1751172BEA6A2F
:10205000870FE96E030EEA22A00EEF6E1751172BC1
:10206000EA6A870FE96E030EEA22EF6ADF6A040E5E
:10207000DF5C14E2DF50EA6A1D0FE96E010EEA220E
:10208000EF50E66E1751172BEA6A870FE96E030EC1
:10209000EA22E552E750EF6EDF2AE9D7DF6A010E48
:1020A000DF5C14E2DF50EA6A060FE96E040EEA22F2
:1020B000EF50E66E1751172BEA6A870FE96E030E91
:1020C000EA22E552E750EF6EDF2AE9D7216B226B57
:1020D000E66AE66A210EE66E010EE66E2FEC2FF040
:1020E000E55260D1216B010EF36E260EF3CFDBFFBC
:1020F000100EF36E260EDBCFF4FFF350F45C32E2E9
:10210000260EDBCF22F12FEC25F0E76E250EE7CF70
:10211000DBFFDB50FF0823E10101216B260EDBCF43
:1021200022F1DB50EA6A660FE96E0E0EEA22EF6AD0
:102130002B832B952B97DDEC68F004C02CF105C0A8
:102140002DF106C02EF107C02FF1120E01012C5FF8
:102150007A0E2D5B000E2E5B2F5B2A8103D0260E9C
:10216000DB2AC6D7260EDB50100855E10101226B91
:10217000010EDF6EDF50146E156AD890155004E61C
:10218000800E145C000E155813E2DFCF21F12FEC06
:1021900025F0FF080BE1800EDF240101216F2FECF9
:1021A00025F0FF0803E1DFCF21F102D0DF2AE2D7DB
:1021B000DF507F0830E225D019C122F1010EDF6E19
:1021C000DF50146E156AD890155004E6800E145C2A
:1021D000000E155813E2DFCF21F12FEC25F0FF0898
:1021E0000BE1800EDF240101216F2FEC25F0FF08A9
:1021F00003E1DFCF21F102D0DF2AE2D7DF507F08F1
:102200000AE2010EF36E240EF3CFDBFF0101FE0E96
:10221000216F226985D00101BF0E296F010EEA6A84
:102220005325E96E5451EA22EF50010B02E1299146
:10223000218F240EDB5074E11AC123F11BC124F15C
:102240006DEC26F0E76E230EE7CFDBFF100EF36E8A
:10225000230EDBCFF4FFF350F45C62E2230EDB507D
:102260000A0DF3CFE9FFF4CFEAFF600EE926000E76
:10227000EA22080EE926000EEA22EF88DF6A010E44
:10228000DF5C29E2020EDF240101EA6A5325E96ED0
:102290005451EA22EF50E66E230EDB500A0DF3CFC5
:1022A000E9FFF4CFEAFF600EE926000EEA22090EEC
:1022B000E926000EEA22E9CF14F0EACF15F0DF504C
:1022C0000F01E924E96E000EEA20EA6EE552E750BC
:1022D000EF6EDF2AD4D70A0EE66EE66A230EDB50D5
:1022E0000A0D0E019C51F324146E9D51F420156EBD
:1022F00014C0E6FFE66E230EDB500A0DF3CF16F096
:10230000F4CF17F0600E1626000E172216C0E6FF57
:1023100017C0E6FF7AEC64F0186E060EE15E185006
:102320000301020E876F21C188F322C189F3240EB5
:10233000DBCF8AF3DF6A010EDF5C14E2DF50EA6A6A
:10234000060FE96E040EEA22EF50E66E040EDF245B
:10235000EA6A870FE96E030EEA22E552E750EF6E54
:10236000DF2AE9D719C18CF30101060E176F010EA0
:10237000E66E230EDB500A0DF3CFE9FFF4CFEAFF40
:10238000600EE926000EEA22040EE926000EEA227B
:10239000E9CF14F0EACF15F0E9CFE6FFEACFE6FF88
:1023A00057EC1FF0E5521CD1030EEA6A5325E96E83
:1023B0005451EA22EF5001E016D1010EEA6A53258A
:1023C000E96E5451EA22EFCF18F1020EEA6A532562
:1023D000E96E5451EA22EFCF19F118510CE13E0E8B
:1023E000E66EBD0EE66EDDEC66F0E552E5520101EB
:1023F000010E306F0AD0290EE66EBD0EE66EDDECE2
:1024000066F0E552E5520101306B3051030BF36E7B
:10241000F346F90E0015F310006F010EE66EE66A42
:10242000AACEE6FFABCEE6FF300EE66E010EE66EFC
:102430007AEC64F0146E060EE15E14501A0EE66E2D
:10244000010EE66E180EE66E010EE66E2DEC45F0FE
:10245000E552E552E552E55201012883BF0E296F8E
:10246000DF6A040EDF5C13E2DF50EA6A5125E96E91
:102470005251EA22EF50E66EDF50EA6A1D0FE96E14
:10248000010EEA22E552E750EF6EDF2AEAD7216B10
:10249000050EEA6A5325E96E5451EA22EFCF22F184
:1024A0001AC123F11BC124F16DEC26F001011C6F50
:1024B000DF6A010EDF5C28E2040EDF240101EA6A14
:1024C0005325E96E5451EA22EF50E66E1C510A0D75
:1024D000F3CFE9FFF4CFEAFF600EE926000EEA220F
:1024E000090EE926000EEA22E9CF14F0EACF15F032
:1024F000DF500F01E924E96E000EEA20EA6EE55292
:10250000E750EF6EDF2AD5D701012B892B9B2B9D3E
:10251000DDEC68F004C02CF105C02DF106C02EF1F1
:1025200007C02FF1020EE66EE66A96CEE6FF97CE62
:10253000E6FF1A0EE66E010EE66E7AEC64F0146E9B
:10254000060EE15E1450020EE66EE66AA0CEE6FFCD
:10255000A1CEE6FF180EE66E010EE66E7AEC64F090
:10256000146E060EE15E1450010EE66EE66AA2CE0F
:10257000E6FFA3CEE6FF1C0EE66E010EE66E7AECD9
:1025800064F0146E060EE15E14500A0EE66EE66A02
:1025900001011C510A0D0E019C51F324146E9D5132
:1025A000F420156E14C0E6FFE66E01011C510A0D01
:1025B000F3CF16F0F4CF17F0600E1626000E172298
:1025C00016C0E6FF17C0E6FF7AEC64F0186E060E40
:1025D000E15E1850070EE66EBD0EE66EDDEC66F0AD
:1025E000E552E55292D31C691A691B692169226977
:1025F0001A0EE66E010EE66E210EE66E010EE66E16
:102600002DEC45F0E552E552E552E552010EE66E3D
:10261000E66AA2CEE6FFA3CEE6FF1C0EE66E010E32
:10262000E66E7AEC64F0146E060EE15E1450020E53
:10263000E66EE66A96CEE6FF97CEE6FF1A0EE66EE7
:10264000010E40D328A361D3DF6A040EDF5C13E2DE
:10265000DF50EA6A5125E96E5251EA22EF50E66EE8
:10266000DF50EA6A1D0FE96E010EEA22E552E750DB
:10267000EF6EDF2AEAD702EC26F0E76E270EE7CFEF
:10268000DBFFDB50FF0801E140D3270EDB500A0DD2
:10269000F3CFE9FFF4CFEAFF600EE926000EEA224D
:1026A000080EE926000EEA22EF50200B01E12DD39F
:1026B000270EDB5001011C5D01E178D1270EDB50B4
:1026C0000A0DF3CFE9FFF4CFEAFF600EE926000E12
:1026D000EA22020EE926000EEA22EF5001E030D194
:1026E000020E305D01E0D5D00F0EDF6EDF50000826
:1026F0006AE2280EDFCFDBFF290EDB6A280EDB50F3
:1027000000085FE2280EDB50EA6A660FE96E0E0EE3
:10271000EA22EF50FF0855E0280EDB50EA6A660F08
:10272000E96E0E0EEA22EFCF14F0270EDB500A0DF1
:10273000F3CFE9FFF4CFEAFF600EE926000EEA22AC
:10274000020EE926000EEA22010EE926000EEA2218
:10275000EF50145C25E1DF50EA6A660FE96E0E0E59
:10276000EA22EF680101216BDFCF22F12FEC25F087
:10277000E76E2A0EE7CFDBFFDB50FF0822E02A0ED0
:10278000DB500A0DF3CFE9FFF4CFEAFF600EE92634
:10279000000EEA22080EE926000EEA22EF6A11D0A6
:1027A000280EDB50EA6A660FE96E0E0EEA22280E4A
:1027B000EFCFDBFF290EDBCFF3FFDB2AF35010084E
:1027C0009DE2DF0693D7270EDB500A0DF3CFE9FF1A
:1027D000F4CFEAFF600EE926000EEA22020EE92697
:1027E000000EEA22010EE926000EEA22EF50EA6A04
:1027F000660FE96E0E0EEA22EF68270EDB500A0D17
:10280000F3CFE9FFF4CFEAFF600EE926000EEA22DB
:10281000080EE926000EEA22EF6A0A0EE66EE66A64
:10282000270EDB500A0D0E019C51F324146E9D51AE
:10283000F420156E14C0E6FFE66E270EDB500A0D7D
:10284000F3CF16F0F4CF17F0600E1626000E172205
:1028500016C0E6FF17C0E6FF7AEC64F0186E060EAD
:10286000E15E185001012B832B952B97DDEC68F06E
:1028700004C02CF105C02DF106C02EF107C02FF1C8
:10288000120E01012C5F7A0E2D5B000E2E5B2F5B6A
:1028900057D00B0E176FE850172BEA6A870FE96EB7
:1028A000030EEA22EF6A1751172BEA6A870FE96EC7
:1028B000030EEA22A00EEF6E1751172BEA6A870F5C
:1028C000E96E030EEA22010EEF6EDF6A040EDF5C92
:1028D00029E2270EDB500A0DF3CFE9FFF4CFEAFF20
:1028E000600EE926000EEA22040EE926000EEA2216
:1028F000E9CF14F0EACF15F0DF500F01E924E96EBB
:10290000000EEA20EA6EEF50E66E01011751172B18
:10291000EA6A870FE96E030EEA22E552E750EF6E8E
:10292000DF2AD4D7216B226BE66AE66A210EE66EB7
:10293000010EE66E2FEC2FF0E552E552E552E5521E
:10294000270EDB500A0DF3CFE9FFF4CFEAFF600E4C
:10295000E926000EEA22080EE926000EEA22EF6AB6
:102960000A0EE66EE66A270EDB500A0D0E019C5138
:10297000F324146E9D51F420156E14C0E6FFE66E2C
:10298000270EDB500A0DF3CF16F0F4CF17F0600ED0
:102990001626000E172216C0E6FF17C0E6FF7AECD7
:1029A00064F0186E060EE15E1850AFD1DF6A100EAB
:1029B000DF5C71E2DF500A0DF3CFE9FFF4CFEAFFED
:1029C000600EE926000EEA22080EE926000EEA2231
:1029D000EF50800B4FE0DF500A0DF3CFE9FFF4CF4B
:1029E000EAFF600EE926000EEA22080EE926000E34
:1029F000EA22EF50200B3EE001011C51DF5C3AE07F
:102A0000176B1751172BEA6A870FE96E030EEA223C
:102A1000030EEF6E4D6B4D8B4D814D934D8FDF50FF
:102A20000A0DF3CFE9FFF4CFEAFF600EE926000EAE
:102A3000EA22040EE926000EEA22E9CF4EF1EACF9F
:102A40004FF117C1E6FF870EE66E030EE66E4DC12D
:102A5000E6FFE9CFE6FFEACFE6FF59EC46F0146E59
:102A6000060EE15E1450640EE66EE66AEDEC63F06D
:102A7000E552E552DF500A0DF3CFE9FFF4CFEAFF4C
:102A8000600EE926000EEA22080EE926000EEA2270
:102A9000EF6ADF2A8CD701010B0E176FE850172B56
:102AA000EA6A870FE96E030EEA22EF6A1751172BC5
:102AB000EA6A870FE96E030EEA22A00EEF6E175145
:102AC000172BEA6A870FE96E030EEA22010EEF6EFA
:102AD000DF6A040EDF5C29E2270EDB500A0DF3CF1C
:102AE000E9FFF4CFEAFF600EE926000EEA22040EA9
:102AF000E926000EEA22E9CF14F0EACF15F0DF5004
:102B00000F01E924E96E000EEA20EA6EEF50E66E4E
:102B100001011751172BEA6A870FE96E030EEA22AB
:102B2000E552E750EF6EDF2AD4D7216B226BE66ABD
:102B3000E66A210EE66E010EE66E2FEC2FF0E552EE
:102B4000E552E552E55201011C69186919691A69D3
:102B50001B691A0EE66E010EE66E180EE66E010E89
:102B6000E66E2DEC45F0E552E552E552E5520101E5
:102B70002893DF6A100EDF5C28E2DF50EA6A660FF6
:102B8000E96E0E0EEA22EF68270EDB6A020EF36E84
:102B9000270EDBCFF4FFF350F45C15E2156ADF3447
:102BA000FE0B1536146E760E14260E0E1522270E09
:102BB000DB500F011424E96E000E1520EA6EEF6A57
:102BC000270EDB2AE3D7DF2AD5D7DF6A020EDF5CC8
:102BD00009E2DF50EA6A540FE96E0E0EEA22EF6A4C
:102BE000DF2AF4D7010EE66EE66AA2CEE6FFA3CE98
:102BF000E6FF1C0EE66E010EE66E7AEC64F0146ED3
:102C0000060EE15E1450020EE66EE66AA0CEE6FF06
:102C1000A1CEE6FF180EE66E010EE66E7AEC64F0C9
:102C2000146E060EE15E1450020EE66EE66A96CE53
:102C3000E6FF97CEE6FF1A0EE66E010EE66E7AEC20
:102C400064F0146E060EE15E1450100EE66EE66A35
:102C5000A8CEE6FFA9CEE6FF660EE66E0E0EE66E85
:102C60007AEC64F0146E060EE15E1450020EE66E0D
:102C7000E66AA4CEE6FFA5CEE6FF540EE66E0E0E83
:102C8000E66E7AEC64F0146E060EE15E1450200ECF
:102C9000E66EE66AA6CEE6FFA7CEE6FF760EE66E05
:102CA0000E0EE66E7AEC64F0146E060EE15E1450C1
:102CB000A00EE66EE66A9CCEE6FF9DCEE6FF600EB5
:102CC000E66E000EE66E7AEC64F0146E060EE15EBF
:102CD00014501BD00301FC51020817E3010128A383
:102CE00014D0010EEA6A5325E96E5451EA22EF50DE
:102CF0000301FB5D0AE10101305107E0320EE66E8F
:102D000042EC00F0E5527DEC25F0010128B502D03F
:102D10005CEC48F0DDEC68F0010E04C0DBFF020E55
:102D200005C0DBFF030E06C0DBFF040E07C0DBFFA0
:102D3000DF6A100EDF5C54E2DF50080DF3CFE9FFCD
:102D4000F4CFEAFF580EE926010EEA22030EE92627
:102D5000000EEA22EF50000841E2DF50080DF3CFE9
:102D6000E9FFF4CFEAFF580EE926010EEA22040E2D
:102D7000E926000EEA22EECF18F0EECF19F0EECFE2
:102D80001AF0EFCF1BF0D950010FE96EDACFEAFF4E
:102D900000011850EE5C146E1950EE58156E1A5062
:102DA000EE58166E1B50EE58176ED880240E145431
:102DB000F40E1554000E1654000E17540FE2DF5097
:102DC000080DF3CFE9FFF4CFEAFF580EE926010E14
:102DD000EA22030EE926000EEA22EF6ADF2AA9D7CB
:102DE000D950010FE96EDACFEAFF01012C51EE5CF8
:102DF000146E2D51EE58156E2E51EE58166E2F5141
:102E0000EE58176E050E14C0DBFF060E15C0DBFF73
:102E1000070E16C0DBFF080E17C0DBFF2B510E0B91
:102E2000E842000853E2D950050FE96EDACFEAFF15
:102E3000D880240EEE54F40EEE54000EEE54000E24
:102E4000EE5401E3B8D12B0EE96E010EEA6EEF509D
:102E50000E0BE842E806F36EE850070BF36EF46ED3
:102E6000F346F10EEF14F310EF6E0B0E176FE850F0
:102E7000172BEA6A870FE96E030EEA22EF6A1751F1
:102E8000172BEA6A870FE96E030EEA22A30EEF6E94
:102E9000DF6A100EDF5C14E2DF50EA6A660FE96E4B
:102EA0000E0EEA22EF50E66E1751172BEA6A870FD3
:102EB000E96E030EEA22E552E750EF6EDF2AE9D70A
:102EC000E66A020EE66EACEC2DF0ADD02B51700B25
:102ED000E842E842E842E842000873E2D950050FB0
:102EE000E96EDACFEAFFD880240EEE54F40EEE54E9
:102EF000000EEE54000EEE5401E35DD12B0EE96E90
:102F0000010EEA6EEF50700BE842E842E842E842F8
:102F1000E806F36EE850070BF36EF46EF346F346E3
:102F2000F346F3468F0EEF14F310EF6E0B0E176F90
:102F3000E850172BEA6A870FE96E030EEA22EF6A60
:102F40001751172BEA6A870FE96E030EEA22A40EC7
:102F5000EF6E1751172BEA6A870FE96E030EEA220C
:102F600019C1EFFF1751172BEA6A870FE96E030E9D
:102F7000EA2219C1EFFFDF6A020EDF5C14E2DF50C4
:102F8000EA6A540FE96E0E0EEA22EF50E66E175110
:102F9000172BEA6A870FE96E030EEA22E552E75023
:102FA000EF6EDF2AE9D70301010EFF6FE66A020E1A
:102FB000E66EACEC2DF0E552E5520301110EFF6F09
:102FC00034D0FF0E0E01665D3DE1010130053AE1AE
:102FD0002851020B37E0D950050FE96EDACFEAFF2E
:102FE000D880240EEE54F40EEE54000EEE54000E73
:102FF000EE5401E3E0D00B0E176FE850172BEA6A8E
:10300000870FE96E030EEA22EF6A1751172BEA6A5F
:10301000870FE96E030EEA22A20EEF6EE66A1CC16C
:10302000E6FFFAEC2DF0E552E552010EDBCF2CF174
:10303000020EDBCF2DF1030EDBCF2EF1040EDBCF22
:103040002FF1B9D001012AA159D0D950050FE96E4D
:10305000DACFEAFFD880480EEE54E80EEE54010EA7
:10306000EE54000EEE5401E3A6D02A91020E305D1C
:103070003AE01951EA6A660FE96E0E0EEA22EFCFC6
:1030800014F01C510A0DF3CFE9FFF4CFEAFF600EF4
:10309000E926000EEA22020EE926000EEA22010EBF
:1030A000E926000EEA22EF50145C1DE0216B195155
:1030B000EA6A660FE96E0E0EEA22EFCF22F12FECDC
:1030C00025F0DF6E100EDF5C03E2DFCF1CF10BD0CA
:1030D0000101BB0E296F1AC123F11BC124F16DEC54
:1030E00026F001011C6F100EE66EE66AA8CEE6FF20
:1030F000A9CEE6FF660EE66E0E0E56D02AA31BD0B2
:10310000D950050FE96EDACFEAFFD880480EEE54A9
:10311000E80EEE54010EEE54000EEE544CE22A93EB
:10312000020EE66EE66AA4CEE6FFA5CEE6FF540EDA
:10313000E66E0E0E39D02AA51BD0D950050FE96EC8
:10314000DACFEAFFD880480EEE54E80EEE54010EB6
:10315000EE54000EEE542FE22A95200EE66EE66A3B
:10316000A6CEE6FFA7CEE6FF760EE66E0E0E1CD0CC
:103170002AA721D0D950050FE96EDACFEAFFD8800F
:10318000480EEE54E80EEE54010EEE54000EEE54CE
:1031900012E22A97A00EE66EE66A9CCEE6FF9DCE6E
:1031A000E6FF600EE66E000EE66E7AEC64F0146EDA
:1031B000060EE15E145001012BA14BD0D950010F36
:1031C000E96EDACFEAFF0E010051EE5C146E015198
:1031D000EE58156E0251EE58166E0351EE58176EEA
:1031E00007CE18F0196A1A6A1B6A3E0E096E0A6A3F
:1031F0000B6A0C6A07CE04F019C005F01AC006F07D
:103200001BC007F06EEC6BF000C018F001C019F0A5
:1032100002C01AF003C01BF01450005C1550015896
:10322000165002581750035814E201012B9108CE92
:10323000E6FF090EE66E0E0EE66E04CEE6FF05CE44
:10324000E6FF06CEE6FF59EC46F0146E060EE15E90
:103250001450010131A327D0D950010FE96EDACF04
:10326000EAFF3651EE5C146E3751EE58156E385148
:10327000EE58166E3951EE58176ED880480E145419
:10328000E80E1554010E1654000E175449E2315140
:10329000F80BE842E842E842E66EDCEC29F0E55241
:1032A0000101316B3DD031A13BD0D950010FE96E06
:1032B000DACFEAFF3651EE5C146E3751EE58156ED8
:1032C0003851EE58166E3951EE58176ED880480EA8
:1032D0001454E80E1554010E1654000E175420E233
:1032E0002B0EFBC3DBFFD9CFE6FFDACFE6FFE66AA2
:1032F0000A0EE66E32C1E6FF33C1E6FF34C1E6FFD7
:1033000035C1E6FFBDEC32F0146E080EE15E1450DC
:103310002B0EDBCFE6FFDCEC29F0E5520101319109
:103320003AA3ACD03AA17DD0E90EE66EBC0EE66EB3
:10333000DDEC66F0E552E55201010B0E176FE85027
:10334000172BEA6A870FE96E030EEA22EF6A17511C
:10335000172BEA6A870FE96E030EEA22110EEF6E51
:103360002C0EDB6A040EF36E2C0EDBCFF4FFF35051
:10337000F45C16E22C0EDB50EA6A3E0FE96E010E99
:10338000EA22EF50E66E1751172BEA6A870FE96EB3
:10339000030EEA22E552E750EF6E2C0EDB2AE2D74D
:1033A0001751172BEA6A870FE96E030EEA223CC118
:1033B000EFFF1751172BEA6A870FE96E030EEA2217
:1033C0003DC1EFFF2C0EDB6A010EF36E2C0EDBCF3E
:1033D000F4FFF350F45C16E22C0EDB50EA6A420F65
:1033E000E96E010EEA22EF50E66E1751172BEA6ADA
:1033F000870FE96E030EEA22E552E750EF6E2C0EBE
:10340000DB2AE2D7E66AE66A430EE66E010EE66E56
:103410002FEC2FF0E552E552E552E55201013A93C7
:103420002DD0D950010FE96EDACFEAFF4951EE5C99
:10343000146E4A51EE58156E4B51EE58166E4C51A3
:10344000EE58176E050E14C0DBFF060E15C0DBFF2D
:10345000070E16C0DBFF080E17C0DBFFD950050FA3
:10346000E96EDACFEAFFD880B40EEE54C40EEE5403
:10347000040EEE54000EEE5401E23A932D0EE15C80
:1034800002E2E16AE552E16EE552E7CFD9FF1200B0
:10349000D9CFE6FFE1CFD9FF030EE126FE0EDB50C8
:1034A0000CE0FE0EDB50EA6A660FE96E0E0EEA22B1
:1034B000EFCF14F0100E145C02E3000E26D0010EC4
:1034C000DF6EFE0EDB50E76E010EE7CFDBFF020E74
:1034D000DB6A010EDB50EA6A660FE96E0E0EEA2225
:1034E000EF5012E0010EDB50EA6A660FE96E0E0E35
:1034F000EA22010EEFCFDBFFDF2A020EDBCFF3FF64
:10350000DB2AF3501008E5E2DF50146E030EE15C95
:1035100002E2E16AE552E16E1450E552E7CFD9FFCD
:103520001200D9CFE6FFE1CFD9FF070EE126050E45
:10353000DB6AFE0EDB5010080DE30E0166510CE154
:10354000FE0EDB50EA6A660FE96E0E0EEA22EF50BD
:10355000100802E2FF0EB8D2FE0EDB50070B156E0C
:10356000010E155204E0E846FE0B1506FCE1146E50
:10357000FE0EDB50F80BE842E842E842EA6A540FDC
:10358000E96E0E0EEA22EF50141402E0FE0E9BD2FA
:10359000DF6A100EDF5C27E2FE0EDB50070B176EB2
:1035A000010E175204E0E846FE0B1706FCE1166E0A
:1035B000156ADF34FE0B1536146E760E14260E0EC9
:1035C0001522FE0EDB50F80BE842E842E8420F01FC
:1035D0001424E96E000E1520EA6EEF50161401E077
:1035E00028D2DF2AD6D7FE0EDB50E76E020EE7CFD9
:1035F000DBFF040EDB6A020EDB5035E0020EDB500F
:10360000EA6A660FE96E0E0EEA22EF500101195DBB
:1036100019E1020EF36E050EF3CFDBFFFE0EDBCFDA
:10362000E6FF36DFE552146EE66E19C1E6FF30DFC5
:10363000E552E552E7CF14F0145CE76E030EE7CFD6
:10364000DBFF11D0020EDB50EA6A660FE96E0E0E48
:10365000EA22020EEFCFDBFF040EDBCFF3FFDB2A03
:10366000F3501008C8E2050EDB503FE1020E19C10D
:10367000DBFF040EDB6A020EDB5037E0020EDB508C
:10368000EA6A660FE96E0E0EEA22EFCF14F0FE0E24
:10369000DB50145C19E1010EF36E050EF3CFDBFF76
:1036A00019C1E6FFF5DEE552146EE66EFE0EDBCFC5
:1036B000E6FFEEDEE552E552E7CF14F0145CE76E6C
:1036C000030EE7CFDBFF11D0020EDB50EA6A660F74
:1036D000E96E0E0EEA22020EEFCFDBFF040EDBCF07
:1036E000F3FFDB2AF3501008C6E2050EDB500EE1B3
:1036F000030EF36E050EF3CFDBFFFE0EDBCFE6FF0E
:10370000C7DEE552E76E030EE7CFDBFF010EDF6E8B
:10371000030EDB50DF5C01E352D1FE0EDB50E76E9F
:10372000020EE7CFDBFF010EDB6ADF50F36E010E06
:10373000DBCFF4FFF350F45C0DE2020EDB50EA6ADB
:10374000660FE96E0E0EEA22020EEFCFDBFF010ECE
:10375000DB2AEBD7020EDB50070B156E010E15525C
:1037600004E0E846FE0B1506FCE1146E020EDB5089
:10377000F80BE842E842E842EA6A540FE96E0E0E9E
:10378000EA22EF50141402E0020E9DD1060EDB6A0D
:10379000100EF36E060EDBCFF4FFF350F45C4DE237
:1037A000060EDB50EA6A660FE96E0E0EEA22EFCFD4
:1037B00014F0100E145C3EE2060EDB50E76E020EB3
:1037C000E7CFDBFF010EDB6ADF50F36E010EDBCFCC
:1037D000F4FFF350F45C0DE2020EDB50EA6A660F70
:1037E000E96E0E0EEA22020EEFCFDBFF010EDB2A9E
:1037F000EBD7FE0EDB50F36E020EDB50F35C1AE1EA
:10380000060EDB50070B156E010E155204E0E8465C
:10381000FE0B1506FCE1146E060EDB50F80BE842B9
:10382000E842E842EA6A540FE96E0E0EEA22EF50CF
:1038300014144EE1060EDB2AABD7FE0EDB50E76E0A
:10384000020EE7CFDBFF010EDB6ADF50F36E010EE5
:10385000DBCFF4FFF350F45C0DE2020EDB50EA6ABA
:10386000660FE96E0E0EEA22020EEFCFDBFF010EAD
:10387000DB2AEBD7060EDB6A100EF36E060EDBCFEB
:10388000F4FFF350F45C29E2020EDB50070B176ED5
:10389000010E175204E0E846FE0B1706FCE1166E17
:1038A000060E156ADB34FE0B1536146E760E1426E2
:1038B0000E0E1522020EDB50F80BE842E842E842F9
:1038C0001424E96E000E1520EA6EEF50161402E083
:1038D000060EF9D0060EDB2ACFD7060EDB6A100ED5
:1038E000F36E060EDBCFF4FFF350F45C66E2060ED7
:1038F000DB50EA6A660FE96E0E0EEA22EFCF14F093
:10390000100E145C57E2060EDB50E76E020EE7CF96
:10391000DBFF010EDB6ADF50F36E010EDBCFF4FF3D
:10392000F350F45C0DE2020EDB50EA6A660FE96EBA
:103930000E0EEA22020EEFCFDBFF010EDB2AEBD7E1
:10394000FE0EDB50F36E020EDB50F35C33E1010E32
:10395000DB6A100EF36E010EDBCFF4FFF350F45C64
:1039600029E2060EDB50070B176E010E175204E01A
:10397000E846FE0B1706FCE1166E010E156ADB34F5
:10398000FE0B1536146E760E14260E0E1522060E3C
:10399000DB50F80BE842E842E8421424E96E000EDE
:1039A0001520EA6EEF50161402E0010E8CD0010EC5
:1039B000DB2ACFD7060EDB2A92D7DF2AA9D6050E3F
:1039C000DB50020838E1FE0EDB50DF6E040EDB6ACE
:1039D000DF50EA6A660FE96E0E0EEA22EF5001012F
:1039E000195D18E1DF50070B156E010E155204E04A
:1039F000E846FE0B1506FCE1146EDF50F80BE842BA
:103A0000E842E842EA6A540FE96E0E0EEA22EF50ED
:103A100014140FE0DF50EA6A660FE96E0E0EEA2218
:103A2000EFCFDFFF040EDBCFF3FFDB2AF3501008EC
:103A3000CFE2DF5049D001011951EA6A660FE96E01
:103A40000E0EEA22EFCFDFFF020EDFCFDBFF040E08
:103A5000DB6ADF50EA6A660FE96E0E0EEA22EFCFEC
:103A600014F0DF50145C2EE0FE0EDB50DF5C2AE029
:103A7000DF50070B156E010E155204E0E846FE0BF1
:103A80001506FCE1146EDF50F80BE842E842E8420C
:103A9000EA6A540FE96E0E0EEA22EF50141403E0A6
:103AA000020EDFCFDBFFDF50EA6A660FE96E0E0E13
:103AB000EA22EFCFDFFF040EDBCFF3FFDB2AF35068
:103AC0001008C7E2020EDB50146E070EE15C02E242
:103AD000E16AE552E16E1450E552E7CFD9FF1200DA
:103AE000D9CFE6FFE1CFD9FF030EE126FC0EDB5074
:103AF000E76E010EE7CFDBFFDB507F0801E2C0D1AC
:103B00000E0166510BE1010EDB50EA6A660FE96EA9
:103B10000E0EEA22EF50100801E2B2D1DF6A100E59
:103B2000DF5C3CE2DF50080DF3CFE9FFF4CFEAFFA2
:103B3000580EE926010EEA22030EE926000EEA22BB
:103B4000EF50000829E2DF50080DF3CFE9FFF4CF72
:103B5000EAFF580EE926010EEA22EECF14F0EFCF6D
:103B600015F0FB0EDB50141817E1FC0EDB50151896
:103B700013E1DF50080DF3CFE9FFF4CFEAFF580E51
:103B8000E926010EEA22020EE926000EEA22EF5093
:103B90000301915D01E126D1DF2AC1D7DF6A100E52
:103BA000DF5C63E2DF50080DF3CFE9FFF4CFEAFFFB
:103BB000580EE926010EEA22030EE926000EEA223B
:103BC000EF5051E1DF50080DF3CFE9FFF4CFEAFFEA
:103BD000580EE926010EEA22030EE926000EEA221B
:103BE000030EEF6EDF50080DF3CFE9FFF4CFEAFFCD
:103BF000580EE926010EEA22020EE926000EEA22FC
:103C000091C3EFFFDF50080DF3CFE9FFF4CFEAFFD8
:103C1000580EE926010EEA22FB0EDBCFEEFFFC0E6A
:103C2000DBCFEDFFDDEC68F004C014F005C015F04B
:103C300006C016F007C017F0DF50080DF3CFE9FFFC
:103C4000F4CFEAFF580EE926010EEA22040EE92617
:103C5000000EEA2204C0EEFF15C0EEFF16C0EEFF14
:103C600017C0EEFF02D0DF2A9AD7010EDB50010108
:103C7000195D3DE1FB0EDB50800801E201D14D6B87
:103C80004D8BFA0EDB504D97E8B04D87FB0EDBCF26
:103C900021F1FC0EDBCF22F12FEC25F0DF6EFF08C7
:103CA00001E1EED0DF500A0DF3CFE9FFF4CFEAFFD8
:103CB000600EE926000EEA22040EE926000EEA2232
:103CC000E9CF4EF1EACF4FF117C1E6FF870EE66E5E
:103CD000030EE66E4DC1E6FFE9CFE6FFEACFE6FF51
:103CE00059EC46F0146E060EE15E1450D4D0FC0E72
:103CF000DBCFE6FF16DCE552E76E010EE7CFDBFF18
:103D0000DB50FF0801E1BCD0010EDB50EA6A560F20
:103D1000E96E0E0EEA22EFCF14F0030E145C71E38D
:103D2000010EDB50EA6A560FE96E0E0EEA22EF6AC8
:103D3000010EDB50070B156E010E155204E0E8462C
:103D4000FE0B1506FCE1FF0A146E010EDB50F80BAA
:103D5000E842E842E842EA6A540FE96E0E0EEA22AF
:103D60001450EF16020EDB6AF36EDBCFF4FFE8505F
:103D7000F45C16E2010E156ADB34FE0B1536146E88
:103D8000760E14260E0E1522020EDB500F0114249F
:103D9000E96E000E1520EA6EEF6A020EDB2AE4D708
:103DA000020EE66EE66AA4CEE6FFA5CEE6FF540E4E
:103DB000E66E0E0EE66E7AEC64F0146E060EE15EB0
:103DC0001450200EE66EE66AA6CEE6FFA7CEE6FF0A
:103DD000760EE66E0E0EE66E7AEC64F0146E060E4B
:103DE000E15E145001012B892B9B2B9DDDEC68F0CB
:103DF00004C02CF105C02DF106C02EF107C02FF133
:103E00003FD001014D6B4D8BFA0EDB504D97E8B062
:103E10004D87216B010EDBCF22F12FEC25F0DF6EF9
:103E2000FF0826E0DF500A0DF3CFE9FFF4CFEAFFE9
:103E3000600EE926000EEA22040EE926000EEA22B0
:103E4000E9CF4EF1EACF4FF117C1E6FF870EE66EDC
:103E5000030EE66E4DC1E6FFE9CFE6FFEACFE6FFCF
:103E600059EC46F0146E060EE15E145000090AE1AA
:103E7000010EDB50EA6A560FE96E0E0EEA22EF2AB7
:103E8000000E09D0010EDB50EA6A560FE96E0E0EE5
:103E9000EA22EF6A010E146E030EE15C02E2E16AAF
:103EA000E552E16E1450E552E7CFD9FF1200D9CFA9
:103EB000E6FFE1CFD9FF01014D6BFC0EDB50030B98
:103EC000F36EFC0E4D15F3104D6FE150FD0FE96ED2
:103ED000FF0EDA20EA6EEE50ED1001E14D854D51F6
:103EE000040B02E0000E01D0010E4D9BE8B04D8B9B
:103EF0004D8FFD0EDBCF4EF1FE0EDBCF4FF117C124
:103F0000E6FF870EE66E030EE66E4DC1E6FF4EC17C
:103F1000E6FF4FC1E6FF59EC46F0146E060EE15E77
:103F20001450E552E7CFD9FF1200D9CFE6FFE1CF19
:103F3000D9FFE652DF6A100EDF5C15E2DF500A0D92
:103F4000F3CFE9FFF4CFEAFF600EE926000EEA2284
:103F5000080EE926000EEA22EF50800B02E1DF5046
:103F600003D0DF2AE8D7FF0EE552E552E7CFD9FFAD
:103F70001200D9CFE6FFE1CFD9FF020EE126FE0EF7
:103F8000DB50FF084CE1D90EE66EBC0EE66EDDECB0
:103F900066F0E552E552DF6A040EDF5C0FE2030EC5
:103FA000D880DF54EA6AF70FE96E030EEA22EF5079
:103FB000E66E0DEC67F0E552DF2AEED7CA0EE66E2C
:103FC000BC0EE66EDDEC66F0E552E55219C1E6FF87
:103FD0000DEC67F0E55218C1E6FF0DEC67F0E55215
:103FE000C00EE66EBC0EE66EDDEC66F0E552E55204
:103FF0001BC1E6FF0DEC67F0E5521AC1E6FF0DECC0
:1040000067F0E552B40EE66EBC0EE66EDDEC66F0CF
:10401000E552E552FBC3E6FF3EEC67F0E5526C0E5D
:10402000E66EBC0EE66EDDEC66F0E552E552FE0E85
:10403000DB50FF0801E0A9D1DF6A100EDF5C01E36D
:1040400052D3DF500A0DF3CFE9FFF4CFEAFF600E41
:10405000E926000EEA22080EE926000EEA22EF50B9
:10406000800B01E190D1DFCFE6FF0DEC67F0E55268
:10407000200EE66EFAEC66F0E552200EE66EFAECE3
:1040800066F0E552200EE66EFAEC66F0E552200E80
:10409000E66EFAEC66F0E552200EE66EFAEC66F09B
:1040A000E552DF500A0DF3CFE9FFF4CFEAFF600ECF
:1040B000E926000EEA22080EE926000EEA22EF5059
:1040C000010B02E0590E01D04E0EE66EFAEC66F0DE
:1040D000E552200EE66EFAEC66F0E552200EE66E32
:1040E000FAEC66F0E552DF500A0DF3CFE9FFF4CFAA
:1040F000EAFF600EE926000EEA22080EE926000E0D
:10410000EA22EF50020B02E0590E01D04E0EE66E8D
:10411000FAEC66F0E552200EE66EFAEC66F0E55237
:10412000200EE66EFAEC66F0E552DF500A0DF3CF92
:10413000E9FFF4CFEAFF600EE926000EEA22080E3E
:10414000E926000EEA22EF50080B56E0DF500A0D78
:10415000F3CFE9FFF4CFEAFF600EE926000EEA2272
:10416000010EE926000EEA22EF50E66E0DEC67F034
:10417000E552DF500A0DF3CFE9FFF4CFEAFF600EFE
:10418000E926000EEA22EF50E66E0DEC67F0E552EC
:10419000200EE66EFAEC66F0E552200EE66EFAECC2
:1041A00066F0E552DF500A0DF3CFE9FFF4CFEAFFE6
:1041B000600EE926000EEA22020EE926000EEA222F
:1041C000010EE926000EEA22EF50E66E0DEC67F0D4
:1041D000E552DF500A0DF3CFE9FFF4CFEAFF600E9E
:1041E000E926000EEA22020EE926000EEA22EF502E
:1041F000E66E0DEC67F031D03F0EE66EFAEC66F03D
:10420000E5523F0EE66EFAEC66F0E5523F0EE66EC2
:10421000FAEC66F0E5523F0EE66EFAEC66F0E55217
:10422000200EE66EFAEC66F0E552200EE66EFAEC31
:1042300066F0E5523F0EE66EFAEC66F0E5523F0E90
:10424000E66EFAEC66F0E5523F0EE66EFAEC66F0CA
:10425000E5523F0EE66EFAEC66F0E552200EE66E91
:10426000FAEC66F0E552DF500A0DF3CFE9FFF4CF28
:10427000EAFF600EE926000EEA22080EE926000E8B
:10428000EA22EF50040B31E0010EDB6A040EF36EFC
:10429000010EDBCFF4FFF350F45C27E2DF500A0D90
:1042A000F3CFE9FFF4CFEAFF600EE926000EEA2221
:1042B000040EE926000EEA22E9CF14F0EACF15F049
:1042C000010EDBCFE6FF030EE552D880E7540F0165
:1042D000E924E96E000EEA20EA6EEF50E66E0DEC7E
:1042E00067F0E552010EDB2AD1D7200EE66EFAEC1C
:1042F00066F0E552010EDB6A040EF36E010EDBCFB1
:10430000F4FFF350F45C0BE2690EE66EBC0EE66E51
:10431000DDEC66F0E552E552010EDB2AEDD7010E29
:10432000DB6AF36EDBCFF4FFE850F45C22E2DF508F
:104330000A0DF3CFE9FFF4CFEAFF600EE926000E85
:10434000EA22090EE926000EEA22E9CF14F0EACFAC
:1043500015F0010EDB500F01E924E96E000EEA2092
:10436000EA6EEF50E66E0DEC67F0E552010EDB2AC7
:10437000D8D70D0EE66EFAEC66F0E5520A0EE66E40
:10438000FAEC66F0E552DF2A58D6FE0EDB500A0D35
:10439000F3CFE9FFF4CFEAFF600EE926000EEA2230
:1043A000080EE926000EEA22EF50800B01E19BD1B6
:1043B000FE0EDBCFE6FF0DEC67F0E552200EE66E59
:1043C000FAEC66F0E552200EE66EFAEC66F0E55285
:1043D000200EE66EFAEC66F0E552200EE66EFAEC80
:1043E00066F0E552200EE66EFAEC66F0E552FE0E3F
:1043F000DB500A0DF3CFE9FFF4CFEAFF600EE926A8
:10440000000EEA22080EE926000EEA22EF50010B08
:1044100002E0590E01D04E0EE66EFAEC66F0E5525F
:10442000200EE66EFAEC66F0E552200EE66EFAEC2F
:1044300066F0E552FE0EDB500A0DF3CFE9FFF4CF34
:10444000EAFF600EE926000EEA22080EE926000EB9
:10445000EA22EF50020B02E0590E01D04E0EE66E3A
:10446000FAEC66F0E552200EE66EFAEC66F0E552E4
:10447000200EE66EFAEC66F0E552FE0EDB500A0DF9
:10448000F3CFE9FFF4CFEAFF600EE926000EEA223F
:10449000080EE926000EEA22EF50080B5AE0FE0E45
:1044A000DB500A0DF3CFE9FFF4CFEAFF600EE926F7
:1044B000000EEA22010EE926000EEA22EF50E66E17
:1044C0000DEC67F0E552FE0EDB500A0DF3CFE9FF6D
:1044D000F4CFEAFF600EE926000EEA22EF50E66E06
:1044E0000DEC67F0E552200EE66EFAEC66F0E55250
:1044F000200EE66EFAEC66F0E552FE0EDB500A0D79
:10450000F3CFE9FFF4CFEAFF600EE926000EEA22BE
:10451000020EE926000EEA22010EE926000EEA222A
:10452000EF50E66E0DEC67F0E552FE0EDB500A0D23
:10453000F3CFE9FFF4CFEAFF600EE926000EEA228E
:10454000020EE926000EEA22EF50E66E0DEC67F04F
:1045500031D03F0EE66EFAEC66F0E5523F0EE66EA5
:10456000FAEC66F0E5523F0EE66EFAEC66F0E552C4
:104570003F0EE66EFAEC66F0E552200EE66EFAECBF
:1045800066F0E552200EE66EFAEC66F0E5523F0E5C
:10459000E66EFAEC66F0E5523F0EE66EFAEC66F077
:1045A000E5523F0EE66EFAEC66F0E5523F0EE66E1F
:1045B000FAEC66F0E552200EE66EFAEC66F0E55293
:1045C000FE0EDB500A0DF3CFE9FFF4CFEAFF600ED9
:1045D000E926000EEA22080EE926000EEA22EF5034
:1045E000040B32E0010EDB6A040EF36E010EDBCF2A
:1045F000F4FFF350F45C28E2FE0EDB500A0DF3CF1B
:10460000E9FFF4CFEAFF600EE926000EEA22040E6D
:10461000E926000EEA22E9CF14F0EACF15F0010EE8
:10462000DBCFE6FF030EE552D880E7540F01E92403
:10463000E96E000EEA20EA6EEF50E66E0DEC67F0D0
:10464000E552010EDB2AD0D7200EE66EFAEC66F0BA
:10465000E552010EDB6A040EF36E010EDBCFF4FFB0
:10466000F350F45C0BE2690EE66EBC0EE66EDDEC18
:1046700066F0E552E552010EDB2AEDD7010EDB6A4A
:10468000F36EDBCFF4FFE850F45C23E2FE0EDB5068
:104690000A0DF3CFE9FFF4CFEAFF600EE926000E22
:1046A000EA22090EE926000EEA22E9CF14F0EACF49
:1046B00015F0010EDB500F01E924E96E000EEA202F
:1046C000EA6EEF50E66E0DEC67F0E552010EDB2A64
:1046D000D7D70D0EE66EFAEC66F0E5520A0EE66EDE
:1046E000FAEC66F0E552020EE15C02E2E16AE552A4
:1046F000E16EE552E7CFD9FF1200D9CFE6FFE1CF57
:10470000D9FFE65201013A91020E305D01E044D139
:104710003AB33FD0DDEC68F004C049F105C04AF17E
:1047200006C04BF107C04CF101013C6B3D6BDF6AE9
:10473000040EDF5C13E2DF50EA6AF70FE96E030E46
:10474000EA22EF50E66EDF50EA6A3E0FE96E010E94
:10475000EA22E552E750EF6EDF2AEAD701013A83F9
:104760003A91DF6A010EDF5C01E374D1DF50EA6A3F
:10477000060FE96E040EEA22EF50E66EDF50EA6A99
:10478000420FE96E010EEA22E552E750EF6EDF2A92
:10479000E9D73C513D1101E15DD118513C1902E1CD
:1047A00019513D1901E156D10B0E176FE850172B27
:1047B000EA6A870FE96E030EEA22EF6A1751172B98
:1047C000EA6A870FE96E030EEA22110EEF6EDF6AC6
:1047D000040EDF5C14E2DF50EA6AF70FE96E030EA5
:1047E000EA22EF50E66E1751172BEA6A870FE96E3F
:1047F000030EEA22E552E750EF6EDF2AE9D71751A0
:10480000172BEA6A870FE96E030EEA2218C1EFFF41
:104810001751172BEA6A870FE96E030EEA2219C1B6
:10482000EFFFDF6A010EDF5C14E2DF50EA6A060F79
:10483000E96E040EEA22EF50E66E1751172BEA6A72
:10484000870FE96E030EEA22E552E750EF6EDF2A8A
:10485000E9D7DF6A040EDF5C13E2DF50EA6A3E0F3D
:10486000E96E010EEA22EF50E66EDF50EA6A1D0F94
:10487000E96E010EEA22E552E750EF6EDF2AEAD731
:104880003CC121F13DC122F1EAD801013B6FFF0E8D
:104890003B5D11E03B510A0DF3CFE9FFF4CFEAFF96
:1048A000600EE926000EEA22080EE926000EEA2232
:1048B000EFCF29F104D08C0E296F21AF29811AC1C5
:1048C00023F11BC124F109DA01013B6FFF0E3B5DAF
:1048D0002BE2DF6A010EDF5C27E2DF50EA6A420F5B
:1048E000E96E010EEA22EF50E66E01013B510A0D1E
:1048F000F3CFE9FFF4CFEAFF600EE926000EEA22CB
:10490000090EE926000EEA22E9CF14F0EACF15F0ED
:10491000DF500F01E924E96E000EEA20EA6EE5524D
:10492000E750EF6EDF2AD6D7E66AE66A3C0EE66EFF
:10493000010EE66E2FEC2FF0E552E552E552E552FE
:1049400001013A933A81FF0E3B5D01E383D00A0EE9
:10495000E66EE66A3B510A0D0E019C51F324146E7B
:104960009D51F420156E14C0E6FFE66E01013B5127
:104970000A0DF3CF16F0F4CF17F0600E1626000ED6
:10498000172216C0E6FF17C0E6FF7AEC64F0186E37
:10499000060EE15E18505ED0DDEC68F004C049F10F
:1049A00005C04AF106C04BF107C04CF10101216B73
:1049B000226B0B0E176FE850172BEA6A870FE96E10
:1049C000030EEA22EF6A1751172BEA6A870FE96E86
:1049D000030EEA22100EEF6EDF6A040EDF5C14E2B3
:1049E000DF50EA6AF70FE96E030EEA22EF50E66E37
:1049F0001751172BEA6A870FE96E030EEA22E55278
:104A0000E750EF6EDF2AE9D7DF6A010EDF5C14E2C0
:104A1000DF50EA6A060FE96E040EEA22EF50E66EF6
:104A20001751172BEA6A870FE96E030EEA22E55247
:104A3000E750EF6EDF2AE9D7E66AE66A210EE66EF6
:104A4000010EE66E2FEC2FF0E552E552E552E552ED
:104A500001013A83E552E552E7CFD9FF1200D9CFE1
:104A6000E6FFE1CFD9FFE652DF6A100EDF5C3FE2DE
:104A7000DF500A0DF3CFE9FFF4CFEAFF600EE9261D
:104A8000000EEA22080EE926000EEA22EF50800B03
:104A90002CE0DF500A0DF3CFE9FFF4CFEAFF600E00
:104AA000E926000EEA22080EE926000EEA22EF505F
:104AB000080B1BE0DF500A0DF3CFE9FFF4CFEAFF4C
:104AC000600EE926000EEA22020EE926000EEA2216
:104AD000EECF14F0EFCF15F001012151141805E1CC
:104AE0002251151802E1DF5003D0DF2ABED7FF0E96
:104AF000E552E552E7CFD9FF1200D9CFE6FFE1CF6B
:104B0000D9FFE6520101176B1751172BEA6A870F7D
:104B1000E96E030EEA221AC1EFFF1751172BEA6A5A
:104B2000870FE96E030EEA221BC1EFFF1751172B07
:104B3000EA6A870FE96E030EEA2218C1EFFF1751E8
:104B4000172BEA6A870FE96E030EEA2219C1EFFFFD
:104B50001751172BEA6A870FE96E030EEA22EF68F6
:104B60001751172BEA6A870FE96E030EEA2200C17C
:104B7000EFFF1751172BEA6A870FE96E030EEA223F
:104B8000EF6A1751172BEA6A870FE96E030EEA22C4
:104B9000EF6A1751172BEA6A870FE96E030EEA22B4
:104BA0005D0EEF6E1751172BEA6A870FE96E030E41
:104BB000EA22410EEF6EDF6A010EDF5C14E2DF5085
:104BC000EA6A060FE96E040EEA22EF50E66E17510C
:104BD000172BEA6A870FE96E030EEA22E552E750C7
:104BE000EF6EDF2AE9D7030EE66E000EE66EE66A88
:104BF00057EC1FF0E552E552E552E552E552E7CF9A
:104C0000D9FF1200D9CFE6FFE1CFD9FF020EE1268E
:104C1000DF6A100EDF5C54E2DF500A0DF3CFE9FFCC
:104C2000F4CFEAFF600EE926000EEA22080EE9261C
:104C3000000EEA22EF50800B41E0DF500A0DF3CF67
:104C4000E9FFF4CFEAFF600EE926000EEA22080E23
:104C5000E926000EEA22EF50040B30E0010EDB6A79
:104C6000040EF36E010EDBCFF4FFF350F45C24E28C
:104C7000DF500A0DF3CFE9FFF4CFEAFF600EE9261B
:104C8000000EEA22040EE926000EEA22010EDB5095
:104C9000E924E96E000EEA20EA6EEFCF14F0010E6F
:104CA000DB50EA6A1D0FE96E010EEA22EF50145C38
:104CB00005E1010EDB2AD4D7DF5003D0DF2AA9D7C4
:104CC000FF0E146E020EE15C02E2E16AE552E16E53
:104CD0001450E552E7CFD9FF1200D9CFE6FFE1CF5C
:104CE000D9FF020EE126DF68010129A502D08ADF83
:104CF00003D029A702D0B3DEDF6EFF0EDF5C03E135
:104D000095EC1FF0DF6EFF0EDF5C65E0DF500A0DF3
:104D1000F3CFE9FFF4CFEAFF600EE926000EEA22A6
:104D2000080EE926000EEA2229C1EFFF010129A59C
:104D30002FD0010EDB6A040EF36E010EDBCFF4FF01
:104D4000F350F45C25E2010EDB50EA6A1D0FE96EB8
:104D5000010EEA22EF50E66EDF500A0DF3CFE9FFB5
:104D6000F4CFEAFF600EE926000EEA22040EE926DF
:104D7000000EEA22010EDB500F01E924E96E000E5D
:104D8000EA20EA6EE552E750EF6E010EDB2AD3D738
:104D9000010129A712D0DF500A0DF3CFE9FFF4CFAC
:104DA000EAFF600EE926000EEA22020EE926000E56
:104DB000EA2221C1EEFF22C1EDFFDF500A0DF3CF41
:104DC000E9FFF4CFEAFF600EE926000EEA2223C1D4
:104DD000EEFF24C1EDFFDF50146E020EE15C02E233
:104DE000E16AE552E16E1450E552E7CFD9FF1200B7
:104DF000D9CFE6FFE1CFD9FFE652DF6A040EDF5CD0
:104E000021E2DF50E76EFD0EDBCFE9FFFE0EDBCFC8
:104E1000EAFFE750E926000EEA22EFCF14F0DF5058
:104E2000E76EFB0EDBCFE9FFFC0EDBCFEAFFE750BE
:104E3000E926000EEA22EF50145C02E0000E03D0D7
:104E4000DF2ADCD7010EE552E552E7CFD9FF120089
:104E5000D9CFE6FFE1CFD9FF050EE12675EC66F06C
:104E6000B5EC64F00108010118691969340E1A6F74
:104E7000120E1B6F030EDB6A100EF36E030EDBCFF8
:104E8000F4FFF350F45C13E2030EDB500A0DF3CF92
:104E9000E9FFF4CFEAFF600EE926000EEA22080ED1
:104EA000E926000EEA22EF6A030EDB2AE5D7030E9D
:104EB000DB6A020EF36E030EDBCFF4FFF350F45CFB
:104EC0000BE2030EDB50EA6A540FE96E0E0EEA2283
:104ED000EF6A030EDB2AEDD7030EDB6A100EF36ECA
:104EE000030EDBCFF4FFF350F45C0BE2030EDB5058
:104EF000EA6A560FE96E0E0EEA22EF6A030EDB2A0B
:104F0000EDD70101306B2B6B286B2A6B3A6B006B72
:104F1000D3EC68F00101176BFE0EDB5001E119D1F3
:104F2000010EE66EE66A98CEE6FF99CEE6FFFB0E2E
:104F3000E66E030EE66E74EC64F0146E060EE15E2F
:104F40001450200E0301FB5D16E2020EE66EE66AC7
:104F5000A0CEE6FFA1CEE6FF180EE66E010EE66ECD
:104F600074EC64F0146E060EE15E14500101181D1D
:104F700004E1191D02E1000E13D2020EE66EE66A8C
:104F800096CEE6FF97CEE6FF1A0EE66E010EE66EAF
:104F900074EC64F0146E060EE15E1450010EE66EC1
:104FA000E66A9ACEE6FF9BCEE6FFFC0EE66E030EA7
:104FB000E66E74EC64F0146E060EE15E14500301AC
:104FC000FC510101030BF36EF346F346F346F3463F
:104FD000CF0E0015F310006FA00EE66EE66A9CCEB1
:104FE000E6FF9DCEE6FF600EE66E000EE66E74EC08
:104FF00064F0146E060EE15E1450020EE66EE66A70
:10500000A0CEE6FFA1CEE6FF180EE66E010EE66E1C
:1050100074EC64F0146E060EE15E1450010EE66E40
:10502000E66AA2CEE6FFA3CEE6FF1C0EE66E010EF8
:10503000E66E74EC64F0146E060EE15E1450020E1F
:10504000E66EE66AA4CEE6FFA5CEE6FF540EE66E57
:105050000E0EE66E74EC64F0146E060EE15E1450F3
:10506000200EE66EE66AA6CEE6FFA7CEE6FF760E37
:10507000E66E0E0EE66E74EC64F0146E060EE15EE3
:105080001450100EE66EE66AA8CEE6FFA9CEE6FF43
:10509000660EE66E0E0EE66E74EC64F0146E060E8E
:1050A000E15E1450010EE66EE66AAACEE6FFABCED4
:1050B000E6FF300EE66E010EE66E74EC64F0146EE0
:1050C000060EE15E1450600EE66EBC0EE66EDDEC80
:1050D00066F0E552E552FBC3E6FF3EEC67F0E552B1
:1050E000580EE66EBC0EE66EDDEC66F0E552E5525B
:1050F0001BC1E6FF0DEC67F0E5521AC1E6FF0DECAF
:1051000067F0E5524D0EE66EBC0EE66EDDEC66F025
:10511000E552E55219C1E6FF0DEC67F0E55218C102
:10512000E6FF0DEC67F0E552FBC3E6FF45D9E5521B
:105130001A0EE66E010EE66E180EE66E010EE66EB3
:105140002DEC45F0E552E552E552E5520101288388
:10515000C0D0480EE66EBC0EE66EDDEC66F0E552A1
:10516000E552020EE66EE66A96CEE6FF97CEE6FFC1
:105170001A0EE66E010EE66E7AEC64F0146E060E00
:10518000E15E1450010EE66EE66A98CEE6FF99CE17
:10519000E6FFFB0EE66E030EE66E7AEC64F0146E2C
:1051A000060EE15E1450010EE66EE66A9ACEE6FF48
:1051B0009BCEE6FFFC0EE66E030EE66E7AEC64F024
:1051C000146E060EE15E1450A00EE66EE66A9CCEEA
:1051D000E6FF9DCEE6FF600EE66E000EE66E7AEC10
:1051E00064F0146E060EE15E1450020EE66EE66A7E
:1051F000A0CEE6FFA1CEE6FF180EE66E010EE66E2B
:105200007AEC64F0146E060EE15E1450010EE66E48
:10521000E66AA2CEE6FFA3CEE6FF1C0EE66E010E06
:10522000E66E7AEC64F0146E060EE15E1450030E26
:10523000DB6A020EF36E030EDBCFF4FFF350F45C77
:105240000BE2030EDB50EA6A540FE96E0E0EEA22FF
:10525000EF6A030EDB2AEDD7030EDB6A100EF36E46
:10526000030EDBCFF4FFF350F45C2BE2040EDB6A99
:10527000020EF36E040EDBCFF4FFF350F45C16E283
:10528000030E156ADB34FE0B1536146E760E1426EB
:105290000E0E1522040EDB500F011424E96E000ED1
:1052A0001520EA6EEF6A040EDB2AE2D7030EDB500C
:1052B000EA6A660FE96E0E0EEA22EF68030EDB2A39
:1052C000CDD7450EE66EBC0EE66EDDEC66F0E5521F
:1052D000E552DF6ADF96DF98DF8ADF9CDF82FE0E11
:1052E000DB50146ED9CFE9FFDACFEAFFE850010BAB
:1052F000F36EF346F346FB0EEF14F310EF6ED95046
:10530000010FE96EDACFEAFFF70EEE6E030EED6ED7
:10531000DECFE6FFDECFE6FFDDCFE6FFDD52B4EC09
:1053200045F0E552E552E5521A0EE66E010EE66EC4
:10533000180EE66E010EE66E2DEC45F0E552E552D4
:10534000E552E552FBC3E6FF37D8E5520101008183
:105350000301FC510101030BF36EF346F346F346E0
:10536000F346CF0E0015F310006F008D3051030B84
:10537000F36EF346F90E0015F310006F2A6BDDECA7
:1053800068F004C02CF105C02DF106C02EF107C055
:105390002FF10101316BD6CF27F1F094F08A010E85
:1053A000146E050EE15C02E2E16AE552E16E145012
:1053B000E552E7CFD9FF1200D9CFE6FFE1CFD9FF01
:1053C000E66AFE0EDBCFE6FF34EC45F0E552E5522F
:1053D000000916E0FE0EDBCFFBF3010EE66EE66A77
:1053E00098CEE6FF99CEE6FFFB0EE66E030EE66E64
:1053F0007AEC64F0146E060EE15E1450010E01D0DA
:10540000000EE552E7CFD9FF1200D9CFE6FFE1CF7A
:10541000D9FFFE0EDB50030821E3FE0EDBCFFCF3C9
:105420000301FC510101030BF36EF346F346F3460F
:10543000F346CF0E0015F310006F010EE66EE66A1C
:105440009ACEE6FF9BCEE6FFFC0EE66E030EE66EFE
:105450007AEC64F0146E060EE15E1450E552E7CF6C
:10546000D9FF1200D9CFE6FFE1CFD9FF0E0EE1261A
:10547000010EF36EDB6E020EDB6A030EDB6A040EB6
:10548000DB6A050EFBC3DBFFDF6A010EDF5C0DE2AA
:10549000DF500B0DF3CFE9FFF4CFEAFF0C0EE92646
:1054A000010EEA22EF68DF2AF0D701010B6B288199
:1054B000DF6A200EDF5C01E3B0D0010EDBCF14F019
:1054C000020EDBCF15F0030EDBCF16F0040EDBCFA0
:1054D00017F0DF501F0B07E0D8901436153616363C
:1054E0001736E806F9E1D950FA0FE96EFF0EDA2017
:1054F000EA6EEE501416EE501516EE501616EE50DB
:105500001716145015101610171001E184D0350E1F
:10551000E66EBC0EE66EDDEC66F0E552E552DFCFDE
:10552000E6FF3EEC67F0E552DFCFE6FF45DFE552F0
:105530000101176B1751172BEA6A870FE96E030EEB
:10554000EA22070EEF6E1751172BEA6A870FE96EF2
:10555000030EEA22FBC3EFFF010EE66E000EE66EBD
:10556000E66A57EC1FF0E552E552E552DDEC68F0D3
:10557000060E04C0DBFF070E05C0DBFF080E06C0E9
:10558000DBFF090E07C0DBFFCBDA000901E0D0DA50
:10559000DDEC68F00A0E04C0DBFF0B0E05C0DBFF7C
:1055A0000C0E06C0DBFF0D0E07C0DBFF0A0EDBCFC3
:1055B00018F00B0EDBCF19F00C0EDBCF1AF00D0E2E
:1055C000DBCF1BF0D950060FE96EDACFEAFFEE50C1
:1055D000185C146EEE501958156EEE501A58166E6F
:1055E000EE501B58176EFE0EDB50040DF3CFF6FF86
:1055F000F4CFF7FF4E0EF626D80EF722145009000E
:10560000F55C15500900F55816500900F55817506B
:105610000900F558B9E2DF2A4CD7050EDBCFE6FFCB
:10562000CBDEE552010128910B51146E0E0EE15CA8
:1056300002E2E16AE552E16E1450E552E7CFD9FF8C
:105640001200D9CFE6FFE1CFD9FF0A0EE126030E03
:10565000DF6EFD0EDB040EE17DEC23F001013AA3C9
:1056600005D05EDA0009FAE063DAF8D73AA147D24A
:105670003B514AD2FD0EDB5001E045D2FE0EDB501D
:10568000FF0826E1010E146E156A166A176A0301F7
:10569000FB511F0B07E0D890143615361636173617
:1056A000E806F9E114C0E6FF15C0E6FF16C0E6FF04
:1056B00017C0E6FF0A0EE66ED5DE186E050EE15E37
:1056C0001850000903E1DF06DDE119D2FE0EDB6AA6
:1056D000FE0EDB500B0DF3CFE9FFF4CFEAFF0C0E0B
:1056E000E926010EEA22050EE926000EEA22EECF97
:1056F00023F1EDCF24F1010EDB6A040EF36E010EEF
:10570000DBCFF4FFF350F45C27E2FE0EDB500B0D11
:10571000F3CFE9FFF4CFEAFF0C0EE926010EEA22EF
:10572000EE52E9CF14F0EACF15F0010EDB500F0175
:10573000E924E96E000EEA20EA6EEF50E66E010EF3
:10574000DB50EA6A1D0FE96E010EEA22E552E750CE
:10575000EF6E010EDB2AD1D702EC26F001011C6F9F
:10576000FF0E1C5D07E195EC1FF001011C6FFF08A7
:1057700001E1C5D11C510A0DF3CFE9FFF4CFEAFFD7
:10578000600EE926000EEA22080EE926000EEA2243
:10579000EF6AFE0EDB500B0DF3CFE9FFF4CFEAFF0B
:1057A0000C0EE926010EEA22050EE926000EEA2279
:1057B000EECF14F0EFCF15F01C510A0DF3CFE9FF37
:1057C000F4CFEAFF600EE926000EEA2214C0EEFFD5
:1057D00015C0EDFF010EDB6A040EF36E010EDBCF88
:1057E000F4FFF350F45C38E2FE0EDB500B0DF3CF08
:1057F000E9FFF4CFEAFF0C0EE926010EEA22EE5291
:10580000E9CF16F0EACF17F0010EDB50E924E96E7C
:10581000000EEA20EA6EEF50E66E1C510A0DF3CF3F
:10582000E9FFF4CFEAFF600EE926000EEA22040E3B
:10583000E926000EEA22E9CF14F0EACF15F0010EB6
:10584000DB50E924E96E000EEA20EA6EE552E750EB
:10585000EF6E010EDB2AC0D71C510A0DF3CFE9FF12
:10586000F4CFEAFF600EE926000EEA22080EE926D0
:10587000000EEA22EF84010EDB6ADBCFF4FFE85072
:10588000F45C3BE2FE0EDB500B0DF3CFE9FFF4CFEF
:10589000EAFF0C0EE926010EEA220A0EE926000EA6
:1058A000EA22E9CF16F0EACF17F0010EDB50E92427
:1058B000E96E000EEA20EA6EEF50E66E1C510A0D0A
:1058C000F3CFE9FFF4CFEAFF600EE926000EEA22EB
:1058D000090EE926000EEA22E9CF14F0EACF15F00E
:1058E000010EDB50E924E96E000EEA20EA6EE55273
:1058F000E750EF6E010EDB2AC0D71C510A0DF3CF23
:10590000E9FFF4CFEAFF600EE926000EEA22080E56
:10591000E926000EEA22EF821C510A0DF3CFE9FFBF
:10592000F4CFEAFF600EE926000EEA22080EE9260F
:10593000000EEA22EF8A1C510A0DF3CFE9FFF4CFE3
:10594000EAFF600EE926000EEA22080EE926000EA4
:10595000EA22EF80FE0EDB500B0DF3CFE9FFF4CF10
:10596000EAFF0C0EE926010EEA22EF50E66E24DD76
:10597000E55201011C510A0DF3CFE9FFF4CFEAFF14
:10598000600EE926000EEA22EECF1AF1EDCF1BF1F0
:10599000216922691A0EE66E010EE66E210EE66E90
:1059A000010EE66E2DEC45F0E552E552E552E5526A
:1059B0000101176B1751172BEA6A870FE96E030E67
:1059C000EA22010EEF6E1751172BEA6A870FE96E74
:1059D000030EEA2200C1EFFF010EDB6ADBCFF4FF0A
:1059E000E850F45C16E2010EDB50EA6A060FE96E3D
:1059F000040EEA22EF50E66E1751172BEA6A870F62
:105A0000E96E030EEA22E552E750EF6E010EDB2A43
:105A1000E5D7010EE66E1C510A0DF3CFE9FFF4CF76
:105A2000EAFF600EE926000EEA22040EE926000EC7
:105A3000EA22E9CF14F0EACF15F0E9CFE6FFEACF8A
:105A4000E6FF57EC1FF0E552E552E552DDEC68F059
:105A5000020E04C0DBFF030E05C0DBFF040E06C010
:105A6000DBFF050E07C0DBFF01011C510A0DF3CF60
:105A7000E9FFF4CFEAFF600EE926000EEA22080EE5
:105A8000E926000EEA22EF50100B3BE149D800094D
:105A900001E04ED8DDEC68F0060E04C0DBFF070E17
:105AA00005C0DBFF080E06C0DBFF090E07C0DBFFE9
:105AB000060EDBCF18F0070EDBCF19F0080EDBCF98
