:020000040000FA
:0600000001EF50F01200B8
:020006001200E6
:0600080035EF3FF012008D
:02000E000000F0
:060010001010400040004A
:020016000000E8
:0600180035EF3FF012007D
:02001E000600DA
:1000200016000000AE0E000002000000E0A000007C
:100030001C04000009000000CAA00000E502000046
:1000400016000000ACA00000DC0100001E00000053
:100050009AA0000000040000120000004AA0000066
:080060009502000050000000B1
:0800680000001200D9CFE6FFF1
:10007000E1CFD9FF090EE126D6CF07F0FE0EDBCF88
:100080000CF00FEC50F00350DF6EDF50000845E23B
:10009000DF0690EC4DF0010E04C0DBFF020E05C040
:1000A000DBFF030E06C0DBFF040E07C0DBFF90EC96
:1000B0004DF0050E04C0DBFF060E05C0DBFF070E8A
:1000C00006C0DBFF080E07C0DBFF050EDBCF14F018
:1000D000060EDBCF15F0070EDBCF16F0080EDBCFD8
:1000E00017F0D950010FE96EDACFEAFFEE50145C39
:1000F000106EEE501558116EEE501658126EEE50EE
:100100001758136ED8803E0E1054000E1154000E76
:100110001254000E1354CBE2B8D7090EE15C02E290
:10012000E16AE552E16EE552E7CFD9FF1200D9CF7F
:10013000E6FFE1CFD9FF2D0EE1266DEC3DF0000981
:1001400002E17AEF16F0010128B52EEF1AF0016BEB
:100150005051040B01E0010E030BF36EFC0E011570
:10016000F310016F50510197080B01E001875051C6
:10017000030B010802E1010E01D0000E019BE8B063
:10018000018B5051019D800B01E0018D50AF05D0D6
:10019000018F51C104F152C105F157C10AF156C195
:1001A00009F128955051030B010A02E109EF0FF004
:1001B000020A02E1A6EF0DF0030A02E075EF16F065
:1001C0000A0E555D02E275EF16F0020EEA6A53253B
:1001D000E96E5451EA22090EEFCFDBFF030EEA6A03
:1001E0005325E96E5451EA220A0EEFCFDBFF040ECD
:1001F000EA6A5325E96E5451EA220F0EEFCFDBFF76
:10020000050EEA6A5325E96E5451EA22100EEFCF2B
:10021000DBFF060EEA6A5325E96E5451EA220B0E03
:10022000EFCFDBFF070EEA6A5325E96E5451EA224D
:100230000C0EEFCFDBFF080EEA6A5325E96E54512E
:10024000EA220D0EEFCFDBFF090EEA6A5325E96EB5
:100250005451EA220E0EEFCFDBFF50510197080BED
:1002600001E001870151030B00090CE1D9500F0F88
:10027000E96EDACFEAFFFC0ED880EE54FF0EED54A3
:1002800001E357D10D0EDBCF10F00E0EDBCF11F0D6
:100290001851101811E1195111180EE10B0EDBCF96
:1002A00012F00C0EDBCF13F01A51121805E11B519E
:1002B000131802E175EF16F0DF6A100EDF5C42E200
:1002C000DF50080DF3CFE9FFF4CFEAFF580EE9261F
:1002D000010EEA22030EE926000EEA22EF5030E07A
:1002E000DF50080DF3CFE9FFF4CFEAFF580EE926FF
:1002F000010EEA22EECF10F0EFCF11F00D0EDB5021
:1003000010181EE10E0EDB5011181AE1DF50080D17
:10031000F3CFE9FFF4CFEAFF580EE926010EEA22F7
:10032000020EE926000EEA22EFCF12F00A0E0101BA
:10033000EA6A5325E96E5451EA22EF50125C02E05A
:10034000DF2ABBD7100EDF5C02E275EF16F0DF6A22
:10035000100EDF5C12E2DF50080DF3CFE9FFF4CF9F
:10036000EAFF580EE926010EEA22030EE926000EE6
:10037000EA22EF5002E0DF2AEBD7100EDF5C5AE2F0
:10038000DF50080DF3CFE9FFF4CFEAFF580EE9265E
:10039000010EEA220D0EDBCFEEFF0E0EDBCFEDFFDE
:1003A0000A0E0101EA6A5325E96E5451EA22EF5020
:1003B000E66EDF50080DF3CFE9FFF4CFEAFF580EE9
:1003C000E926010EEA22020EE926000EEA22E55293
:1003D000E750EF6EDF50080DF3CFE9FFF4CFEAFFEF
:1003E000580EE926010EEA22030EE926000EEA2243
:1003F000030EEF6E90EC4DF004C010F005C011F04C
:1004000006C012F007C013F0DF50080DF3CFE9FF6C
:10041000F4CFEAFF580EE926010EEA22040EE9267F
:10042000000EEA2204C0EEFF11C0EEFF12C0EEFF84
:1004300013C0EEFFD9500F0FE96EDACFEAFFFF0EBF
:10044000EE1807E1FF0EED1804E1010101810193AF
:100450001CD0D9500F0FE96EDACFEAFFFE0EEE186E
:1004600006E1FF0EED1803E1010101810DD0D95025
:100470000F0FE96EDACFEAFFFD0EEE1806E1FF0E70
:10048000ED1803E101010191018353C1E9FF54C15A
:10049000EAFFEF50010801E3EED053C1E9FF54C178
:1004A000EAFFEF0601012BA112D008CEE6FF090EEC
:1004B000E66E0E0EE66E04CEE6FF05CEE6FF06CE35
:1004C000E6FF90EC3CF0106E060EE15E10500E015F
:1004D000086BDF6A01015551DF5C15E2DF50EA6A03
:1004E0005325E96E5451EA22EF50E66E0E01085191
:1004F000082BEA6A090FE96E0E0EEA22E552E75070
:10050000EF6EDF2AE7D750C104FE90EC4DF004C037
:1005100000FE05C001FE06C002FE07C003FE320E4B
:10052000106E0C6ED6CF07F00FEC50F003C007FE34
:10053000A2D0090EDBCF10F00A0EDBCF11F01A515A
:10054000101802E02BEF0DF01B51111802E02BEFF9
:100550000DF00F0EDBCF12F0100EDBCF13F01851A1
:10056000121802E02BEF0DF01951131802E02BEFD7
:100570000DF0010EEA6A5325E96E5451EA22EF505C
:10058000040B01E178D024C4A9F30301020EAA6F81
:100590000B0EDBCFABF30C0EDBCFACF30D0EDBCFD2
:1005A000ADF30E0EDBCFAEF31AC1AFF31BC1B0F348
:1005B00018C1B1F319C1B2F30A0E0101EA6A532559
:1005C000E96E5451EA22EFCFB3F30301B46B300E5E
:1005D000B56F01010D0E176F0E0EDB50195D12E0A5
:1005E000E66A0D0EDBCFE6FF0E0EDBCFE6FF0B0E4D
:1005F000DBCFE6FF0C0EDBCFE6FF60EC1DF0106EEC
:10060000050E35D04D6B4D8B0D0EDBCF21F10E0E4F
:10061000DBCF22F10B0EDBCF23F10C0EDBCF24F16D
:100620001FEC25F0DF6EFF0812E0DF500A0DF3CF5C
:10063000E9FFF4CFEAFF600EE926000EEA22040E7D
:10064000E926000EEA22E9CF4EF1EACF4FF117C1B9
:10065000E6FFA90EE66E030EE66E4DC1E6FF4EC143
:10066000E6FF4FC1E6FF90EC3CF0106E060EE15E37
:100670001050010101850B0E0101EA6A5325E96E54
:100680005451EA22EF5002E0F3EF0CF00C0EEA6A4C
:100690005325E96E5451EA22EF50300802E1D6EFBB
:1006A0000CF00C0EEA6A5325E96E5451EA22EF5021
:1006B000420A02E1D3EF0CF0020A02E1A9EF0CF0CA
:1006C000010A02E142EF0CF0F20A02E12EEF0CF017
:1006D000010A02E1F4EF0BF0030A02E1C6EF0BF0AE
:1006E000010A02E191EF0BF0A10A02E1C9EF0AF061
:1006F000B50A02E159EF09F0070A02E133EF09F008
:10070000010A02E1FFEF08F0030A02E11DEF08F021
:10071000010A01E1DED1B00A02E075EF16F03AB34A
:1007200062D090EC4DF004C049F105C04AF106C01A
:100730004BF107C04CF1080E0101EA6A5325E96E3E
:100740005451EA22EFCF3CF1090EEA6A5325E96ED3
:100750005451EA22EFCF3DF1110EDB6A040EF36E25
:10076000110EDBCFF4FFF350F45C18E2110EDB50F6
:10077000020F0B0FEA6A5325E96E5451EA22EF503B
:10078000E66E110EDB50EA6A3E0FE96E010EEA22B8
:10079000E552E750EF6E110EDB2AE0D73A833A912B
:1007A000110EDB6A010EF36E110EDBCFF4FFF35076
:1007B000F45C02E375EF16F0110EDB50110FEA6ADC
:1007C0005325E96E5451EA22EF50E66E110EDB50CC
:1007D000EA6A420FE96E010EEA22E552E750EF6E37
:1007E000110EDB2ADFD7080EEA6A5325E96E545151
:1007F000EA22EF503C5D0BE1090EEA6A5325E96EEF
:100800005451EA22EF503D5D02E175EF16F03C5184
:100810003D1101E0BBD0110EDB6A040EF36E110E28
:10082000DBCFF4FFF350F45C2AE2110EDB500D0F26
:10083000EA6A5325E96E5451EA22EF50E66E110E32
:10084000DB50EA6A450FE96E010EEA22E552E750F5
:10085000EF6E110EDB50EA6A450FE96E010EEA22D7
:10086000EF50E66E110EDB50EA6A1D0FE96E010EC5
:10087000EA22E552E750EF6E110EDB2ACED7080EC2
:10088000EA6A5325E96E5451EA22EFCF43F1090E8B
:10089000EA6A5325E96E5451EA22EFCF44F143C18D
:1008A00021F144C122F11AC123F11BC124F11FEC33
:1008B00025F001013B6FFF0E3B5D01E005D18D0E80
:1008C000296F21BF29915DEC26F001013B6FFF0EDE
:1008D0003B5D01E3F9D0110EDB6A010EF36E110EE0
:1008E000DBCFF4FFF350F45C2BE2110EDB50110F61
:1008F0000101EA6A5325E96E5451EA22EF50E66E8F
:100900003B510A0DF3CFE9FFF4CFEAFF600EE92671
:10091000000EEA22090EE926000EEA22E9CF10F0C5
:10092000EACF11F0110EDB500F01E924E96E000E41
:10093000EA20EA6EE552E750EF6E110EDB2ACDD7C2
:100940000A0EE66EE66A01013B510A0D0E019C514A
:10095000F324106E9D51F420116E10C0E6FFE66E78
:1009600001013B510A0DF3CF12F0F4CF13F0600EEA
:100970001226000E132212C0E6FF13C0E6FF31EC70
:100980004AF0146E060EE15E14509ED03F0EE66EE5
:10099000940EE66E07EC4BF0E552E55201010B0EAA
:1009A000176FE850172BEA6AA90FE96E030EEA22C7
:1009B000EF6A1751172BEA6AA90FE96E030EEA22B4
:1009C000110EEF6EDB6A040EF36E110EDBCFF4FF37
:1009D000F350F45C2AE2110EDB500D0FEA6A532546
:1009E000E96E5451EA22EF50E66E110EDB50EA6ACE
:1009F000450FE96E010EEA22E552E750EF6E110E47
:100A0000DB50EA6A450FE96E010EEA22EF50E66E0E
:100A10001751172BEA6AA90FE96E030EEA22E55275
:100A2000E750EF6E110EDB2ACED7080EEA6A532587
:100A3000E96E5451EA22EFCF43F1090EEA6A5325D9
:100A4000E96E5451EA22EFCF44F11751172BEA6AAD
:100A5000A90FE96E030EEA2243C1EFFF1751172BCE
:100A6000EA6AA90FE96E030EEA2244C1EFFF110EF4
:100A7000DB6A010EF36E110EDBCFF4FFF350F45C72
:100A800017E2110EDB50110FEA6A5325E96E54513B
:100A9000EA22EF50E66E1751172BEA6AA90FE96EAA
:100AA000030EEA22E552E750EF6E110EDB2AE1D782
:100AB000E66AE66A3C0EE66E010EE66E1FEC2FF06B
:100AC000E552E552E552E55201013A833A8175EF6C
:100AD00016F0020E305D02E075EF16F00D0EEA6AB8
:100AE0005325E96E5451EA22EF5001E0ADD10B0ECF
:100AF000176FE850172BEA6AA90FE96E030EEA2276
:100B0000EF6A1751172BEA6AA90FE96E030EEA2262
:100B1000A10EEF6EDF6A040EDF5C27E20E0EDF240B
:100B2000EA6A5325E96E5451EA22EF50E66EDF502F
:100B3000EA6A1D0FE96E010EEA22E552E750EF6EF8
:100B40000E0EDF24EA6A5325E96E5451EA22EF5073
:100B5000E66E1751172BEA6AA90FE96E030EEA2217
:100B6000E552E750EF6EDF2AD6D7F2EC25F0E76EBC
:100B7000120EE7CFDBFFDB50FF0801E0ACD0010134
:100B8000216B010EDF6E100EDF5C0DE2DFCF22F174
:100B90001FEC25F0E76E120EE7CFDBFFDB50FF08FE
:100BA00002E0DF2AF0D7100EDF5C01E38AD0DF50CD
:100BB000EA6A660FE96E0E0EEA220E0EDBCFEFFF39
:100BC00001011751172BEA6AA90FE96E030EEA22F9
:100BD000DFCFEFFF9D0E296F1AC123F11BC124F156
:100BE0005DEC26F0E76E120EE7CFDBFF100EF36E22
:100BF000120EDBCFF4FFF350F45C5CE2DF6A010E0F
:100C0000DF5C29E2120EDF240101EA6A5325E96E56
:100C10005451EA22EF50E66E120EDB500A0DF3CF6C
:100C2000E9FFF4CFEAFF600EE926000EEA22090E82
:100C3000E926000EEA22E9CF10F0EACF11F0DF50EA
:100C40000F01E924E96E000EEA20EA6EE552E75052
:100C5000EF6EDF2AD4D7100EF36E120EDBCFF4FF47
:100C6000F350F45C01E3CBD00A0EE66EE66A120E96
:100C7000DB500A0D0E019C51F324106E9D51F4209F
:100C8000116E10C0E6FFE66E120EDB500A0DF3CFB8
:100C900012F0F4CF13F0600E1226000E132212C0D1
:100CA000E6FF13C0E6FF31EC4AF0146E060EE15E7B
:100CB0001450A5D0DF50EA6A660FE96E0E0EEA22E4
:100CC000EF6801011751172BEA6AA90FE96E030EAD
:100CD000EA22EF6894D0120EDB500A0DF3CFE9FF41
:100CE000F4CFEAFF600EE926000EEA22020EE926A2
:100CF000000EEA22EF5072E10E0EDB50E76E130E8B
:100D0000E7CFDBFFDB502AE0130EDB50EA6A660F09
:100D1000E96E0E0EEA22EFCF10F0120EDB500A0D34
:100D2000F3CFE9FFF4CFEAFF600EE926000EEA22D6
:100D3000020EE926000EEA22010EE926000EEA2242
:100D4000EF50105C0BE0130EDB50EA6A660FE96EA1
:100D50000E0EEA22130EEFCFDBFFD4D7130EDB50BB
:100D60001CE1120EDB500A0DF3CFE9FFF4CFEAFFCE
:100D7000600EE926000EEA22020EE926000EEA22A3
:100D8000010EE926000EEA22EF50EA6A660FE96ECC
:100D90000E0EEA220E0EDBCFEFFF120EDB500A0D15
:100DA000F3CFE9FFF4CFEAFF600EE926000EEA2256
:100DB000020EE926000EEA22010EE926000EEA22C2
:100DC000EF50E66E01011751172BEA6AA90FE96E81
:100DD000030EEA22E552E750EF6E11D0120EDB50FF
:100DE0000A0DF3CFE9FFF4CFEAFF600EE926000E0B
:100DF000EA22080EE926000EEA22EF6AC0D6E66A69
:100E0000E66AD9500D0FE66E000EDA20E66E1FEC92
:100E10002FF0E552E552E552E55201012B832B9567
:100E20002B9790EC4DF004C02CF105C02DF106C0BD
:100E30002EF107C02FF1120E01012C5F7A0E2D5BEF
:100E4000000E2E5B2F5B32D2DF6A040EDF5C14E2F1
:100E50000E0EDF24EA6A5325E96E5451EA22EF5060
:100E6000E66EDF50EA6A1D0FE96E010EEA22E552D6
:100E7000E750EF6EDF2AE9D7F2EC25F0E76E120EAD
:100E8000E7CFDBFFDB50FF0802E175EF16F00F0E36
:100E9000DF6EDF5000086AE2140EDFCFDBFF150EB5
:100EA000DB6A140EDB5000085FE2140EDB50EA6AC6
:100EB000660FE96E0E0EEA22EF50FF0855E0140EA1
:100EC000DB50EA6A660FE96E0E0EEA22EFCF10F0F1
:100ED000120EDB500A0DF3CFE9FFF4CFEAFF600EEC
:100EE000E926000EEA22020EE926000EEA22010E91
:100EF000E926000EEA22EF50105C25E1DF50EA6A95
:100F0000660FE96E0E0EEA22EF680101216BDFCF5A
:100F100022F11FEC25F0E76E160EE7CFDBFFDB506A
:100F2000FF0822E0160EDB500A0DF3CFE9FFF4CFE5
:100F3000EAFF600EE926000EEA22080EE926000EFE
:100F4000EA22EF6A11D0140EDB50EA6A660FE96EEE
:100F50000E0EEA22140EEFCFDBFF150EDBCFF3FFF0
:100F6000DB2AF35010089DE2DF0693D7120EDB5008
:100F70000A0DF3CFE9FFF4CFEAFF600EE926000E79
:100F8000EA22020EE926000EEA22010EE926000EF0
:100F9000EA22EF50EA6A660FE96E0E0EEA22EF6867
:100FA000120EDB500A0DF3CFE9FFF4CFEAFF600E1B
:100FB000E926000EEA22080EE926000EEA22EF6A70
:100FC0000A0EE66EE66A120EDB500A0D0E019C5107
:100FD000F324106E9D51F420116E10C0E6FFE66EF2
:100FE000120EDB500A0DF3CF12F0F4CF13F0600EA7
:100FF0001226000E132212C0E6FF13C0E6FF31ECEA
:101000004AF0146E060EE15E145001012B832B95FD
:101010002B9790EC4DF004C02CF105C02DF106C0CB
:101020002EF107C02FF1120E01012C5F7A0E2D5BFD
:10103000000E2E5B2F5B75EF16F0190EDB6ADF6A70
:10104000040EDF5C14E20D0EDF24EA6A5325E96E1C
:101050005451EA22EF50E66EDF50EA6A1D0FE96E46
:10106000010EEA22E552E750EF6EDF2AE9D7BF0E04
:10107000296F110EEA6A5325E96E5451EA22EF50A6
:10108000FF0848E1F2EC25F0E76E170EE7CFDBFF33
:10109000100EF36E170EDBCFF4FFF350F45C02E397
:1010A00075EF16F019C122F1010EF36E180EF3CF91
:1010B000DBFFDF6A100EDF5C14E2180EDBCF21F1DC
:1010C0001FEC25F0FF0809E1180EDB50800F01012D
:1010D000216F1FEC25F0FF0804E0180EDB2ADF2A41
:1010E000E9D7100EDF5C1FE2180EDB50106E116A9C
:1010F000D890115004E6800E105C000E115804E2E6
:10110000180EDBCF21F10FD0010EF36E190EF3CFC5
:10111000DBFF09D0216B110EEA6A5325E96E5451A9
:10112000EA22EFCF22F11AC123F11BC124F15DECB9
:1011300026F0E76E170EE7CFDBFF0301020EA96F63
:1011400021C1AAF322C1ABF3190EDBCFACF3DF6AE6
:10115000010EDF5C14E2DF50EA6AF70FE96E020E5F
:10116000EA22EF50E66E040EDF24EA6AA90FE96E68
:10117000030EEA22E552E750EF6EDF2AE9D719C1E4
:10118000AEF30101060E176F010EE66E170EDB506F
:101190000A0DF3CFE9FFF4CFEAFF600EE926000E57
:1011A000EA22040EE926000EEA22E9CF10F0EACF87
:1011B00011F0E9CFE6FFEACFE6FF47EC1FF0E5527A
:1011C000E552E552100EF36E170EDBCFF4FFF3502D
:1011D000F45C02E375EF16F00A0EE66EE66A170E8F
:1011E000DB500A0D0E019C51F324106E9D51F4202A
:1011F000116E10C0E6FFE66E170EB1EF14F00B0E85
:10120000176FE850172BEA6AA90FE96E030EEA225E
:10121000EF6A1751172BEA6AA90FE96E030EEA224B
:10122000A30EEF6EDF6A100EDF5C14E2DF50EA6A95
:10123000660FE96E0E0EEA22EF50E66E1751172B7D
:10124000EA6AA90FE96E030EEA22E552E750EF6E53
:10125000DF2AE9D7E66AE66AD9500D0FE66E000E7E
:10126000DA205DEF10F0DF6A100EDF5C14E20D0E85
:10127000DF24EA6A5325E96E5451EA22EF50E66E04
:10128000DF50EA6A660FE96E0E0EEA22E552E75079
:10129000EF6EDF2AE9D790EC4DF004C02CF105C0C9
:1012A0002DF106C02EF107C02FF101012A8175EF43
:1012B00016F05651010802E375EF16F00E0EF36EAC
:1012C0001A0EF3CFDBFFDB50EA6A5325E96E545167
:1012D000EA221B0EEFCFDBFFDF6A020EDF5C21E2AA
:1012E0001A0EDB28DF240101EA6A5325E96E545106
:1012F000EA22EF50E66E0E0E116ADB34FE0B113659
:10130000106E760E10260E0E1122DF500F011024E3
:10131000E96E000E1120EA6EE552E750EF6EDF2A0B
:10132000DCD71A0EDB040101EA6A5325E96E545139
:10133000EA22EF50070B116E010E115204E0E8464D
:10134000FE0B1106FCE1106E0E0EDB50F80BE842AE
:10135000E842E842EA6A540FE96E0E0EEA221050A3
:10136000EF12DF6A040EDF5C14E2DF500101EA6A6B
:101370005125E96E5251EA22EF50E66EDF50EA6ADB
:101380001D0FE96E010EEA22E552E750EF6EDF2AEB
:10139000E9D70101216B1A0EDB04EA6A5325E96ED5
:1013A0005451EA22EFCF22F18F0E296F1AC123F197
:1013B0001BC124F1F2EC25F0DF6E100EDF5C4FE272
:1013C000DF500A0DF3CFE9FFF4CFEAFF600EE92604
:1013D000000EEA22020EE926000EEA22EECF10F0FD
:1013E000EFCF11F0010121510001101804E10101BA
:1013F00022510001111823E0DF500A0DF3CFE9FF5D
:10140000F4CFEAFF600EE926000EEA22020EE9267A
:10141000000EEA2221C1EEFF22C1EDFFDF500A0DCE
:10142000F3CFE9FFF4CFEAFF600EE926000EEA22CF
:10143000080EE926000EEA22EF8601012A87DF5016
:101440000A0DF3CFE9FFF4CFEAFF600EE926000EA4
:10145000EA22080EE926000EEA22EF8208D05DECAF
:1014600026F0106E100E105C02E201012A871A0E9F
:10147000DB040101EA6A5325E96E5451EA22EF5078
:10148000F36E1B0EDB50F35C75E12BA114D008CE7C
:10149000E6FF090EE66E0E0EE66E04CEE6FF05CE02
:1014A000E6FF06CEE6FF90EC3CF0106E060EE15E25
:1014B000105001012B910E01010E096F020E0A6FEF
:1014C0001AC10BFE1BC10CFEFD0E0D6F0E691AC179
:1014D0000FFE1BC110FE18C111FE19C112FE010141
:1014E0002751272B0E01136F146BA40E156F0D0ED1
:1014F000086FE850082BEA6A090FE96E0E0EEA221F
:1015000019C1EFFF0851082BEA6A090FE96E0E0EA8
:10151000EA221B0EDBCFEFFFDF6A020EDF5C14E274
:10152000DF50EA6A540FE96E0E0EEA22EF50E66EC3
:101530000851082BEA6A090FE96E0E0EEA22E552FD
:10154000E750EF6EDF2AE9D7046B0485048F320E73
:10155000106E0C6ED6CF07F00FEC50F003C007FEF4
:1015600090EC4DF004C000FE05C001FE06C002FE76
:1015700007C003FE01012A832A8590EC4DF004C0C8
:101580002CF105C02DF106C02EF107C02FF175EF2B
:1015900016F01C0EDB6A040EF36E1C0EDBCFF4FF9C
:1015A000F350F45C18E21C0EDB500B0F020FEA6ADA
:1015B0005325E96E5451EA22EF50E66E1C0EDB50C3
:1015C000EA6A1D0FE96E010EEA22E552E750EF6E5E
:1015D0001C0EDB2AE0D78D0E296F110EEA6A532507
:1015E000E96E5451EA22EF50800B01E02991110E6F
:1015F000EA6A5325E96E5451EA22EFCF21F1120E27
:10160000EA6A5325E96E5451EA22EFCF22F11AC15A
:1016100023F11BC124F11FEC25F001013B6FFF0EEC
:101620003B5D13E03B510A0DF3CFE9FFF4CFEAFF36
:10163000600EE926000EEA22080EE926000EEA22D4
:10164000EFCF29F12985298704D08D0E296F21BF7D
:1016500029915DEC26F001013B6FFF0E3B5D5DE2E1
:101660001C0EDB6A010EF36E1C0EDBCFF4FFF35091
:10167000F45C2BE21C0EDB50130F0101EA6A5325C8
:10168000E96E5451EA22EF50E66E3B510A0DF3CF5A
:10169000E9FFF4CFEAFF600EE926000EEA22090E08
:1016A000E926000EEA22E9CF10F0EACF11F01C0E75
:1016B000DB500F01E924E96E000EEA20EA6EE552E4
:1016C000E750EF6E1C0EDB2ACDD70A0EE66EE66AF7
:1016D00001013B510A0D0E019C51F324106E9D51E6
:1016E000F420116E10C0E6FFE66E01013B510A0DB9
:1016F000F3CF12F0F4CF13F0600E1226000E132277
:1017000012C0E6FF13C0E6FF31EC4AF0146E060E7D
:10171000E15E145001013A8101D03A913A9375EF9C
:1017200016F00D0EEA6A5325E96E5451EA221D0E99
:10173000EFCFDBFF0E0EEA6A5325E96E5451EA2221
:101740001E0EEFCFDBFF0F0EEA6A5325E96E5451F0
:10175000EA221F0EEFCFDBFF100EEA6A5325E96E77
:101760005451EA22200EEFCFDBFFD9501D0FE96E56
:10177000DACFEAFFEECFE6FFEECFE6FFEECFE6FFF1
:10178000EFCFE6FFA3EC35F060EF10F00D0EEA6A44
:101790005325E96E5451EA22EFCF32F10E0EEA6A78
:1017A0005325E96E5451EA22EFCF33F10F0EEA6A66
:1017B0005325E96E5451EA22EFCF34F1100EEA6A54
:1017C0005325E96E5451EA22EFCF35F1316B318167
:1017D00090EC4DF004C036F105C037F106C038F189
:1017E00007C039F175EF16F0800E106E0D0EEA6A23
:1017F0005325E96E5451EA22EF50EA6A340FE96E3C
:101800000E0EEA22EF50105C02E375EF16F00B0E9D
:10181000176FE850172BEA6AA90FE96E030EEA2248
:10182000EF6A1751172BEA6AA90FE96E030EEA2235
:10183000B30EEF6E0D0EEA6A5325E96E5451EA229B
:10184000EF50E66E1751172BEA6AA90FE96E030EE7
:10185000EA22E552E750EF6E56EF10F00D0EEA6AFD
:101860005325E96E5451EA22EFCF10F03151F80BB5
:10187000E842E842E842105C02E075EF16F031857C
:1018800075EF16F00D0EEA6A5325E96E5451EA22FF
:10189000EF500401205D02E075EF16F00101176BB7
:1018A00024C4A9F30301020EAA6F1AC1ABF31BC132
:1018B000ACF3080E0101EA6A5325E96E5451EA229D
:1018C000EFCFADF3090EEA6A5325E96E5451EA22CF
:1018D000EFCFAEF31AC1AFF31BC1B0F318C1B1F330
:1018E00019C1B2F32751272B0301B36FB46B420E1A
:1018F000B56F01014D6B4D8B080EEA6A5325E96EF9
:101900005451EA22EFCF21F1090EEA6A5325E96E1C
:101910005451EA22EFCF22F11FEC25F0DF6EFF0ECB
:10192000DF5C02E175EF16F0DF500A0DF3CFE9FF3F
:10193000F4CFEAFF600EE926000EEA22040EE92643
:10194000000EEA22E9CF4EF1EACF4FF10D0EE66E1E
:10195000D7D00D0EEA6A5325E96E5451EA22EF50B2
:101960000401205D02E075EF16F090EC4DF004C02C
:1019700036F105C037F106C038F107C039F1010171
:1019800031830E0EEA6A5325E96E5451EA22EF5074
:101990001F0BF36EF346F346F346070E3115F310B3
:1019A000316F75EF16F0289D75EF16F00A0EEA6A92
:1019B0005325E96E5451EA22EF500401225D0EE1F5
:1019C0000D0EDBCF10F00E0EDBCF11F00101255113
:1019D000101804E12651111801E128970D0EDB5073
:1019E000800875EF16F00B0E555D086F0B0E532532
:1019F000066F000E5421076F0B0EDBCF02F10C0EA9
:101A0000DBCF03F1080EEA6A5325E96E5451EA224E
:101A1000EF50FF0810E1090EEA6A5325E96E5451B0
:101A2000EA22EF50FF0807E150AF05D051C104F1A1
:101A300052C105F107D0018F080E5325046F000E27
:101A40005421056F018D0851000802E375EF16F06F
:101A5000288575EF16F053C1E9FF54C1EAFFEF5036
:101A6000000802E375EF16F053C1E9FF54C1EAFF25
:101A7000EF06176BDF6A5551DF5C14E2DF50EA6A4C
:101A80005325E96E5451EA22EF50E66E1751172B99
:101A9000EA6AA90FE96E030EEA22E552E750EF6EFB
:101AA000DF2AE9D7100EDB50195D38E10301B4518C
:101AB00035E1300EB55D32E101014D6B4D8B0F0EFE
:101AC000DBCF21F1100EDBCF22F11FEC25F0DF6E12
:101AD000FF0802E175EF16F0DF500A0DF3CFE9FFC2
:101AE000F4CFEAFF600EE926000EEA22040EE92692
:101AF000000EEA22E9CF4EF1EACF4FF117C1E6FF1F
:101B0000A90EE66E030EE66E4DC1E6FFE9CFE6FFD5
:101B1000EACFE6FF90EC3CF055EF16F00101505192
:101B2000080B01E0010EE66E0F0EDBCFE6FF100E94
:101B3000DBCFE6FF090EDBCFE6FF0A0EDBCFE6FFC9
:101B400060EC1DF0106E050E57EF16F0040EF36EEC
:101B5000210EF3CFDBFFDB50040FEA6A5325E96E59
:101B60005451EA22EF505D0802E075EF16F028A10B
:101B700075EF16F053C1E9FF54C1EAFFEFCF23F12F
:101B8000010EEA6A5325E96E5451EA22EFCF24F19F
:101B9000020EEA6A5325E96E5451EA22EFCF21F191
:101BA000030EEA6A5325E96E5451EA22EFCF22F17F
:101BB000210EDB50EA6A5325E96E5451EA22EF50B8
:101BC000FF0802E075EF16F0210EDB28EA6A5325C4
:101BD000E96E5451EA22220EEFCFDBFF010E0B5DBE
:101BE00002E375EF16F0D950220FE96EDACFEAFF63
:101BF000EF50300BE842E842E842E842010802E2D6
:101C000075EF16F00B510B0DF3CFE9FFF4CFEAFFA0
:101C10000C0EE926010EEA2220C4EFFF0B510B0D3A
:101C2000F3CFE9FFF4CFEAFF0C0EE926010EEA221A
:101C3000070EE926000EEA2209C1EFFF0B510B0D3A
:101C4000F3CFE9FFF4CFEAFF0C0EE926010EEA22FA
:101C5000080EE926000EEA220AC1EFFF0B510B0D18
:101C6000F3CFE9FFF4CFEAFF0C0EE926010EEA22DA
:101C7000050EE926000EEA2223C1EEFF24C1EDFF86
:101C80000B510B0DF3CFE9FFF4CFEAFF0C0EE92661
:101C9000010EEA22090EE926000EEA22EF6A0B5134
:101CA0000B0DF3CFE9FFF4CFEAFF0C0EE926010E8E
:101CB000EA22090EE926000EEA22EF8CD950220F03
:101CC000E96EDACFEAFFEF50060BE842106E0B51D7
:101CD0000B0DF3CFE9FFF4CFEAFF0C0EE926010E5E
:101CE000EA22090EE926000EEA221050030BF36ED9
:101CF000FC0EEF14F310EF6ED950220FE96EDACF1D
:101D0000EAFFEF50080B0FE00B510B0DF3CFE9FF8B
:101D1000F4CFEAFF0C0EE926010EEA22090EE926AD
:101D2000000EEA22EF86D950220FE96EDACFEAFFE1
:101D3000EF50300BE842E842E842E84201080FE386
:101D40000B510B0DF3CFE9FFF4CFEAFF0C0EE926A0
:101D5000010EEA22090EE926000EEA22EF8ADF6A66
:101D6000040EDF5C24E2DF500101EA6A0425E96E1B
:101D70000551EA22EF50E66E0B510B0DF3CFE9FF50
:101D8000F4CFEAFF0C0EE926010EEA22EE52E9CF6B
:101D900010F0EACF11F0DF500F01E924E96E000ED8
:101DA000EA20EA6EE552E750EF6EDF2AD9D7DF6A04
:101DB000010EDF5C2AE2210EDB50060FDF24010159
:101DC000EA6A5325E96E5451EA22EF50E66E0B5150
:101DD0000B0DF3CFE9FFF4CFEAFF0C0EE926010E5D
:101DE000EA220A0EE926000EEA22E9CF10F0EACF35
:101DF00011F0DF500F01E924E96E000EEA20EA6ECF
:101E0000E552E750EF6EDF2AD3D701010B2B75EFB8
:101E100016F053C1E9FF54C1EAFFEF50070A02E18F
:101E20005AEF16F0040A02E112EF13F0010A01E181
:101E3000ABD2030A02E075EF16F0240EDB6A040150
:101E40002151010802E275EF16F0010128A375EF98
:101E500016F0DF6A040EDF5C13E2DF50EA6A5125F8
:101E6000E96E5251EA22EF50E66EDF50EA6A1D0F2A
:101E7000E96E010EEA22E552E750EF6EDF2AEAD75B
:101E8000F2EC25F0E76E230EE7CFDBFFDB50FF0817
:101E900070E0230EDB500A0DF3CFE9FFF4CFEAFF29
:101EA000600EE926000EEA22080EE926000EEA225C
:101EB000EF50200B5EE0230EDB5001011C5D59E06A
:101EC000230EDB500A0DF3CFE9FFF4CFEAFF600EDB
:101ED000E926000EEA22080EE926000EEA22EF505B
:101EE000080B47E0230EDB500A0DF3CFE9FFF4CFD8
:101EF000EAFF600EE926000EEA22020EE926000E35
:101F0000EA22EECF21F1EDCF22F1040121510108A7
:101F100002E275EF16F0DF6A010EDF5C01E3F0D13B
:101F2000020EDF240101EA6A5325E96E5451EA22C8
:101F3000EF50E66E230EDB500A0DF3CFE9FFF4CF2E
:101F4000EAFF600EE926000EEA22090EE926000EDD
:101F5000EA22E9CF10F0EACF11F0DF500F01E924B7
:101F6000E96E000EEA20EA6EE552E750EF6EDF2AD6
:101F7000D3D704012151000802E275EF16F00101E8
:101F8000A70E296F1AC123F11BC124F15DEC26F0C5
:101F9000E76E230EE7CFDBFFDB50FF0801E121D125
:101FA000DF6A010EDF5C29E2020EDF240101EA6A2A
:101FB0005325E96E5451EA22EF50E66E230EDB50B2
:101FC0000A0DF3CFE9FFF4CFEAFF600EE926000E19
:101FD000EA22090EE926000EEA22E9CF10F0EACF44
:101FE00011F0DF500F01E924E96E000EEA20EA6EDD
:101FF000E552E750EF6EDF2AD4D7010E0101EA6AFD
:102000005325E96E5451EA22EF50400B01E1C4D050
:10201000020E305D57E00B0E176FE850172BEA6A7F
:10202000A90FE96E030EEA22EF6A1751172BEA6A2D
:10203000A90FE96E030EEA22A00EEF6E1751172BBF
:10204000EA6AA90FE96E030EEA22EF6ADF6A040E5C
:10205000DF5C14E2DF50EA6A1D0FE96E010EEA222E
:10206000EF50E66E1751172BEA6AA90FE96E030EBF
:10207000EA22E552E750EF6EDF2AE9D7DF6A010E68
:10208000DF5C14E2DF50EA6AF70FE96E020EEA2223
:10209000EF50E66E1751172BEA6AA90FE96E030E8F
:1020A000EA22E552E750EF6EDF2AE9D7216B226B77
:1020B000E66AE66A210EE66E010EE66E1FEC2FF070
:1020C000E55260D1216B010EF36E260EF3CFDBFFDC
:1020D000100EF36E260EDBCFF4FFF350F45C32E209
:1020E000260EDBCF22F11FEC25F0E76E250EE7CFA1
:1020F000DBFFDB50FF0823E10101216B260EDBCF64
:1021000022F1DB50EA6A660FE96E0E0EEA22EF6AF0
:102110002B832B952B9790EC4DF004C02CF105C030
:102120002DF106C02EF107C02FF1120E01012C5F18
:102130007A0E2D5B000E2E5B2F5B2A8103D0260EBC
:10214000DB2AC6D7260EDB50100855E10101226BB1
:10215000010EDF6EDF50106E116AD890115004E648
:10216000800E105C000E115813E2DFCF21F11FEC3E
:1021700025F0FF080BE1800EDF240101216F1FEC29
:1021800025F0FF0803E1DFCF21F102D0DF2AE2D7FB
:10219000DF507F0830E225D019C122F1010EDF6E39
:1021A000DF50106E116AD890115004E6800E105C5A
:1021B000000E115813E2DFCF21F11FEC25F0FF08CC
:1021C0000BE1800EDF240101216F1FEC25F0FF08D9
:1021D00003E1DFCF21F102D0DF2AE2D7DF507F0811
:1021E0000AE2010EF36E240EF3CFDBFF0101FE0EB7
:1021F000216F226985D00101BF0E296F010EEA6AA5
:102200005325E96E5451EA22EF50010B02E1299166
:10221000218F240EDB5074E11AC123F11BC124F17C
:102220005DEC26F0E76E230EE7CFDBFF100EF36EBA
:10223000230EDBCFF4FFF350F45C62E2230EDB509D
:102240000A0DF3CFE9FFF4CFEAFF600EE926000E96
:10225000EA22080EE926000EEA22EF88DF6A010E64
:10226000DF5C29E2020EDF240101EA6A5325E96EF0
:102270005451EA22EF50E66E230EDB500A0DF3CFE5
:10228000E9FFF4CFEAFF600EE926000EEA22090E0C
:10229000E926000EEA22E9CF10F0EACF11F0DF5074
:1022A0000F01E924E96E000EEA20EA6EE552E750DC
:1022B000EF6EDF2AD4D70A0EE66EE66A230EDB50F5
:1022C0000A0D0E019C51F324106E9D51F420116EE5
:1022D00010C0E6FFE66E230EDB500A0DF3CF12F0BE
:1022E000F4CF13F0600E1226000E132212C0E6FF88
:1022F00013C0E6FF31EC4AF0146E060EE15E145096
:102300000301020EA96F21C1AAF322C1ABF3240E6F
:10231000DBCFACF3DF6A010EDF5C14E2DF50EA6A68
:10232000F70FE96E020EEA22EF50E66E040EDF248C
:10233000EA6AA90FE96E030EEA22E552E750EF6E52
:10234000DF2AE9D719C1AEF30101060E176F010E9E
:10235000E66E230EDB500A0DF3CFE9FFF4CFEAFF60
:10236000600EE926000EEA22040EE926000EEA229B
:10237000E9CF10F0EACF11F0E9CFE6FFEACFE6FFB0
:1023800047EC1FF0E5521CD1030EEA6A5325E96EB3
:102390005451EA22EF5001E016D1010EEA6A5325AA
:1023A000E96E5451EA22EFCF18F1020EEA6A532582
:1023B000E96E5451EA22EFCF19F118510CE12A0EBF
:1023C000E66E940EE66E07EC4BF0E552E552010125
:1023D000010E306F0AD0150EE66E940EE66E07EC15
:1023E0004BF0E552E5520101306B3051030BF36EB7
:1023F000F346F90E0015F310006F010EE66EE66A63
:10240000AACEE6FFABCEE6FF300EE66E010EE66E1C
:1024100031EC4AF0106E060EE15E10501A0EE66EB8
:10242000010EE66E180EE66E010EE66E64EC3BF0F1
:10243000E552E552E552E55201012883BF0E296FAE
:10244000DF6A040EDF5C13E2DF50EA6A5125E96EB1
:102450005251EA22EF50E66EDF50EA6A1D0FE96E34
:10246000010EEA22E552E750EF6EDF2AEAD7216B30
:10247000050EEA6A5325E96E5451EA22EFCF22F1A4
:102480001AC123F11BC124F15DEC26F001011C6F80
:10249000DF6A010EDF5C28E2040EDF240101EA6A34
:1024A0005325E96E5451EA22EF50E66E1C510A0D95
:1024B000F3CFE9FFF4CFEAFF600EE926000EEA222F
:1024C000090EE926000EEA22E9CF10F0EACF11F05A
:1024D000DF500F01E924E96E000EEA20EA6EE552B2
:1024E000E750EF6EDF2AD5D701012B892B9B2B9D5F
:1024F00090EC4DF004C02CF105C02DF106C02EF17A
:1025000007C02FF1020EE66EE66A96CEE6FF97CE82
:10251000E6FF1A0EE66E010EE66E31EC4AF0106E22
:10252000060EE15E1050020EE66EE66AA0CEE6FFF1
:10253000A1CEE6FF180EE66E010EE66E31EC4AF013
:10254000106E060EE15E1050010EE66EE66AA2CE37
:10255000E6FFA3CEE6FF1C0EE66E010EE66E31EC42
:102560004AF0106E060EE15E10500A0EE66EE66A44
:1025700001011C510A0D0E019C51F324106E9D5156
:10258000F420116E10C0E6FFE66E01011C510A0D29
:10259000F3CF12F0F4CF13F0600E1226000E1322C8
:1025A00012C0E6FF13C0E6FF31EC4AF0146E060ECF
:1025B000E15E1450F30EE66E930EE66E07EC4BF000
:1025C000E552E55292D31C691A691B692169226997
:1025D0001A0EE66E010EE66E210EE66E010EE66E36
:1025E00064EC3BF0E552E552E552E552010EE66E31
:1025F000E66AA2CEE6FFA3CEE6FF1C0EE66E010E53
:10260000E66E31EC4AF0106E060EE15E1050020EDE
:10261000E66EE66A96CEE6FF97CEE6FF1A0EE66E07
:10262000010E40D328A361D3DF6A040EDF5C13E2FE
:10263000DF50EA6A5125E96E5251EA22EF50E66E08
:10264000DF50EA6A1D0FE96E010EEA22E552E750FB
:10265000EF6EDF2AEAD7F2EC25F0E76E270EE7CF20
:10266000DBFFDB50FF0801E140D3270EDB500A0DF2
:10267000F3CFE9FFF4CFEAFF600EE926000EEA226D
:10268000080EE926000EEA22EF50200B01E12DD3BF
:10269000270EDB5001011C5D01E178D1270EDB50D4
:1026A0000A0DF3CFE9FFF4CFEAFF600EE926000E32
:1026B000EA22020EE926000EEA22EF5001E030D1B4
:1026C000020E305D01E0D5D00F0EDF6EDF50000846
:1026D0006AE2280EDFCFDBFF290EDB6A280EDB5013
:1026E00000085FE2280EDB50EA6A660FE96E0E0E04
:1026F000EA22EF50FF0855E0280EDB50EA6A660F29
:10270000E96E0E0EEA22EFCF10F0270EDB500A0D15
:10271000F3CFE9FFF4CFEAFF600EE926000EEA22CC
:10272000020EE926000EEA22010EE926000EEA2238
:10273000EF50105C25E1DF50EA6A660FE96E0E0E7D
:10274000EA22EF680101216BDFCF22F11FEC25F0B7
:10275000E76E2A0EE7CFDBFFDB50FF0822E02A0EF0
:10276000DB500A0DF3CFE9FFF4CFEAFF600EE92654
:10277000000EEA22080EE926000EEA22EF6A11D0C6
:10278000280EDB50EA6A660FE96E0E0EEA22280E6A
:10279000EFCFDBFF290EDBCFF3FFDB2AF35010086E
:1027A0009DE2DF0693D7270EDB500A0DF3CFE9FF3A
:1027B000F4CFEAFF600EE926000EEA22020EE926B7
:1027C000000EEA22010EE926000EEA22EF50EA6A24
:1027D000660FE96E0E0EEA22EF68270EDB500A0D37
:1027E000F3CFE9FFF4CFEAFF600EE926000EEA22FC
:1027F000080EE926000EEA22EF6A0A0EE66EE66A85
:10280000270EDB500A0D0E019C51F324106E9D51D2
:10281000F420116E10C0E6FFE66E270EDB500A0DA5
:10282000F3CF12F0F4CF13F0600E1226000E132235
:1028300012C0E6FF13C0E6FF31EC4AF0146E060E3C
:10284000E15E145001012B832B952B9790EC4DF0FA
:1028500004C02CF105C02DF106C02EF107C02FF1E8
:10286000120E01012C5F7A0E2D5B000E2E5B2F5B8A
:1028700057D00B0E176FE850172BEA6AA90FE96EB5
:10288000030EEA22EF6A1751172BEA6AA90FE96EC5
:10289000030EEA22A00EEF6E1751172BEA6AA90F5A
:1028A000E96E030EEA22010EEF6EDF6A040EDF5CB2
:1028B00029E2270EDB500A0DF3CFE9FFF4CFEAFF40
:1028C000600EE926000EEA22040EE926000EEA2236
:1028D000E9CF10F0EACF11F0DF500F01E924E96EE3
:1028E000000EEA20EA6EEF50E66E01011751172B39
:1028F000EA6AA90FE96E030EEA22E552E750EF6E8D
:10290000DF2AD4D7216B226BE66AE66A210EE66ED7
:10291000010EE66E1FEC2FF0E552E552E552E5524E
:10292000270EDB500A0DF3CFE9FFF4CFEAFF600E6C
:10293000E926000EEA22080EE926000EEA22EF6AD6
:102940000A0EE66EE66A270EDB500A0D0E019C5158
:10295000F324106E9D51F420116E10C0E6FFE66E58
:10296000270EDB500A0DF3CF12F0F4CF13F0600EF8
:102970001226000E132212C0E6FF13C0E6FF31EC50
:102980004AF0146E060EE15E1450AFD1DF6A100EED
:10299000DF5C71E2DF500A0DF3CFE9FFF4CFEAFF0D
:1029A000600EE926000EEA22080EE926000EEA2251
:1029B000EF50800B4FE0DF500A0DF3CFE9FFF4CF6B
:1029C000EAFF600EE926000EEA22080EE926000E54
:1029D000EA22EF50200B3EE001011C51DF5C3AE09F
:1029E000176B1751172BEA6AA90FE96E030EEA223B
:1029F000030EEF6E4D6B4D8B4D814D934D8FDF5020
:102A00000A0DF3CFE9FFF4CFEAFF600EE926000ECE
:102A1000EA22040EE926000EEA22E9CF4EF1EACFBF
:102A20004FF117C1E6FFA90EE66E030EE66E4DC12B
:102A3000E6FFE9CFE6FFEACFE6FF90EC3CF0106E50
:102A4000060EE15E1050640EE66EE66AC3EC47F0D7
:102A5000E552E552DF500A0DF3CFE9FFF4CFEAFF6C
:102A6000600EE926000EEA22080EE926000EEA2290
:102A7000EF6ADF2A8CD701010B0E176FE850172B76
:102A8000EA6AA90FE96E030EEA22EF6A1751172BC3
:102A9000EA6AA90FE96E030EEA22A00EEF6E175143
:102AA000172BEA6AA90FE96E030EEA22010EEF6EF8
:102AB000DF6A040EDF5C29E2270EDB500A0DF3CF3C
:102AC000E9FFF4CFEAFF600EE926000EEA22040EC9
:102AD000E926000EEA22E9CF10F0EACF11F0DF502C
:102AE0000F01E924E96E000EEA20EA6EEF50E66E6F
:102AF00001011751172BEA6AA90FE96E030EEA22AA
:102B0000E552E750EF6EDF2AD4D7216B226BE66ADD
:102B1000E66A210EE66E010EE66E1FEC2FF0E5521E
:102B2000E552E552E55201011C69186919691A69F3
:102B30001B691A0EE66E010EE66E180EE66E010EA9
:102B4000E66E64EC3BF0E552E552E552E5520101D8
:102B50002893DF6A100EDF5C28E2DF50EA6A660F16
:102B6000E96E0E0EEA22EF68270EDB6A020EF36EA4
:102B7000270EDBCFF4FFF350F45C15E2116ADF346B
:102B8000FE0B1136106E760E10260E0E1122270E39
:102B9000DB500F011024E96E000E1120EA6EEF6A7F
:102BA000270EDB2AE3D7DF2AD5D7DF6A020EDF5CE8
:102BB00009E2DF50EA6A540FE96E0E0EEA22EF6A6C
:102BC000DF2AF4D7010EE66EE66AA2CEE6FFA3CEB8
:102BD000E6FF1C0EE66E010EE66E31EC4AF0106E5A
:102BE000060EE15E1050020EE66EE66AA0CEE6FF2B
:102BF000A1CEE6FF180EE66E010EE66E31EC4AF04D
:102C0000106E060EE15E1050020EE66EE66A96CE7B
:102C1000E6FF97CEE6FF1A0EE66E010EE66E31EC89
:102C20004AF0106E060EE15E1050100EE66EE66A77
:102C3000A8CEE6FFA9CEE6FF660EE66E0E0EE66EA5
:102C400031EC4AF0106E060EE15E1050020EE66E98
:102C5000E66AA4CEE6FFA5CEE6FF540EE66E0E0EA3
:102C6000E66E31EC4AF0106E060EE15E1050200E5A
:102C7000E66EE66AA6CEE6FFA7CEE6FF760EE66E25
:102C80000E0EE66E31EC4AF0106E060EE15E10504C
:102C9000A00EE66EE66A9CCEE6FF9DCEE6FF600ED5
:102CA000E66E000EE66E31EC4AF0106E060EE15E46
:102CB00010501BD004012151020817E3010128A381
:102CC00014D0010EEA6A5325E96E5451EA22EF50FE
:102CD0000401205D0AE10101305107E0320EE66E89
:102CE00036EC00F0E5526DEC25F0010128B502D07C
:102CF00093EC3EF090EC4DF0010E04C0DBFF020EB1
:102D000005C0DBFF030E06C0DBFF040E07C0DBFFC0
:102D1000DF6A100EDF5C54E2DF50080DF3CFE9FFED
:102D2000F4CFEAFF580EE926010EEA22030EE92647
:102D3000000EEA22EF50000841E2DF50080DF3CF09
:102D4000E9FFF4CFEAFF580EE926010EEA22040E4D
:102D5000E926000EEA22EECF14F0EECF15F0EECF0A
:102D600016F0EFCF17F0D950010FE96EDACFEAFF76
:102D700000011450EE5C106E1550EE58116E165096
:102D8000EE58126E1750EE58136ED880240E105461
:102D9000F40E1154000E1254000E13540FE2DF50C3
:102DA000080DF3CFE9FFF4CFEAFF580EE926010E34
:102DB000EA22030EE926000EEA22EF6ADF2AA9D7EB
:102DC000D950010FE96EDACFEAFF01012C51EE5C18
:102DD000106E2D51EE58116E2E51EE58126E2F516D
:102DE000EE58136E050E10C0DBFF060E11C0DBFFA0
:102DF000070E12C0DBFF080E13C0DBFF2B510E0BBA
:102E0000E842000853E2D950050FE96EDACFEAFF35
:102E1000D880240EEE54F40EEE54000EEE54000E44
:102E2000EE5401E3B8D12B0EE96E010EEA6EEF50BD
:102E30000E0BE842E806F36EE850070BF36EF46EF3
:102E4000F346F10EEF14F310EF6E0B0E176FE85010
:102E5000172BEA6AA90FE96E030EEA22EF6A1751EF
:102E6000172BEA6AA90FE96E030EEA22A30EEF6E92
:102E7000DF6A100EDF5C14E2DF50EA6A660FE96E6B
:102E80000E0EEA22EF50E66E1751172BEA6AA90FD1
:102E9000E96E030EEA22E552E750EF6EDF2AE9D72A
:102EA000E66A020EE66E9CEC2DF0ADD02B51700B55
:102EB000E842E842E842E842000873E2D950050FD0
:102EC000E96EDACFEAFFD880240EEE54F40EEE5409
:102ED000000EEE54000EEE5401E35DD12B0EE96EB0
:102EE000010EEA6EEF50700BE842E842E842E84219
:102EF000E806F36EE850070BF36EF46EF346F34604
:102F0000F346F3468F0EEF14F310EF6E0B0E176FB0
:102F1000E850172BEA6AA90FE96E030EEA22EF6A5E
:102F20001751172BEA6AA90FE96E030EEA22A40EC5
:102F3000EF6E1751172BEA6AA90FE96E030EEA220A
:102F400019C1EFFF1751172BEA6AA90FE96E030E9B
:102F5000EA2219C1EFFFDF6A020EDF5C14E2DF50E4
:102F6000EA6A540FE96E0E0EEA22EF50E66E175130
:102F7000172BEA6AA90FE96E030EEA22E552E75021
:102F8000EF6EDF2AE9D70401010E246FE66A020E14
:102F9000E66E9CEC2DF0E552E5520401110E246F13
:102FA00034D0FF0E0E01665D3DE1010130053AE1CE
:102FB0002851020B37E0D950050FE96EDACFEAFF4E
:102FC000D880240EEE54F40EEE54000EEE54000E93
:102FD000EE5401E3E0D00B0E176FE850172BEA6AAE
:102FE000A90FE96E030EEA22EF6A1751172BEA6A5E
:102FF000A90FE96E030EEA22A20EEF6EE66A1CC16B
:10300000E6FFEAEC2DF0E552E552010EDBCF2CF1A4
:10301000020EDBCF2DF1030EDBCF2EF1040EDBCF42
:103020002FF1B9D001012AA159D0D950050FE96E6D
:10303000DACFEAFFD880480EEE54E80EEE54010EC7
:10304000EE54000EEE5401E3A6D02A91020E305D3C
:103050003AE01951EA6A660FE96E0E0EEA22EFCFE6
:1030600010F01C510A0DF3CFE9FFF4CFEAFF600E18
:10307000E926000EEA22020EE926000EEA22010EDF
:10308000E926000EEA22EF50105C1DE0216B195179
:10309000EA6A660FE96E0E0EEA22EFCF22F11FEC0C
:1030A00025F0DF6E100EDF5C03E2DFCF1CF10BD0EA
:1030B0000101BB0E296F1AC123F11BC124F15DEC84
:1030C00026F001011C6F100EE66EE66AA8CEE6FF40
:1030D000A9CEE6FF660EE66E0E0E56D02AA31BD0D2
:1030E000D950050FE96EDACFEAFFD880480EEE54CA
:1030F000E80EEE54010EEE54000EEE544CE22A930C
:10310000020EE66EE66AA4CEE6FFA5CEE6FF540EFA
:10311000E66E0E0E39D02AA51BD0D950050FE96EE8
:10312000DACFEAFFD880480EEE54E80EEE54010ED6
:10313000EE54000EEE542FE22A95200EE66EE66A5B
:10314000A6CEE6FFA7CEE6FF760EE66E0E0E1CD0EC
:103150002AA721D0D950050FE96EDACFEAFFD8802F
:10316000480EEE54E80EEE54010EEE54000EEE54EE
:1031700012E22A97A00EE66EE66A9CCEE6FF9DCE8E
:10318000E6FF600EE66E000EE66E31EC4AF0106E61
:10319000060EE15E105001012BA14BD0D950010F5A
:1031A000E96EDACFEAFF0E010051EE5C106E0151BC
:1031B000EE58116E0251EE58126E0351EE58136E16
:1031C00007CE14F0156A166A176A3E0E096E0A6A6F
:1031D0000B6A0C6A07CE04F015C005F016C006F0A5
:1031E00017C007F0EAEC4EF000C014F001C015F073
:1031F00002C016F003C017F01050005C11500158C7
:10320000125002581350035814E201012B9108CEBA
:10321000E6FF090EE66E0E0EE66E04CEE6FF05CE64
:10322000E6FF06CEE6FF90EC3CF0106E060EE15E87
:103230001050010131A327D0D950010FE96EDACF28
:10324000EAFF3651EE5C106E3751EE58116E385170
:10325000EE58126E3951EE58136ED880480E105445
:10326000E80E1154010E1254000E135449E231516C
:10327000F80BE842E842E842E66ECCEC29F0E55271
:103280000101316B3DD031A13BD0D950010FE96E26
:10329000DACFEAFF3651EE5C106E3751EE58116E00
:1032A0003851EE58126E3951EE58136ED880480ED0
:1032B0001054E80E1154010E1254000E135420E263
:1032C0002B0E20C4DBFFD9CFE6FFDACFE6FFE66A9C
:1032D0000A0EE66E32C1E6FF33C1E6FF34C1E6FFF7
:1032E00035C1E6FFADEC32F0106E080EE15E105015
:1032F0002B0EDBCFE6FFCCEC29F0E552010131913A
:103300003AA3ACD03AA17DD0D50EE66E930EE66E10
:1033100007EC4BF0E552E55201010B0E176FE85038
:10332000172BEA6AA90FE96E030EEA22EF6A17511A
:10333000172BEA6AA90FE96E030EEA22110EEF6E4F
:103340002C0EDB6A040EF36E2C0EDBCFF4FFF35071
:10335000F45C16E22C0EDB50EA6A3E0FE96E010EB9
:10336000EA22EF50E66E1751172BEA6AA90FE96EB1
:10337000030EEA22E552E750EF6E2C0EDB2AE2D76D
:103380001751172BEA6AA90FE96E030EEA223CC116
:10339000EFFF1751172BEA6AA90FE96E030EEA2215
:1033A0003DC1EFFF2C0EDB6A010EF36E2C0EDBCF5E
:1033B000F4FFF350F45C16E22C0EDB50EA6A420F85
:1033C000E96E010EEA22EF50E66E1751172BEA6AFA
:1033D000A90FE96E030EEA22E552E750EF6E2C0EBC
:1033E000DB2AE2D7E66AE66A430EE66E010EE66E77
:1033F0001FEC2FF0E552E552E552E55201013A93F8
:103400002DD0D950010FE96EDACFEAFF4951EE5CB9
:10341000106E4A51EE58116E4B51EE58126E4C51CF
:10342000EE58136E050E10C0DBFF060E11C0DBFF59
:10343000070E12C0DBFF080E13C0DBFFD950050FCB
:10344000E96EDACFEAFFD880B40EEE54C40EEE5423
:10345000040EEE54000EEE5401E23A932D0EE15CA0
:1034600002E2E16AE552E16EE552E7CFD9FF1200D0
:10347000D9CFE6FFE1CFD9FF030EE126FE0EDB50E8
:103480000CE0FE0EDB50EA6A660FE96E0E0EEA22D1
:10349000EFCF10F0100E105C02E3000E26D0010EEC
:1034A000DF6EFE0EDB50E76E010EE7CFDBFF020E94
:1034B000DB6A010EDB50EA6A660FE96E0E0EEA2245
:1034C000EF5012E0010EDB50EA6A660FE96E0E0E55
:1034D000EA22010EEFCFDBFFDF2A020EDBCFF3FF84
:1034E000DB2AF3501008E5E2DF50106E030EE15CBA
:1034F00002E2E16AE552E16E1050E552E7CFD9FFF2
:103500001200D9CFE6FFE1CFD9FF070EE126050E65
:10351000DB6AFE0EDB5010080DE30E0166510CE174
:10352000FE0EDB50EA6A660FE96E0E0EEA22EF50DD
:10353000100802E2FF0EB8D2FE0EDB50070B116E30
:10354000010E115204E0E846FE0B1106FCE1106E7C
:10355000FE0EDB50F80BE842E842E842EA6A540FFC
:10356000E96E0E0EEA22EF50101402E0FE0E9BD21E
:10357000DF6A100EDF5C27E2FE0EDB50070B136ED6
:10358000010E135204E0E846FE0B1306FCE1126E36
:10359000116ADF34FE0B1136106E760E10260E0EF9
:1035A0001122FE0EDB50F80BE842E842E8420F0120
:1035B0001024E96E000E1120EA6EEF50121401E0A3
:1035C00028D2DF2AD6D7FE0EDB50E76E020EE7CFF9
:1035D000DBFF040EDB6A020EDB5035E0020EDB502F
:1035E000EA6A660FE96E0E0EEA22EF500101195DDC
:1035F00019E1020EF36E050EF3CFDBFFFE0EDBCFFB
:10360000E6FF36DFE552106EE66E19C1E6FF30DFE9
:10361000E552E552E7CF10F0105CE76E030EE7CFFE
:10362000DBFF11D0020EDB50EA6A660FE96E0E0E68
:10363000EA22020EEFCFDBFF040EDBCFF3FFDB2A23
:10364000F3501008C8E2050EDB503FE1020E19C12D
:10365000DBFF040EDB6A020EDB5037E0020EDB50AC
:10366000EA6A660FE96E0E0EEA22EFCF10F0FE0E48
:10367000DB50105C19E1010EF36E050EF3CFDBFF9A
:1036800019C1E6FFF5DEE552106EE66EFE0EDBCFE9
:10369000E6FFEEDEE552E552E7CF10F0105CE76E94
:1036A000030EE7CFDBFF11D0020EDB50EA6A660F94
:1036B000E96E0E0EEA22020EEFCFDBFF040EDBCF27
:1036C000F3FFDB2AF3501008C6E2050EDB500EE1D3
:1036D000030EF36E050EF3CFDBFFFE0EDBCFE6FF2E
:1036E000C7DEE552E76E030EE7CFDBFF010EDF6EAC
:1036F000030EDB50DF5C01E352D1FE0EDB50E76EC0
:10370000020EE7CFDBFF010EDB6ADF50F36E010E26
:10371000DBCFF4FFF350F45C0DE2020EDB50EA6AFB
:10372000660FE96E0E0EEA22020EEFCFDBFF010EEE
:10373000DB2AEBD7020EDB50070B116E010E115284
:1037400004E0E846FE0B1106FCE1106E020EDB50B1
:10375000F80BE842E842E842EA6A540FE96E0E0EBE
:10376000EA22EF50101402E0020E9DD1060EDB6A31
:10377000100EF36E060EDBCFF4FFF350F45C4DE257
:10378000060EDB50EA6A660FE96E0E0EEA22EFCFF4
:1037900010F0100E105C3EE2060EDB50E76E020EDB
:1037A000E7CFDBFF010EDB6ADF50F36E010EDBCFEC
:1037B000F4FFF350F45C0DE2020EDB50EA6A660F90
:1037C000E96E0E0EEA22020EEFCFDBFF010EDB2ABE
:1037D000EBD7FE0EDB50F36E020EDB50F35C1AE10A
:1037E000060EDB50070B116E010E115204E0E84685
:1037F000FE0B1106FCE1106E060EDB50F80BE842E2
:10380000E842E842EA6A540FE96E0E0EEA22EF50EF
:1038100010144EE1060EDB2AABD7FE0EDB50E76E2E
:10382000020EE7CFDBFF010EDB6ADF50F36E010E05
:10383000DBCFF4FFF350F45C0DE2020EDB50EA6ADA
:10384000660FE96E0E0EEA22020EEFCFDBFF010ECD
:10385000DB2AEBD7060EDB6A100EF36E060EDBCF0B
:10386000F4FFF350F45C29E2020EDB50070B136EF9
:10387000010E135204E0E846FE0B1306FCE1126E43
:10388000060E116ADB34FE0B1136106E760E102612
:103890000E0E1122020EDB50F80BE842E842E8421D
:1038A0001024E96E000E1120EA6EEF50121402E0AF
:1038B000060EF9D0060EDB2ACFD7060EDB6A100EF5
:1038C000F36E060EDBCFF4FFF350F45C66E2060EF7
:1038D000DB50EA6A660FE96E0E0EEA22EFCF10F0B7
:1038E000100E105C57E2060EDB50E76E020EE7CFBB
:1038F000DBFF010EDB6ADF50F36E010EDBCFF4FF5E
:10390000F350F45C0DE2020EDB50EA6A660FE96EDA
:103910000E0EEA22020EEFCFDBFF010EDB2AEBD701
:10392000FE0EDB50F36E020EDB50F35C33E1010E52
:10393000DB6A100EF36E010EDBCFF4FFF350F45C84
:1039400029E2060EDB50070B136E010E135204E042
:10395000E846FE0B1306FCE1126E010E116ADB3421
:10396000FE0B1136106E760E10260E0E1122060E6C
:10397000DB50F80BE842E842E8421024E96E000E02
:103980001120EA6EEF50121402E0010E8CD0010EED
:10399000DB2ACFD7060EDB2A92D7DF2AA9D6050E5F
:1039A000DB50020838E1FE0EDB50DF6E040EDB6AEE
:1039B000DF50EA6A660FE96E0E0EEA22EF5001014F
:1039C000195D18E1DF50070B116E010E115204E072
:1039D000E846FE0B1106FCE1106EDF50F80BE842E2
:1039E000E842E842EA6A540FE96E0E0EEA22EF500E
:1039F00010140FE0DF50EA6A660FE96E0E0EEA223D
:103A0000EFCFDFFF040EDBCFF3FFDB2AF35010080C
:103A1000CFE2DF5049D001011951EA6A660FE96E21
:103A20000E0EEA22EFCFDFFF020EDFCFDBFF040E28
:103A3000DB6ADF50EA6A660FE96E0E0EEA22EFCF0C
:103A400010F0DF50105C2EE0FE0EDB50DF5C2AE051
:103A5000DF50070B116E010E115204E0E846FE0B19
:103A60001106FCE1106EDF50F80BE842E842E84234
:103A7000EA6A540FE96E0E0EEA22EF50101403E0CA
:103A8000020EDFCFDBFFDF50EA6A660FE96E0E0E33
:103A9000EA22EFCFDFFF040EDBCFF3FFDB2AF35088
:103AA0001008C7E2020EDB50106E070EE15C02E266
:103AB000E16AE552E16E1050E552E7CFD9FF1200FE
:103AC000D9CFE6FFE1CFD9FF030EE126FC0EDB5094
:103AD000E76E010EE7CFDBFFDB507F0801E2C0D1CC
:103AE0000E0166510BE1010EDB50EA6A660FE96ECA
:103AF0000E0EEA22EF50100801E2B2D1DF6A100E7A
:103B0000DF5C3CE2DF50080DF3CFE9FFF4CFEAFFC2
:103B1000580EE926010EEA22030EE926000EEA22DB
:103B2000EF50000829E2DF50080DF3CFE9FFF4CF92
:103B3000EAFF580EE926010EEA22EECF10F0EFCF91
:103B400011F0FB0EDB50101817E1FC0EDB501118C2
:103B500013E1DF50080DF3CFE9FFF4CFEAFF580E71
:103B6000E926010EEA22020EE926000EEA22EF50B3
:103B70000301B35D01E126D1DF2AC1D7DF6A100E50
:103B8000DF5C63E2DF50080DF3CFE9FFF4CFEAFF1B
:103B9000580EE926010EEA22030EE926000EEA225B
:103BA000EF5051E1DF50080DF3CFE9FFF4CFEAFF0A
:103BB000580EE926010EEA22030EE926000EEA223B
:103BC000030EEF6EDF50080DF3CFE9FFF4CFEAFFED
:103BD000580EE926010EEA22020EE926000EEA221C
:103BE000B3C3EFFFDF50080DF3CFE9FFF4CFEAFFD7
:103BF000580EE926010EEA22FB0EDBCFEEFFFC0E8B
:103C0000DBCFEDFF90EC4DF004C010F005C011F0DB
:103C100006C012F007C013F0DF50080DF3CFE9FF24
:103C2000F4CFEAFF580EE926010EEA22040EE92637
:103C3000000EEA2204C0EEFF11C0EEFF12C0EEFF3C
:103C400013C0EEFF02D0DF2A9AD7010EDB5001012C
:103C5000195D3DE1FB0EDB50800801E201D14D6BA7
:103C60004D8BFA0EDB504D97E8B04D87FB0EDBCF46
:103C700021F1FC0EDBCF22F11FEC25F0DF6EFF08F7
:103C800001E1EED0DF500A0DF3CFE9FFF4CFEAFFF8
:103C9000600EE926000EEA22040EE926000EEA2252
:103CA000E9CF4EF1EACF4FF117C1E6FFA90EE66E5C
:103CB000030EE66E4DC1E6FFE9CFE6FFEACFE6FF71
:103CC00090EC3CF0106E060EE15E1050D4D0FC0E6D
:103CD000DBCFE6FF16DCE552E76E010EE7CFDBFF38
:103CE000DB50FF0801E1BCD0010EDB50EA6A560F41
:103CF000E96E0E0EEA22EFCF10F0030E105C71E3B6
:103D0000010EDB50EA6A560FE96E0E0EEA22EF6AE8
:103D1000010EDB50070B116E010E115204E0E84654
:103D2000FE0B1106FCE1FF0A106E010EDB50F80BD2
:103D3000E842E842E842EA6A540FE96E0E0EEA22CF
:103D40001050EF16020EDB6AF36EDBCFF4FFE85083
:103D5000F45C16E2010E116ADB34FE0B1136106EB4
:103D6000760E10260E0E1122020EDB500F011024CB
:103D7000E96E000E1120EA6EEF6A020EDB2AE4D72C
:103D8000020EE66EE66AA4CEE6FFA5CEE6FF540E6E
:103D9000E66E0E0EE66E31EC4AF0106E060EE15E37
:103DA0001050200EE66EE66AA6CEE6FFA7CEE6FF2E
:103DB000760EE66E0E0EE66E31EC4AF0106E060ED2
:103DC000E15E105001012B892B9B2B9D90EC4DF057
:103DD00004C02CF105C02DF106C02EF107C02FF153
:103DE0003FD001014D6B4D8BFA0EDB504D97E8B083
:103DF0004D87216B010EDBCF22F11FEC25F0DF6E2A
:103E0000FF0826E0DF500A0DF3CFE9FFF4CFEAFF09
:103E1000600EE926000EEA22040EE926000EEA22D0
:103E2000E9CF4EF1EACF4FF117C1E6FFA90EE66EDA
:103E3000030EE66E4DC1E6FFE9CFE6FFEACFE6FFEF
:103E400090EC3CF0106E060EE15E105000090AE1A5
:103E5000010EDB50EA6A560FE96E0E0EEA22EF2AD7
:103E6000000E09D0010EDB50EA6A560FE96E0E0E05
:103E7000EA22EF6A010E106E030EE15C02E2E16AD3
:103E8000E552E16E1050E552E7CFD9FF1200D9CFCD
:103E9000E6FFE1CFD9FF01014D6BFC0EDB50030BB8
:103EA000F36EFC0E4D15F3104D6FE150FD0FE96EF2
:103EB000FF0EDA20EA6EEE50ED1001E14D854D5116
:103EC000040B02E0000E01D0010E4D9BE8B04D8BBB
:103ED0004D8FFD0EDBCF4EF1FE0EDBCF4FF117C144
:103EE000E6FFA90EE66E030EE66E4DC1E6FF4EC17B
:103EF000E6FF4FC1E6FF90EC3CF0106E060EE15E6F
:103F00001050E552E7CFD9FF1200D9CFE6FFE1CF3D
:103F1000D9FFE652DF6A100EDF5C15E2DF500A0DB2
:103F2000F3CFE9FFF4CFEAFF600EE926000EEA22A4
:103F3000080EE926000EEA22EF50800B02E1DF5066
:103F400003D0DF2AE8D7FF0EE552E552E7CFD9FFCD
:103F50001200D9CFE6FFE1CFD9FF020EE126FE0E17
:103F6000DB50FF084CE1C50EE66E930EE66E07ECE3
:103F70004BF0E552E552DF6A040EDF5C0FE2030E00
:103F8000D880DF54EA6A1C0FE96E040EEA22EF5073
:103F9000E66E37EC4BF0E552DF2AEED7B60EE66E52
:103FA000930EE66E07EC4BF0E552E55219C1E6FFC1
:103FB00037EC4BF0E55218C1E6FF37EC4BF0E55219
:103FC000AC0EE66E930EE66E07EC4BF0E552E55252
:103FD0001BC1E6FF37EC4BF0E5521AC1E6FF37ECA8
:103FE0004BF0E552A00EE66E930EE66E07EC4BF03A
:103FF000E552E55220C4E6FF68EC4BF0E552580E5E
:10400000E66E930EE66E07EC4BF0E552E552FE0EBF
:10401000DB50FF0801E0A9D1DF6A100EDF5C01E38D
:1040200052D3DF500A0DF3CFE9FFF4CFEAFF600E61
:10403000E926000EEA22080EE926000EEA22EF50D9
:10404000800B01E190D1DFCFE6FF37EC4BF0E5527A
:10405000200EE66E24EC4BF0E552200EE66E24ECCA
:104060004BF0E552200EE66E24EC4BF0E552200EAC
:10407000E66E24EC4BF0E552200EE66E24EC4BF09D
:10408000E552DF500A0DF3CFE9FFF4CFEAFF600EEF
:10409000E926000EEA22080EE926000EEA22EF5079
:1040A000010B02E0590E01D04E0EE66E24EC4BF0EF
:1040B000E552200EE66E24EC4BF0E552200EE66E43
:1040C00024EC4BF0E552DF500A0DF3CFE9FFF4CFBB
:1040D000EAFF600EE926000EEA22080EE926000E2D
:1040E000EA22EF50020B02E0590E01D04E0EE66EAE
:1040F00024EC4BF0E552200EE66E24EC4BF0E5523A
:10410000200EE66E24EC4BF0E552DF500A0DF3CFA3
:10411000E9FFF4CFEAFF600EE926000EEA22080E5E
:10412000E926000EEA22EF50080B56E0DF500A0D98
:10413000F3CFE9FFF4CFEAFF600EE926000EEA2292
:10414000010EE926000EEA22EF50E66E37EC4BF046
:10415000E552DF500A0DF3CFE9FFF4CFEAFF600E1E
:10416000E926000EEA22EF50E66E37EC4BF0E552FE
:10417000200EE66E24EC4BF0E552200EE66E24ECA9
:104180004BF0E552DF500A0DF3CFE9FFF4CFEAFF21
:10419000600EE926000EEA22020EE926000EEA224F
:1041A000010EE926000EEA22EF50E66E37EC4BF0E6
:1041B000E552DF500A0DF3CFE9FFF4CFEAFF600EBE
:1041C000E926000EEA22020EE926000EEA22EF504E
:1041D000E66E37EC4BF031D03F0EE66E24EC4BF040
:1041E000E5523F0EE66E24EC4BF0E5523F0EE66ED4
:1041F00024EC4BF0E5523F0EE66E24EC4BF0E5521A
:10420000200EE66E24EC4BF0E552200EE66E24EC18
:104210004BF0E5523F0EE66E24EC4BF0E5523F0EBC
:10422000E66E24EC4BF0E5523F0EE66E24EC4BF0CC
:10423000E5523F0EE66E24EC4BF0E552200EE66EA2
:1042400024EC4BF0E552DF500A0DF3CFE9FFF4CF39
:10425000EAFF600EE926000EEA22080EE926000EAB
:10426000EA22EF50040B31E0010EDB6A040EF36E1C
:10427000010EDBCFF4FFF350F45C27E2DF500A0DB0
:10428000F3CFE9FFF4CFEAFF600EE926000EEA2241
:10429000040EE926000EEA22E9CF10F0EACF11F071
:1042A000010EDBCFE6FF030EE552D880E7540F0185
:1042B000E924E96E000EEA20EA6EEF50E66E37EC74
:1042C0004BF0E552010EDB2AD1D7200EE66E24EC2E
:1042D0004BF0E552010EDB6A040EF36E010EDBCFEC
:1042E000F4FFF350F45C0BE2550EE66E930EE66EAF
:1042F00007EC4BF0E552E552010EDB2AEDD7010E3B
:10430000DB6AF36EDBCFF4FFE850F45C22E2DF50AF
:104310000A0DF3CFE9FFF4CFEAFF600EE926000EA5
:10432000EA22090EE926000EEA22E9CF10F0EACFD0
:1043300011F0010EDB500F01E924E96E000EEA20B6
:10434000EA6EEF50E66E37EC4BF0E552010EDB2AD9
:10435000D8D70D0EE66E24EC4BF0E5520A0EE66E51
:1043600024EC4BF0E552DF2A58D6FE0EDB500A0D46
:10437000F3CFE9FFF4CFEAFF600EE926000EEA2250
:10438000080EE926000EEA22EF50800B01E19BD1D6
:10439000FE0EDBCFE6FF37EC4BF0E552200EE66E6B
:1043A00024EC4BF0E552200EE66E24EC4BF0E55287
:1043B000200EE66E24EC4BF0E552200EE66E24EC67
:1043C0004BF0E552200EE66E24EC4BF0E552FE0E6B
:1043D000DB500A0DF3CFE9FFF4CFEAFF600EE926C8
:1043E000000EEA22080EE926000EEA22EF50010B29
:1043F00002E0590E01D04E0EE66E24EC4BF0E55271
:10440000200EE66E24EC4BF0E552200EE66E24EC16
:104410004BF0E552FE0EDB500A0DF3CFE9FFF4CF6F
:10442000EAFF600EE926000EEA22080EE926000ED9
:10443000EA22EF50020B02E0590E01D04E0EE66E5A
:1044400024EC4BF0E552200EE66E24EC4BF0E552E6
:10445000200EE66E24EC4BF0E552FE0EDB500A0D0A
:10446000F3CFE9FFF4CFEAFF600EE926000EEA225F
:10447000080EE926000EEA22EF50080B5AE0FE0E65
:10448000DB500A0DF3CFE9FFF4CFEAFF600EE92617
:10449000000EEA22010EE926000EEA22EF50E66E37
:1044A00037EC4BF0E552FE0EDB500A0DF3CFE9FF7F
:1044B000F4CFEAFF600EE926000EEA22EF50E66E26
:1044C00037EC4BF0E552200EE66E24EC4BF0E55253
:1044D000200EE66E24EC4BF0E552FE0EDB500A0D8A
:1044E000F3CFE9FFF4CFEAFF600EE926000EEA22DF
:1044F000020EE926000EEA22010EE926000EEA224B
:10450000EF50E66E37EC4BF0E552FE0EDB500A0D35
:10451000F3CFE9FFF4CFEAFF600EE926000EEA22AE
:10452000020EE926000EEA22EF50E66E37EC4BF061
:1045300031D03F0EE66E24EC4BF0E5523F0EE66EB6
:1045400024EC4BF0E5523F0EE66E24EC4BF0E552C6
:104550003F0EE66E24EC4BF0E552200EE66E24ECA6
:104560004BF0E552200EE66E24EC4BF0E5523F0E88
:10457000E66E24EC4BF0E5523F0EE66E24EC4BF079
:10458000E5523F0EE66E24EC4BF0E5523F0EE66E30
:1045900024EC4BF0E552200EE66E24EC4BF0E55295
:1045A000FE0EDB500A0DF3CFE9FFF4CFEAFF600EF9
:1045B000E926000EEA22080EE926000EEA22EF5054
:1045C000040B32E0010EDB6A040EF36E010EDBCF4A
:1045D000F4FFF350F45C28E2FE0EDB500A0DF3CF3B
:1045E000E9FFF4CFEAFF600EE926000EEA22040E8E
:1045F000E926000EEA22E9CF10F0EACF11F0010E11
:10460000DBCFE6FF030EE552D880E7540F01E92423
:10461000E96E000EEA20EA6EEF50E66E37EC4BF0E2
:10462000E552010EDB2AD0D7200EE66E24EC4BF0CB
:10463000E552010EDB6A040EF36E010EDBCFF4FFD0
:10464000F350F45C0BE2550EE66E930EE66E07EC4B
:104650004BF0E552E552010EDB2AEDD7010EDB6A85
:10466000F36EDBCFF4FFE850F45C23E2FE0EDB5088
:104670000A0DF3CFE9FFF4CFEAFF600EE926000E42
:10468000EA22090EE926000EEA22E9CF10F0EACF6D
:1046900011F0010EDB500F01E924E96E000EEA2053
:1046A000EA6EEF50E66E37EC4BF0E552010EDB2A76
:1046B000D7D70D0EE66E24EC4BF0E5520A0EE66EEF
:1046C00024EC4BF0E552020EE15C02E2E16AE552B5
:1046D000E16EE552E7CFD9FF1200D9CFE6FFE1CF77
:1046E000D9FFE65201013A91020E305D01E044D15A
:1046F0003AB33FD090EC4DF004C049F105C04AF107
:1047000006C04BF107C04CF101013C6B3D6BDF6A09
:10471000040EDF5C13E2DF50EA6A1C0FE96E040E40
:10472000EA22EF50E66EDF50EA6A3E0FE96E010EB4
:10473000EA22E552E750EF6EDF2AEAD701013A8319
:104740003A91DF6A010EDF5C01E374D1DF50EA6A5F
:10475000F70FE96E020EEA22EF50E66EDF50EA6ACA
:10476000420FE96E010EEA22E552E750EF6EDF2AB2
:10477000E9D73C513D1101E15DD118513C1902E1ED
:1047800019513D1901E156D10B0E176FE850172B47
:10479000EA6AA90FE96E030EEA22EF6A1751172B96
:1047A000EA6AA90FE96E030EEA22110EEF6EDF6AC4
:1047B000040EDF5C14E2DF50EA6A1C0FE96E040E9F
:1047C000EA22EF50E66E1751172BEA6AA90FE96E3D
:1047D000030EEA22E552E750EF6EDF2AE9D71751C0
:1047E000172BEA6AA90FE96E030EEA2218C1EFFF40
:1047F0001751172BEA6AA90FE96E030EEA2219C1B5
:10480000EFFFDF6A010EDF5C14E2DF50EA6AF70FA8
:10481000E96E020EEA22EF50E66E1751172BEA6A94
:10482000A90FE96E030EEA22E552E750EF6EDF2A88
:10483000E9D7DF6A040EDF5C13E2DF50EA6A3E0F5D
:10484000E96E010EEA22EF50E66EDF50EA6A1D0FB4
:10485000E96E010EEA22E552E750EF6EDF2AEAD751
:104860003CC121F13DC122F1EAD801013B6FFF0EAD
:104870003B5D11E03B510A0DF3CFE9FFF4CFEAFFB6
:10488000600EE926000EEA22080EE926000EEA2252
:10489000EFCF29F104D08C0E296F21AF29811AC1E5
:1048A00023F11BC124F109DA01013B6FFF0E3B5DCF
:1048B0002BE2DF6A010EDF5C27E2DF50EA6A420F7B
:1048C000E96E010EEA22EF50E66E01013B510A0D3E
:1048D000F3CFE9FFF4CFEAFF600EE926000EEA22EB
:1048E000090EE926000EEA22E9CF10F0EACF11F016
:1048F000DF500F01E924E96E000EEA20EA6EE5526E
:10490000E750EF6EDF2AD6D7E66AE66A3C0EE66E1F
:10491000010EE66E1FEC2FF0E552E552E552E5522E
:1049200001013A933A81FF0E3B5D01E383D00A0E09
:10493000E66EE66A3B510A0D0E019C51F324106E9F
:104940009D51F420116E10C0E6FFE66E01013B514F
:104950000A0DF3CF12F0F4CF13F0600E1226000E02
:10496000132212C0E6FF13C0E6FF31EC4AF0146ECA
:10497000060EE15E14505ED090EC4DF004C049F19B
:1049800005C04AF106C04BF107C04CF10101216B93
:10499000226B0B0E176FE850172BEA6AA90FE96E0E
:1049A000030EEA22EF6A1751172BEA6AA90FE96E84
:1049B000030EEA22100EEF6EDF6A040EDF5C14E2D3
:1049C000DF50EA6A1C0FE96E040EEA22EF50E66E31
:1049D0001751172BEA6AA90FE96E030EEA22E55276
:1049E000E750EF6EDF2AE9D7DF6A010EDF5C14E2E1
:1049F000DF50EA6AF70FE96E020EEA22EF50E66E28
:104A00001751172BEA6AA90FE96E030EEA22E55245
:104A1000E750EF6EDF2AE9D7E66AE66A210EE66E16
:104A2000010EE66E1FEC2FF0E552E552E552E5521D
:104A300001013A83E552E552E7CFD9FF1200D9CF01
:104A4000E6FFE1CFD9FFE652DF6A100EDF5C3FE2FE
:104A5000DF500A0DF3CFE9FFF4CFEAFF600EE9263D
:104A6000000EEA22080EE926000EEA22EF50800B23
:104A70002CE0DF500A0DF3CFE9FFF4CFEAFF600E20
:104A8000E926000EEA22080EE926000EEA22EF507F
:104A9000080B1BE0DF500A0DF3CFE9FFF4CFEAFF6C
:104AA000600EE926000EEA22020EE926000EEA2236
:104AB000EECF10F0EFCF11F001012151101805E1F8
:104AC0002251111802E1DF5003D0DF2ABED7FF0EBA
:104AD000E552E552E7CFD9FF1200D9CFE6FFE1CF8B
:104AE000D9FFE6520101176B1751172BEA6AA90F7C
:104AF000E96E030EEA221AC1EFFF1751172BEA6A7B
:104B0000A90FE96E030EEA221BC1EFFF1751172B05
:104B1000EA6AA90FE96E030EEA2218C1EFFF1751E6
:104B2000172BEA6AA90FE96E030EEA2219C1EFFFFB
:104B30001751172BEA6AA90FE96E030EEA22EF68F4
:104B40001751172BEA6AA90FE96E030EEA2200C17A
:104B5000EFFF1751172BEA6AA90FE96E030EEA223D
:104B6000EF6A1751172BEA6AA90FE96E030EEA22C2
:104B7000EF6A1751172BEA6AA90FE96E030EEA22B2
:104B80005D0EEF6E1751172BEA6AA90FE96E030E3F
:104B9000EA22410EEF6EDF6A010EDF5C14E2DF50A5
:104BA000EA6AF70FE96E020EEA22EF50E66E17513D
:104BB000172BEA6AA90FE96E030EEA22E552E750C5
:104BC000EF6EDF2AE9D7030EE66E000EE66EE66AA8
:104BD00047EC1FF0E552E552E552E552E552E7CFCA
:104BE000D9FF1200D9CFE6FFE1CFD9FF020EE126AF
:104BF000DF6A100EDF5C54E2DF500A0DF3CFE9FFED
:104C0000F4CFEAFF600EE926000EEA22080EE9263C
:104C1000000EEA22EF50800B41E0DF500A0DF3CF87
:104C2000E9FFF4CFEAFF600EE926000EEA22080E43
:104C3000E926000EEA22EF50040B30E0010EDB6A99
:104C4000040EF36E010EDBCFF4FFF350F45C24E2AC
:104C5000DF500A0DF3CFE9FFF4CFEAFF600EE9263B
:104C6000000EEA22040EE926000EEA22010EDB50B5
:104C7000E924E96E000EEA20EA6EEFCF10F0010E93
:104C8000DB50EA6A1D0FE96E010EEA22EF50105C5C
:104C900005E1010EDB2AD4D7DF5003D0DF2AA9D7E4
:104CA000FF0E106E020EE15C02E2E16AE552E16E77
:104CB0001050E552E7CFD9FF1200D9CFE6FFE1CF80
:104CC000D9FF020EE126DF68010129A502D08ADFA3
:104CD00003D029A702D0B3DEDF6EFF0EDF5C03E155
:104CE00085EC1FF0DF6EFF0EDF5C65E0DF500A0D24
:104CF000F3CFE9FFF4CFEAFF600EE926000EEA22C7
:104D0000080EE926000EEA2229C1EFFF010129A5BC
:104D10002FD0010EDB6A040EF36E010EDBCFF4FF21
:104D2000F350F45C25E2010EDB50EA6A1D0FE96ED8
:104D3000010EEA22EF50E66EDF500A0DF3CFE9FFD5
:104D4000F4CFEAFF600EE926000EEA22040EE926FF
:104D5000000EEA22010EDB500F01E924E96E000E7D
:104D6000EA20EA6EE552E750EF6E010EDB2AD3D758
:104D7000010129A712D0DF500A0DF3CFE9FFF4CFCC
:104D8000EAFF600EE926000EEA22020EE926000E76
:104D9000EA2221C1EEFF22C1EDFFDF500A0DF3CF61
:104DA000E9FFF4CFEAFF600EE926000EEA2223C1F4
:104DB000EEFF24C1EDFFDF50106E020EE15C02E257
:104DC000E16AE552E16E1050E552E7CFD9FF1200DB
:104DD000D9CFE6FFE1CFD9FFE652DF6A040EDF5CF0
:104DE00021E2DF50E76EFD0EDBCFE9FFFE0EDBCFE9
:104DF000EAFFE750E926000EEA22EFCF10F0DF507D
:104E0000E76EFB0EDBCFE9FFFC0EDBCFEAFFE750DE
:104E1000E926000EEA22EF50105C02E0000E03D0FB
:104E2000DF2ADCD7010EE552E552E7CFD9FF1200A9
:104E3000D9CFE6FFE1CFD9FF050EE126A9EC4CF072
:104E40006CEC4AF00108010118691969340E1A6FF7
:104E5000120E1B6F030EDB6A100EF36E030EDBCF18
:104E6000F4FFF350F45C13E2030EDB500A0DF3CFB2
:104E7000E9FFF4CFEAFF600EE926000EEA22080EF1
:104E8000E926000EEA22EF6A030EDB2AE5D7030EBD
:104E9000DB6A020EF36E030EDBCFF4FFF350F45C1B
:104EA0000BE2030EDB50EA6A540FE96E0E0EEA22A3
:104EB000EF6A030EDB2AEDD7030EDB6A100EF36EEA
:104EC000030EDBCFF4FFF350F45C0BE2030EDB5078
:104ED000EA6A560FE96E0E0EEA22EF6A030EDB2A2B
:104EE000EDD70101306B2B6B286B2A6B3A6B006B93
:104EF00086EC4DF00101176BFE0EDB5001E119D17C
:104F0000010EE66EE66A98CEE6FF99CEE6FF200E29
:104F1000E66E040EE66E2BEC4AF0106E060EE15EB5
:104F20001050200E0401205D16E2020EE66EE66AC5
:104F3000A0CEE6FFA1CEE6FF180EE66E010EE66EED
:104F40002BEC4AF0106E060EE15E10500101181DA8
:104F500004E1191D02E1000E13D2020EE66EE66AAC
:104F600096CEE6FF97CEE6FF1A0EE66E010EE66ECF
:104F70002BEC4AF0106E060EE15E1050010EE66E4C
:104F8000E66A9ACEE6FF9BCEE6FF210EE66E040EA1
:104F9000E66E2BEC4AF0106E060EE15E1050040136
:104FA00021510101030BF36EF346F346F346F3463A
:104FB000CF0E0015F310006FA00EE66EE66A9CCED1
:104FC000E6FF9DCEE6FF600EE66E000EE66E2BEC71
:104FD0004AF0106E060EE15E1050020EE66EE66AB2
:104FE000A0CEE6FFA1CEE6FF180EE66E010EE66E3D
:104FF0002BEC4AF0106E060EE15E1050010EE66ECC
:10500000E66AA2CEE6FFA3CEE6FF1C0EE66E010E18
:10501000E66E2BEC4AF0106E060EE15E1050020EAA
:10502000E66EE66AA4CEE6FFA5CEE6FF540EE66E77
:105030000E0EE66E2BEC4AF0106E060EE15E10507E
:10504000200EE66EE66AA6CEE6FFA7CEE6FF760E57
:10505000E66E0E0EE66E2BEC4AF0106E060EE15E6A
:105060001050100EE66EE66AA8CEE6FFA9CEE6FF67
:10507000660EE66E0E0EE66E2BEC4AF0106E060E15
:10508000E15E1050010EE66EE66AAACEE6FFABCEF8
:10509000E6FF300EE66E010EE66E2BEC4AF0106E67
:1050A000060EE15E10504C0EE66E930EE66E07ECB7
:1050B0004BF0E552E55220C4E6FF68EC4BF0E552B8
:1050C000440EE66E930EE66E07EC4BF0E552E552A9
:1050D0001BC1E6FF37EC4BF0E5521AC1E6FF37EC97
:1050E0004BF0E552390EE66E930EE66E07EC4BF090
:1050F000E552E55219C1E6FF37EC4BF0E55218C115
:10510000E6FF37EC4BF0E55220C4E6FF45D9E55207
:105110001A0EE66E010EE66E180EE66E010EE66ED3
:1051200064EC3BF0E552E552E552E552010128837B
:10513000C0D0340EE66E930EE66E07EC4BF0E552EF
:10514000E552020EE66EE66A96CEE6FF97CEE6FFE1
:105150001A0EE66E010EE66E31EC4AF0106E060E87
:10516000E15E1050010EE66EE66A98CEE6FF99CE3B
:10517000E6FF200EE66E040EE66E31EC4AF0106E8D
:10518000060EE15E1050010EE66EE66A9ACEE6FF6C
:105190009BCEE6FF210EE66E040EE66E31EC4AF081
:1051A000106E060EE15E1050A00EE66EE66A9CCE12
:1051B000E6FF9DCEE6FF600EE66E000EE66E31EC79
:1051C0004AF0106E060EE15E1050020EE66EE66AC0
:1051D000A0CEE6FFA1CEE6FF180EE66E010EE66E4B
:1051E00031EC4AF0106E060EE15E1050010EE66ED4
:1051F000E66AA2CEE6FFA3CEE6FF1C0EE66E010E27
:10520000E66E31EC4AF0106E060EE15E1050030EB1
:10521000DB6A020EF36E030EDBCFF4FFF350F45C97
:105220000BE2030EDB50EA6A540FE96E0E0EEA221F
:10523000EF6A030EDB2AEDD7030EDB6A100EF36E66
:10524000030EDBCFF4FFF350F45C2BE2040EDB6AB9
:10525000020EF36E040EDBCFF4FFF350F45C16E2A3
:10526000030E116ADB34FE0B1136106E760E10261B
:105270000E0E1122040EDB500F011024E96E000EF9
:105280001120EA6EEF6A040EDB2AE2D7030EDB5030
:10529000EA6A660FE96E0E0EEA22EF68030EDB2A59
:1052A000CDD7310EE66E930EE66E07EC4BF0E5526D
:1052B000E552DF6ADF96DF98DF8ADF9CDF82FE0E31
:1052C000DB50106ED9CFE9FFDACFEAFFE850010BCF
:1052D000F36EF346F346FB0EEF14F310EF6ED95066
:1052E000010FE96EDACFEAFF1C0EEE6E040EED6ED2
:1052F000DECFE6FFDECFE6FFDDCFE6FFDD52EBECF3
:105300003BF0E552E552E5521A0EE66E010EE66EEE
:10531000180EE66E010EE66E64EC3BF0E552E552C7
:10532000E552E55220C4E6FF37D8E552010100817D
:10533000040121510101030BF36EF346F346F346DA
:10534000F346CF0E0015F310006F008D3051030BA4
:10535000F36EF346F90E0015F310006F2A6B90EC14
:105360004DF004C02CF105C02DF106C02EF107C090
:105370002FF10101316BD6CF27F1F094F08A010EA5
:10538000106E050EE15C02E2E16AE552E16E10503A
:10539000E552E7CFD9FF1200D9CFE6FFE1CFD9FF21
:1053A000E66AFE0EDBCFE6FF6BEC3BF0E552E55222
:1053B000000916E0FE0EDBCF20F4010EE66EE66A71
:1053C00098CEE6FF99CEE6FF200EE66E040EE66E5E
:1053D00031EC4AF0106E060EE15E1050010E01D065
:1053E000000EE552E7CFD9FF1200D9CFE6FFE1CF9B
:1053F000D9FFFE0EDB50030821E3FE0EDBCF21F4C4
:10540000040121510101030BF36EF346F346F34609
:10541000F346CF0E0015F310006F010EE66EE66A3C
:105420009ACEE6FF9BCEE6FF210EE66E040EE66EF8
:1054300031EC4AF0106E060EE15E1050E552E7CFF7
:10544000D9FF1200D9CFE6FFE1CFD9FF0E0EE1263A
:10545000010EF36EDB6E020EDB6A030EDB6A040ED6
:10546000DB6A050E20C4DBFFDF6A010EDF5C0DE2A4
:10547000DF500B0DF3CFE9FFF4CFEAFF0C0EE92666
:10548000010EEA22EF68DF2AF0D701010B6B2881B9
:10549000DF6A200EDF5C01E3B0D0010EDBCF10F03D
:1054A000020EDBCF11F0030EDBCF12F0040EDBCFC8
:1054B00013F0DF501F0B07E0D8901036113612366C
:1054C0001336E806F9E1D950FA0FE96EFF0EDA203B
:1054D000EA6EEE501016EE501116EE501216EE5007
:1054E0001316105011101210131001E184D0210E68
:1054F000E66E930EE66E07EC4BF0E552E552DFCF19
:10550000E6FF68EC4BF0E552DFCFE6FF45DFE55202
:105510000101176B1751172BEA6AA90FE96E030EE9
:10552000EA22070EEF6E1751172BEA6AA90FE96EF0
:10553000030EEA2220C4EFFF010EE66E000EE66EB7
:10554000E66A47EC1FF0E552E552E55290EC4DF06B
:10555000060E04C0DBFF070E05C0DBFF080E06C009
:10556000DBFF090E07C0DBFFCBDA000901E0D0DA70
:1055700090EC4DF00A0E04C0DBFF0B0E05C0DBFF04
:105580000C0E06C0DBFF0D0E07C0DBFF0A0EDBCFE3
:1055900014F00B0EDBCF15F00C0EDBCF16F00D0E5A
:1055A000DBCF17F0D950060FE96EDACFEAFFEE50E5
:1055B000145C106EEE501558116EEE501658126EA7
:1055C000EE501758136EFE0EDB50040DF3CFF6FFAE
:1055D000F4CFF7FFFE0EF6269E0EF72210500900BC
:1055E000F55C11500900F55812500900F558135098
:1055F0000900F558B9E2DF2A4CD7050EDBCFE6FFEC
:10560000CBDEE552010128910B51106E0E0EE15CCC
:1056100002E2E16AE552E16E1050E552E7CFD9FFB0
:105620001200D9CFE6FFE1CFD9FF0A0EE126030E23
:10563000DF6EFD0EDB040EE16DEC23F001013AA3F9
:1056400005D05EDA0009FAE063DAF8D73AA147D26A
:105650003B514AD2FD0EDB5001E045D2FE0EDB503D
:10566000FF0826E1010E106E116A126A136A040126
:1056700020511F0B07E0D890103611361236133622
:10568000E806F9E110C0E6FF11C0E6FF12C0E6FF30
:1056900013C0E6FF0A0EE66ED5DE146E050EE15E5F
:1056A0001450000903E1DF06DDE119D2FE0EDB6ACA
:1056B000FE0EDB500B0DF3CFE9FFF4CFEAFF0C0E2B
:1056C000E926010EEA22050EE926000EEA22EECFB7
:1056D00023F1EDCF24F1010EDB6A040EF36E010E0F
:1056E000DBCFF4FFF350F45C27E2FE0EDB500B0D32
:1056F000F3CFE9FFF4CFEAFF0C0EE926010EEA2210
:10570000EE52E9CF10F0EACF11F0010EDB500F019D
:10571000E924E96E000EEA20EA6EEF50E66E010E13
:10572000DB50EA6A1D0FE96E010EEA22E552E750EE
:10573000EF6E010EDB2AD1D7F2EC25F001011C6FD0
:10574000FF0E1C5D07E185EC1FF001011C6FFF08D7
:1057500001E1C5D11C510A0DF3CFE9FFF4CFEAFFF7
:10576000600EE926000EEA22080EE926000EEA2263
:10577000EF6AFE0EDB500B0DF3CFE9FFF4CFEAFF2B
:105780000C0EE926010EEA22050EE926000EEA2299
:10579000EECF10F0EFCF11F01C510A0DF3CFE9FF5F
:1057A000F4CFEAFF600EE926000EEA2210C0EEFFF9
:1057B00011C0EDFF010EDB6A040EF36E010EDBCFAC
:1057C000F4FFF350F45C38E2FE0EDB500B0DF3CF28
:1057D000E9FFF4CFEAFF0C0EE926010EEA22EE52B1
:1057E000E9CF12F0EACF13F0010EDB50E924E96EA5
:1057F000000EEA20EA6EEF50E66E1C510A0DF3CF60
:10580000E9FFF4CFEAFF600EE926000EEA22040E5B
:10581000E926000EEA22E9CF10F0EACF11F0010EDE
:10582000DB50E924E96E000EEA20EA6EE552E7500B
:10583000EF6E010EDB2AC0D71C510A0DF3CFE9FF32
:10584000F4CFEAFF600EE926000EEA22080EE926F0
:10585000000EEA22EF84010EDB6ADBCFF4FFE85092
:10586000F45C3BE2FE0EDB500B0DF3CFE9FFF4CF0F
:10587000EAFF0C0EE926010EEA220A0EE926000EC6
:10588000EA22E9CF12F0EACF13F0010EDB50E9244F
:10589000E96E000EEA20EA6EEF50E66E1C510A0D2A
:1058A000F3CFE9FFF4CFEAFF600EE926000EEA220B
:1058B000090EE926000EEA22E9CF10F0EACF11F036
:1058C000010EDB50E924E96E000EEA20EA6EE55293
:1058D000E750EF6E010EDB2AC0D71C510A0DF3CF43
:1058E000E9FFF4CFEAFF600EE926000EEA22080E77
:1058F000E926000EEA22EF821C510A0DF3CFE9FFE0
:10590000F4CFEAFF600EE926000EEA22080EE9262F
:10591000000EEA22EF8A1C510A0DF3CFE9FFF4CF03
:10592000EAFF600EE926000EEA22080EE926000EC4
:10593000EA22EF80FE0EDB500B0DF3CFE9FFF4CF30
:10594000EAFF0C0EE926010EEA22EF50E66E24DD96
:10595000E55201011C510A0DF3CFE9FFF4CFEAFF34
:10596000600EE926000EEA22EECF1AF1EDCF1BF110
:10597000216922691A0EE66E010EE66E210EE66EB0
:10598000010EE66E64EC3BF0E552E552E552E5525D
:105990000101176B1751172BEA6AA90FE96E030E65
:1059A000EA22010EEF6E1751172BEA6AA90FE96E72
:1059B000030EEA2200C1EFFF010EDB6ADBCFF4FF2A
:1059C000E850F45C16E2010EDB50EA6AF70FE96E6C
:1059D000020EEA22EF50E66E1751172BEA6AA90F62
:1059E000E96E030EEA22E552E750EF6E010EDB2A64
:1059F000E5D7010EE66E1C510A0DF3CFE9FFF4CF97
:105A0000EAFF600EE926000EEA22040EE926000EE7
:105A1000EA22E9CF10F0EACF11F0E9CFE6FFEACFB2
:105A2000E6FF47EC1FF0E552E552E55290EC4DF0F1
:105A3000020E04C0DBFF030E05C0DBFF040E06C030
:105A4000DBFF050E07C0DBFF01011C510A0DF3CF80
:105A5000E9FFF4CFEAFF600EE926000EEA22080E05
:105A6000E926000EEA22EF50100B3BE149D800096D
:105A700001E04ED890EC4DF0060E04C0DBFF070E9F
:105A800005C0DBFF080E06C0DBFF090E07C0DBFF09
:105A9000060EDBCF14F0070EDBCF15F0080EDBCFC0
:105AA00016F0090EDBCF17F0D950020FE96EDACFEE
:105AB000EAFFEE50145C106EEE501558116EEE5069
